{"abi":[{"type":"function","name":"DOMAIN_SEPARATOR","inputs":[],"outputs":[{"name":"","type":"bytes32","internalType":"bytes32"}],"stateMutability":"view"},{"type":"function","name":"accountManager","inputs":[],"outputs":[{"name":"","type":"address","internalType":"address"}],"stateMutability":"view"},{"type":"function","name":"admin","inputs":[],"outputs":[{"name":"","type":"address","internalType":"address"}],"stateMutability":"view"},{"type":"function","name":"allowance","inputs":[{"name":"","type":"address","internalType":"address"},{"name":"","type":"address","internalType":"address"}],"outputs":[{"name":"","type":"uint256","internalType":"uint256"}],"stateMutability":"view"},{"type":"function","name":"approve","inputs":[{"name":"spender","type":"address","internalType":"address"},{"name":"amount","type":"uint256","internalType":"uint256"}],"outputs":[{"name":"","type":"bool","internalType":"bool"}],"stateMutability":"nonpayable"},{"type":"function","name":"asset","inputs":[],"outputs":[{"name":"","type":"address","internalType":"contract ERC20"}],"stateMutability":"view"},{"type":"function","name":"balanceOf","inputs":[{"name":"","type":"address","internalType":"address"}],"outputs":[{"name":"","type":"uint256","internalType":"uint256"}],"stateMutability":"view"},{"type":"function","name":"borrows","inputs":[],"outputs":[{"name":"","type":"uint256","internalType":"uint256"}],"stateMutability":"view"},{"type":"function","name":"borrowsOf","inputs":[{"name":"","type":"address","internalType":"address"}],"outputs":[{"name":"","type":"uint256","internalType":"uint256"}],"stateMutability":"view"},{"type":"function","name":"collectFrom","inputs":[{"name":"account","type":"address","internalType":"address"},{"name":"amt","type":"uint256","internalType":"uint256"}],"outputs":[{"name":"","type":"bool","internalType":"bool"}],"stateMutability":"nonpayable"},{"type":"function","name":"convertToAssets","inputs":[{"name":"shares","type":"uint256","internalType":"uint256"}],"outputs":[{"name":"","type":"uint256","internalType":"uint256"}],"stateMutability":"view"},{"type":"function","name":"convertToShares","inputs":[{"name":"assets","type":"uint256","internalType":"uint256"}],"outputs":[{"name":"","type":"uint256","internalType":"uint256"}],"stateMutability":"view"},{"type":"function","name":"decimals","inputs":[],"outputs":[{"name":"","type":"uint8","internalType":"uint8"}],"stateMutability":"view"},{"type":"function","name":"deposit","inputs":[{"name":"assets","type":"uint256","internalType":"uint256"},{"name":"receiver","type":"address","internalType":"address"}],"outputs":[{"name":"shares","type":"uint256","internalType":"uint256"}],"stateMutability":"nonpayable"},{"type":"function","name":"getBorrowBalance","inputs":[{"name":"account","type":"address","internalType":"address"}],"outputs":[{"name":"","type":"uint256","internalType":"uint256"}],"stateMutability":"view"},{"type":"function","name":"getBorrows","inputs":[],"outputs":[{"name":"","type":"uint256","internalType":"uint256"}],"stateMutability":"view"},{"type":"function","name":"init","inputs":[{"name":"_asset","type":"address","internalType":"contract ERC20"},{"name":"_name","type":"string","internalType":"string"},{"name":"_symbol","type":"string","internalType":"string"},{"name":"_registry","type":"address","internalType":"contract IRegistry"},{"name":"_originationFee","type":"uint256","internalType":"uint256"},{"name":"_treasury","type":"address","internalType":"address"},{"name":"_reserveShares","type":"uint256","internalType":"uint256"},{"name":"_maxSupply","type":"uint256","internalType":"uint256"}],"outputs":[],"stateMutability":"nonpayable"},{"type":"function","name":"initDep","inputs":[{"name":"_rateModel","type":"string","internalType":"string"}],"outputs":[],"stateMutability":"nonpayable"},{"type":"function","name":"lastUpdated","inputs":[],"outputs":[{"name":"","type":"uint256","internalType":"uint256"}],"stateMutability":"view"},{"type":"function","name":"lendTo","inputs":[{"name":"account","type":"address","internalType":"address"},{"name":"amt","type":"uint256","internalType":"uint256"}],"outputs":[{"name":"isFirstBorrow","type":"bool","internalType":"bool"}],"stateMutability":"nonpayable"},{"type":"function","name":"maxDeposit","inputs":[{"name":"","type":"address","internalType":"address"}],"outputs":[{"name":"","type":"uint256","internalType":"uint256"}],"stateMutability":"view"},{"type":"function","name":"maxMint","inputs":[{"name":"","type":"address","internalType":"address"}],"outputs":[{"name":"","type":"uint256","internalType":"uint256"}],"stateMutability":"view"},{"type":"function","name":"maxRedeem","inputs":[{"name":"owner","type":"address","internalType":"address"}],"outputs":[{"name":"","type":"uint256","internalType":"uint256"}],"stateMutability":"view"},{"type":"function","name":"maxSupply","inputs":[],"outputs":[{"name":"","type":"uint256","internalType":"uint256"}],"stateMutability":"view"},{"type":"function","name":"maxWithdraw","inputs":[{"name":"owner","type":"address","internalType":"address"}],"outputs":[{"name":"","type":"uint256","internalType":"uint256"}],"stateMutability":"view"},{"type":"function","name":"mint","inputs":[{"name":"shares","type":"uint256","internalType":"uint256"},{"name":"receiver","type":"address","internalType":"address"}],"outputs":[{"name":"assets","type":"uint256","internalType":"uint256"}],"stateMutability":"nonpayable"},{"type":"function","name":"name","inputs":[],"outputs":[{"name":"","type":"string","internalType":"string"}],"stateMutability":"view"},{"type":"function","name":"nonces","inputs":[{"name":"","type":"address","internalType":"address"}],"outputs":[{"name":"","type":"uint256","internalType":"uint256"}],"stateMutability":"view"},{"type":"function","name":"originationFee","inputs":[],"outputs":[{"name":"","type":"uint256","internalType":"uint256"}],"stateMutability":"view"},{"type":"function","name":"paused","inputs":[],"outputs":[{"name":"","type":"bool","internalType":"bool"}],"stateMutability":"view"},{"type":"function","name":"permit","inputs":[{"name":"owner","type":"address","internalType":"address"},{"name":"spender","type":"address","internalType":"address"},{"name":"value","type":"uint256","internalType":"uint256"},{"name":"deadline","type":"uint256","internalType":"uint256"},{"name":"v","type":"uint8","internalType":"uint8"},{"name":"r","type":"bytes32","internalType":"bytes32"},{"name":"s","type":"bytes32","internalType":"bytes32"}],"outputs":[],"stateMutability":"nonpayable"},{"type":"function","name":"previewDeposit","inputs":[{"name":"assets","type":"uint256","internalType":"uint256"}],"outputs":[{"name":"","type":"uint256","internalType":"uint256"}],"stateMutability":"view"},{"type":"function","name":"previewMint","inputs":[{"name":"shares","type":"uint256","internalType":"uint256"}],"outputs":[{"name":"","type":"uint256","internalType":"uint256"}],"stateMutability":"view"},{"type":"function","name":"previewRedeem","inputs":[{"name":"shares","type":"uint256","internalType":"uint256"}],"outputs":[{"name":"","type":"uint256","internalType":"uint256"}],"stateMutability":"view"},{"type":"function","name":"previewWithdraw","inputs":[{"name":"assets","type":"uint256","internalType":"uint256"}],"outputs":[{"name":"","type":"uint256","internalType":"uint256"}],"stateMutability":"view"},{"type":"function","name":"rateModel","inputs":[],"outputs":[{"name":"","type":"address","internalType":"contract IRateModel"}],"stateMutability":"view"},{"type":"function","name":"redeem","inputs":[{"name":"shares","type":"uint256","internalType":"uint256"},{"name":"receiver","type":"address","internalType":"address"},{"name":"owner","type":"address","internalType":"address"}],"outputs":[{"name":"assets","type":"uint256","internalType":"uint256"}],"stateMutability":"nonpayable"},{"type":"function","name":"registry","inputs":[],"outputs":[{"name":"","type":"address","internalType":"contract IRegistry"}],"stateMutability":"view"},{"type":"function","name":"symbol","inputs":[],"outputs":[{"name":"","type":"string","internalType":"string"}],"stateMutability":"view"},{"type":"function","name":"togglePause","inputs":[],"outputs":[],"stateMutability":"nonpayable"},{"type":"function","name":"totalAssets","inputs":[],"outputs":[{"name":"","type":"uint256","internalType":"uint256"}],"stateMutability":"view"},{"type":"function","name":"totalBorrowShares","inputs":[],"outputs":[{"name":"","type":"uint256","internalType":"uint256"}],"stateMutability":"view"},{"type":"function","name":"totalSupply","inputs":[],"outputs":[{"name":"","type":"uint256","internalType":"uint256"}],"stateMutability":"view"},{"type":"function","name":"transfer","inputs":[{"name":"to","type":"address","internalType":"address"},{"name":"amount","type":"uint256","internalType":"uint256"}],"outputs":[{"name":"","type":"bool","internalType":"bool"}],"stateMutability":"nonpayable"},{"type":"function","name":"transferFrom","inputs":[{"name":"from","type":"address","internalType":"address"},{"name":"to","type":"address","internalType":"address"},{"name":"amount","type":"uint256","internalType":"uint256"}],"outputs":[{"name":"","type":"bool","internalType":"bool"}],"stateMutability":"nonpayable"},{"type":"function","name":"transferOwnership","inputs":[{"name":"newAdmin","type":"address","internalType":"address"}],"outputs":[],"stateMutability":"nonpayable"},{"type":"function","name":"treasury","inputs":[],"outputs":[{"name":"","type":"address","internalType":"address"}],"stateMutability":"view"},{"type":"function","name":"updateMaxSupply","inputs":[{"name":"_maxSupply","type":"uint256","internalType":"uint256"}],"outputs":[],"stateMutability":"nonpayable"},{"type":"function","name":"updateOriginationFee","inputs":[{"name":"_originationFee","type":"uint256","internalType":"uint256"}],"outputs":[],"stateMutability":"nonpayable"},{"type":"function","name":"updateState","inputs":[],"outputs":[],"stateMutability":"nonpayable"},{"type":"function","name":"withdraw","inputs":[{"name":"assets","type":"uint256","internalType":"uint256"},{"name":"receiver","type":"address","internalType":"address"},{"name":"owner","type":"address","internalType":"address"}],"outputs":[{"name":"shares","type":"uint256","internalType":"uint256"}],"stateMutability":"nonpayable"},{"type":"event","name":"Approval","inputs":[{"name":"owner","type":"address","indexed":true,"internalType":"address"},{"name":"spender","type":"address","indexed":true,"internalType":"address"},{"name":"amount","type":"uint256","indexed":false,"internalType":"uint256"}],"anonymous":false},{"type":"event","name":"Deposit","inputs":[{"name":"caller","type":"address","indexed":true,"internalType":"address"},{"name":"owner","type":"address","indexed":true,"internalType":"address"},{"name":"assets","type":"uint256","indexed":false,"internalType":"uint256"},{"name":"shares","type":"uint256","indexed":false,"internalType":"uint256"}],"anonymous":false},{"type":"event","name":"OwnershipTransferred","inputs":[{"name":"previousAdmin","type":"address","indexed":true,"internalType":"address"},{"name":"newAdmin","type":"address","indexed":true,"internalType":"address"}],"anonymous":false},{"type":"event","name":"PauseToggled","inputs":[{"name":"admin","type":"address","indexed":true,"internalType":"address"},{"name":"pause","type":"bool","indexed":false,"internalType":"bool"}],"anonymous":false},{"type":"event","name":"ReservesRedeemed","inputs":[{"name":"treasury","type":"address","indexed":true,"internalType":"address"},{"name":"amt","type":"uint256","indexed":false,"internalType":"uint256"}],"anonymous":false},{"type":"event","name":"Transfer","inputs":[{"name":"from","type":"address","indexed":true,"internalType":"address"},{"name":"to","type":"address","indexed":true,"internalType":"address"},{"name":"amount","type":"uint256","indexed":false,"internalType":"uint256"}],"anonymous":false},{"type":"event","name":"Withdraw","inputs":[{"name":"caller","type":"address","indexed":true,"internalType":"address"},{"name":"receiver","type":"address","indexed":true,"internalType":"address"},{"name":"owner","type":"address","indexed":true,"internalType":"address"},{"name":"assets","type":"uint256","indexed":false,"internalType":"uint256"},{"name":"shares","type":"uint256","indexed":false,"internalType":"uint256"}],"anonymous":false},{"type":"error","name":"AccountManagerOnly","inputs":[]},{"type":"error","name":"AdminOnly","inputs":[]},{"type":"error","name":"ContractAlreadyInitialized","inputs":[]},{"type":"error","name":"ContractPaused","inputs":[]},{"type":"error","name":"MaxSupply","inputs":[]},{"type":"error","name":"MinimumShares","inputs":[]},{"type":"error","name":"ZeroAddress","inputs":[]}],"bytecode":{"object":"0x6080806040523460155761223b908161001a8239f35b5f80fdfe604060808152600480361015610013575f80fd5b5f3560e01c90816301e1d114146118d857816306fdde031461184657816307a2d13a14611633578163095ea7b3146117d85781630a28a477146117ba578163136cf1f71461179c57816318160ddd146117805781631d8557d71461176657816323b872dd146116e4578163313ce567146116c35781633644e515146116a757816338d52e0f1461167f578163402d267d146116515781634cdad506146116335781635c975abb1461160e57816361d027b3146115e65781636ab22cf0146114dd5781636b6d25861461135d5781636d47049a146113335781636e553f651461121a57816370a08231146103f95781637b103999146111ee5781637d6af0791461118a5781637ecebe001461115357816391c2c4691461112b57816394bf804d1461102857816395d89b4114610f49578163a108845914610f21578163a9059cbb14610eef578163b3d7f6b914610ed1578163b460af9414610e08578163b8bb5c4214610dea578163ba08765214610cd5578163bde4f47714610c9e578163bf9836a614610bfe578163c4ae316814610b7d578163c63d75b614610b57578163c6e6f5921461035a578163cbcafed2146106e1578163ce96cb77146106a9578163d0b06f5d1461068b578163d505accf1461044e578163d5abeb0114610430578163d905777e146103f9578163dd62ed3e146103b0578163eae93e7e1461037f578163ef8b30f71461035a578163f103b43314610323578163f2fde38b1461029657508063f851a4401461026f5763ff3f60e71461024e575f80fd5b3461026b575f36600319011261026b576020906011549051908152f35b5f80fd5b503461026b575f36600319011261026b575f5490516001600160a01b039091168152602090f35b90503461026b57602036600319011261026b576102b161198c565b5f54916001600160a01b0380841692338403610313571693841561030657505082907f8be0079c531659141344cd1fd0a4f28419497f9722a3daafe3b4186f6b6457e05f80a36001600160a01b031916175f55005b5163d92e233d60e01b8152fd5b8551633057182d60e21b81528390fd5b823461026b57602036600319011261026b575f546001600160a01b0316330361034d575035600555005b51633057182d60e21b8152fd5b823461026b57602036600319011261026b5761037860209235611c14565b9051908152f35b823461026b575f36600319011261026b576020906103786011546103aa6103a4611cd3565b82611c8e565b90611a1b565b823461026b578060031936011261026b576020906103cc61198c565b6103d46119a2565b9060018060a01b038091165f5260078452825f2091165f528252805f20549051908152f35b823461026b57602036600319011261026b576020906001600160a01b0361041e61198c565b165f5260068252805f20549051908152f35b823461026b575f36600319011261026b576020906005549051908152f35b90503461026b5760e036600319011261026b5761046961198c565b6104716119a2565b9260443590606435936084359360ff851680950361026b5742861061064857610498611b3d565b9660018060a01b0380921696875f52602096600a8852855f20998a549a60018c019055865192858a8501957f6e71edae12b1b97f4d1f60370fef10105fa2faae0126114a169c64845d6126c987528c8a870152169b8c606086015289608086015260a085015260c084015260c0835260e0830167ffffffffffffffff9484821086831117610635578189528451902061010085019261190160f01b8452610102860152610122850152604281526101608401948186109086111761062257848852519020835261018082015260a4356101a082015260c4356101c0909101525f808052869160809060015afa15610618575f5116908115158061060f575b156105db5750907f8c5be1e5ebec7d5bd14f71427d1e84f3dd0314c0f7b2291e5b200ac8c7c3b9259392915f5260078352805f20865f52835281815f205551908152a3005b825162461bcd60e51b8152908101859052600e60248201526d24a72b20a624a22fa9a4a3a722a960911b6044820152606490fd5b50858214610596565b82513d5f823e3d90fd5b604187634e487b7160e01b5f525260245ffd5b604188634e487b7160e01b5f525260245ffd5b506020606492519162461bcd60e51b8352820152601760248201527f5045524d49545f444541444c494e455f455850495245440000000000000000006044820152fd5b823461026b575f36600319011261026b576020906012549051908152f35b823461026b57602036600319011261026b576020906001600160a01b036106ce61198c565b165f5260068252610378815f2054611acd565b823461026b5761010036600319011261026b576001600160a01b039082358281169081900361026b5767ffffffffffffffff9360243585811161026b5761072b90369083016119b8565b939060443587811161026b5761074490369085016119b8565b9093606435958887169586880361026b5760a435998a16809a0361026b57600d549660ff8816610b47578215908115610b3e575b508015610b36575b610b26576001948560ff1980991617600d553315610b1657906107c06107c8926bffffffffffffffffffffffff60a01b9b338d5f5416175f553691611c33565b943691611c33565b918189600b541617600b5560c435600c558551809263313ce56760e01b8252818360209586935afa968715610b0d57505f96610ad4575b5083518b8111610ac1578061081487546118f4565b95601f96878111610a68575b5084908783116001146109fe575f926109f3575b50505f19600383901b1c191690861b1785555b82519a8b116109e057508961085d6002546118f4565b84811161097c575b505080928a116001146108f65750978092819260ff969798999a5f946108eb575b50501b915f199060031b1c1916176002555b1690600354161760035560e435600555466008556108b4611e59565b600955600d5490610100600160a81b039060081b1690610100600160a81b03191617600d5560843560135560105416176010555f80f35b015192508a80610886565b909891601f1983169960025f527f405787fa12a823e0f2b7631cc41b3ba8828b3321ca811111fa75cd3aa3bb5ace925f905b8c82106109655750508360ff9798999a9b1061094d575b505050811b01600255610898565b01515f1960f88460031b161c1916905588808061093f565b808785968294968601518155019501930190610928565b60025f52847f405787fa12a823e0f2b7631cc41b3ba8828b3321ca811111fa75cd3aa3bb5ace918482850160051c840194106109d7575b0160051c019085905b8281106109cc57508b9150610865565b5f81550185906109bc565b925081926109b3565b604190634e487b7160e01b5f525260245ffd5b015190508d80610834565b90889350601f19831691845f525f805160206121e6833981519152925f5b88828210610a525750508411610a3a575b505050811b018555610847565b01515f1960f88460031b161c191690558d8080610a2d565b8385015186558c97909501949384019301610a1c565b909150875f525f805160206121e68339815191528780850160051c820192878610610ab8575b918a91869594930160051c01915b828110610aaa575050610820565b5f81558594508a9101610a9c565b92508192610a8e565b604182634e487b7160e01b5f525260245ffd5b9095508181813d8311610b06575b610aec818361192c565b8101031261026b575160ff8116810361026b57948b6107ff565b503d610ae2565b513d5f823e3d90fd5b865163d92e233d60e01b81528490fd5b855163d92e233d60e01b81528390fd5b508915610780565b9050158c610778565b8651631ee1e30360e21b81528490fd5b823461026b57602036600319011261026b57602090610b7461198c565b50610378611bf6565b823461026b575f36600319011261026b575f54336001600160a01b03821603610bf05760ff908160a01b828260a01c161560a01b16908260a01b19161791825f55519160a01c16151581527f79a5bc58b021076f821571d0fe8b0ae3d9e0a666563bb064fdbf0bf69281331c60203392a2005b5051633057182d60e21b8152fd5b823461026b578060031936011261026b57610c1761198c565b600f54602435936001600160a01b039182163303610c90575083610c70610c7b92610c43602097611f8c565b94610c4f861515611b54565b1693845f5260158752855f20610c66828254611b30565b9055601454611b30565b601455601154611b30565b6011555f5260158252805f2054159051908152f35b835163fae067e560e01b8152fd5b823461026b57602036600319011261026b576020906001600160a01b03610cc361198c565b165f5260158252805f20549051908152f35b90503461026b57610ce5366119e6565b90916001600160a01b0391808316919033839003610d9f575b610d0782611acd565b958615610d6e575092859282610d2c6020999794610d6897610d27611b04565b612180565b86519085825289820152828416907ffbde797d201c681b91056529119e0b02407c7bb96a4a2c75c01fc9667232c8db883392a4600b5416611fae565b51908152f35b606490602089519162461bcd60e51b8352820152600b60248201526a5a45524f5f41535345545360a81b6044820152fd5b825f526007602052865f20335f52602052865f2054825f198203610dc5575b5050610cfe565b610dce91611b30565b835f526007602052875f20335f52602052875f20555f82610dbe565b823461026b575f36600319011261026b576020906013549051908152f35b823461026b57610d68602091610e1d366119e6565b939190610e2982611ae5565b946001600160a01b039081811690610e4e90889033849003610e8a575b610d27611b04565b85518481528789820152828416907ffbde797d201c681b91056529119e0b02407c7bb96a4a2c75c01fc9667232c8db883392a4600b5416611fae565b835f5260078b52885f20335f528b52885f2054825f198203610eae575b5050610e46565b610eb791611b30565b845f5260078c52895f20335f528c52895f20558b82610ea7565b823461026b57602036600319011261026b5761037860209235611bd8565b823461026b578060031936011261026b57602090610f18610f0e61198c565b6024359033611dea565b90519015158152f35b823461026b575f36600319011261026b57600e5490516001600160a01b039091168152602090f35b823461026b575f36600319011261026b5780515f600254610f69816118f4565b80845290602090600190818116908115610ffe5750600114610fa5575b610fa18587610f978288038361192c565b5191829182611962565b0390f35b60025f90815293507f405787fa12a823e0f2b7631cc41b3ba8828b3321ca811111fa75cd3aa3bb5ace5b838510610feb57505050508101602001610f9782610fa1610f86565b8054868601840152938201938101610fcf565b610fa197955086935060209250610f9794915060ff191682840152151560051b8201019294610f86565b90503461026b578160031936011261026b578035916110456119a2565b839061104f611b04565b61105885611bd8565b938054158061111b575b6110cb575b50600b54602095506001600160a01b03919061108a9086903090339086166120e2565b6110948382612095565b8351928584528684015216907fdcbc1c05240f31ff3ad067ef1ee35ce4997762752e3a095284754544f4c709d7833392a351908152f35b9091506110e46110df60ff60035416611bc5565b611b95565b85111561110d57506111066020946110fd600c5461203e565b600c5490611b30565b905f611067565b825163a212f0b960e01b8152fd5b50600660ff600354161015611062565b823461026b575f36600319011261026b57600f5490516001600160a01b039091168152602090f35b823461026b57602036600319011261026b576020906001600160a01b0361117861198c565b165f52600a8252805f20549051908152f35b823461026b57602036600319011261026b576020906001600160a01b036111af61198c565b165f5260158252805f205460145480155f146111cd57509051908152f35b6111e8916111e26011546103aa6103a4611cd3565b90611c79565b90610d68565b823461026b575f36600319011261026b57600d54905160089190911c6001600160a01b03168152602090f35b823461026b578060031936011261026b578135906112366119a2565b9161123f611b04565b61124881611c14565b92831561130257845415806112f2575b6112c0575b600b54602095506001600160a01b03919061127f9084903090339086166120e2565b6112898582612095565b8351928352848684015216907fdcbc1c05240f31ff3ad067ef1ee35ce4997762752e3a095284754544f4c709d7833392a351908152f35b92936112d36110df60ff60035416611bc5565b85111561110d57506112ec6020946110fd600c5461203e565b9261125d565b50600660ff600354161015611258565b825162461bcd60e51b8152602081870152600b60248201526a5a45524f5f53484152455360a81b6044820152606490fd5b823461026b57602036600319011261026b575f546001600160a01b0316330361034d575035601355005b90503461026b576020918260031936011261026b57813567ffffffffffffffff811161026b5761139090369084016119b8565b5f5490946001600160a01b039490929091851633036114ce576044958386600d5460081c16918651988982819363bf40fac160e01b97888452868a850152816024850152848401375f828201840152601f01601f19168101030181845afa9687156114c4575f9761149a575b509160648493928493886bffffffffffffffffffffffff60a01b9a168a600e541617600e55875196879485938452830152600f60248301526e20a1a1a7aaa72a2fa6a0a720a3a2a960891b60448301525afa928315610b0d57505f9261146d575b50501690600f541617600f555f80f35b61148c9250803d10611493575b611484818361192c565b810190611ba6565b5f8061145d565b503d61147a565b849391975083926114b9606492853d871161149357611484818361192c565b9892945092506113fc565b85513d5f823e3d90fd5b508251633057182d60e21b8152fd5b90503461026b578160031936011261026b576114f761198c565b916024359260ff5f5460a01c166115d857600f546001600160a01b039390841633036115ca5750602093610d689161152d611b04565b6115c485821695865f5260158852855f2054159661154a85611f8c565b90611556821515611b54565b61156282601454611a1b565b6014555f5260158952611579875f20918254611a1b565b905561158784601154611a1b565b6011556115a560135461159e60ff60035416611b95565b9086611c79565b906115ba8282600b5416836010541690611fae565b600b541693611b30565b91611fae565b825163fae067e560e01b8152fd5b505163ab35696f60e01b8152fd5b823461026b575f36600319011261026b5760105490516001600160a01b039091168152602090f35b823461026b575f36600319011261026b5760209060ff5f5460a01c1690519015158152f35b823461026b57602036600319011261026b5761037860209235611acd565b823461026b57602036600319011261026b5760209061166e61198c565b5061037861167a611bf6565b611acd565b823461026b575f36600319011261026b57600b5490516001600160a01b039091168152602090f35b823461026b575f36600319011261026b57602090610378611b3d565b823461026b575f36600319011261026b5760209060ff600354169051908152f35b823461026b57606036600319011261026b57602090610f1861170461198c565b61170c6119a2565b6001600160a01b0382165f818152600787528581203382528752859020546044359391908460018201611742575b505050611dea565b61174b91611b30565b905f5260078752855f20335f528752855f205586808461173a565b3461026b575f36600319011261026b5761177e611b04565b005b823461026b575f36600319011261026b57602091549051908152f35b823461026b575f36600319011261026b576020906014549051908152f35b823461026b57602036600319011261026b5761037860209235611ae5565b823461026b578060031936011261026b576020906117f461198c565b602435335f5260078452825f209160018060a01b031691825f52845280835f205582519081527f8c5be1e5ebec7d5bd14f71427d1e84f3dd0314c0f7b2291e5b200ac8c7c3b925843392a35160018152f35b823461026b575f36600319011261026b5780515f60018054611867816118f4565b8085529160209160018116908115610ffe575060011461189257610fa18587610f978288038361192c565b60015f90815293505f805160206121e68339815191525b8385106118c557505050508101602001610f9782610fa1610f86565b80548686018401529382019381016118a9565b823461026b575f36600319011261026b57602090610378611a3c565b90600182811c92168015611922575b602083101461190e57565b634e487b7160e01b5f52602260045260245ffd5b91607f1691611903565b90601f8019910116810190811067ffffffffffffffff82111761194e57604052565b634e487b7160e01b5f52604160045260245ffd5b602060409281835280519182918282860152018484015e5f828201840152601f01601f1916010190565b600435906001600160a01b038216820361026b57565b602435906001600160a01b038216820361026b57565b9181601f8401121561026b5782359167ffffffffffffffff831161026b576020838186019501011161026b57565b606090600319011261026b57600435906001600160a01b0390602435828116810361026b5791604435908116810361026b5790565b91908201809211611a2857565b634e487b7160e01b5f52601160045260245ffd5b600b546040516370a0823160e01b815230600482015290602090829060249082906001600160a01b03165afa8015611ac2575f90611a8e575b611a8b91506103aa6011546103aa6103a4611cd3565b90565b506020813d602011611aba575b81611aa86020938361192c565b8101031261026b57611a8b9051611a75565b3d9150611a9b565b6040513d5f823e3d90fd5b60045480611ad9575090565b611a8b916111e2611a3c565b60045480611af1575090565b90611a8b91611afe611a3c565b91611cb6565b6012544214611b2e57611b25611b18611cd3565b6103aa6011549182611c8e565b60115542601255565b565b91908203918211611a2857565b6008544603611b4c5760095490565b611a8b611e59565b15611b5b57565b60405162461bcd60e51b81526020600482015260126024820152715a45524f5f424f52524f575f53484152455360701b6044820152606490fd5b60ff16604d8111611a2857600a0a90565b9081602091031261026b57516001600160a01b038116810361026b5790565b60ff6001199116019060ff8211611a2857565b60045480611be4575090565b611a8b91611bf0611a3c565b90611cb6565b6004546005549081811015611c0e57611a8b91611b30565b50505f90565b60045480611c20575090565b90611a8b91611c2d611a3c565b91611c79565b92919267ffffffffffffffff821161194e5760405191611c5d601f8201601f19166020018461192c565b82948184528183011161026b578281602093845f960137010152565b815f1904811182021583021561026b57020490565b90670de0b6b3a764000091815f1904811182021583021561026b570290808204910615150190565b815f1904811182021583021561026b570290808204910615150190565b601254428103611ce257505f90565b611cec9042611b30565b670de0b6b3a764000090818102918183041490151715611a2857600e54600b546040516370a0823160e01b81523060048201526001600160a01b03928316936020939092849183916024918391165afa8015611ac25783915f91611dbb575b506044601154916040519687938492630ab25e6560e31b8452600484015260248301525afa918215611ac2575f92611d89575b50611a8b9250611c8e565b90915082813d8311611db4575b611da0818361192c565b8101031261026b57611a8b9151905f611d7e565b503d611d96565b82819392503d8311611de3575b611dd2818361192c565b8101031261026b578290515f611d4b565b503d611dc8565b6001600160a01b039182169291908315611e47575f805160206121c6833981519152916020911692835f526006825260405f20611e28828254611b30565b9055845f526006825260405f20818154019055604051908152a3600190565b60405163d92e233d60e01b8152600490fd5b6040515f6001916001549181611e6e846118f4565b9182825260209586830195876001821691825f14611f6e575050600114611f26575b50611e9d9250038261192c565b51902090604051908101917f8b73c3c69bb8fe3d512ecc4cf759cc79239f7b179b0ffacaa9a75d522b39400f835260408201527fc89efdaa54c0f20c7adf612882df0950f5a951637e0307cdcb4c672f298b8bc660608201524660808201523060a082015260a0815260c0810181811067ffffffffffffffff82111761194e5760405251902090565b86915060015f525f805160206121e6833981519152905f915b858310611f56575050611e9d93508201015f611e90565b80548388018501528694508893909201918101611f3f565b60ff19168852611e9d95151560051b85010192505f9150611e909050565b60145480611f98575090565b90611a8b91611afe6011546103aa6103a4611cd3565b60405163a9059cbb60e01b81526001600160a01b03909216600483015260248201929092526020905f9060449082855af19081601f3d1160015f5114161516612031575b5015611ffa57565b60405162461bcd60e51b815260206004820152600f60248201526e1514905394d1915497d19052531151608a1b6044820152606490fd5b3b153d171590505f611ff2565b61204a81600454611a1b565b8060045560055410612083575f5f805160206121c6833981519152602082938380526006825260408420818154019055604051908152a3565b604051632cdb04a160e21b8152600490fd5b6120a182600454611a1b565b8060045560055410612083575f805160206121c683398151915260205f9260018060a01b0316938484526006825260408420818154019055604051908152a3565b6040516323b872dd60e01b81526001600160a01b03928316600482015292909116602483015260448201929092526020905f9060649082855af19081601f3d1160015f5114161516612173575b501561213757565b60405162461bcd60e51b81526020600482015260146024820152731514905394d1915497d19493d357d1905253115160621b6044820152606490fd5b3b153d171590505f61212f565b905f805160206121c683398151915260205f9360018060a01b03169283855260068252604085206121b2828254611b30565b90558060045403600455604051908152a356feddf252ad1be2c89b69c2b068fc378daa952ba7f163c4a11628f55a4df523b3efb10e2d527612073b26eecdfd717e6a320cf44b4afac2b0732d9fcbe2b7fa0cf6a2646970667358221220b71d9f9003a67632cee2fa6f79f95783eb4790586c748c75b3f78eef6814a9fc64736f6c63430008190033","linkReferences":{}},"methodIdentifiers":{"DOMAIN_SEPARATOR()":"3644e515","accountManager()":"91c2c469","admin()":"f851a440","allowance(address,address)":"dd62ed3e","approve(address,uint256)":"095ea7b3","asset()":"38d52e0f","balanceOf(address)":"70a08231","borrows()":"ff3f60e7","borrowsOf(address)":"bde4f477","collectFrom(address,uint256)":"bf9836a6","convertToAssets(uint256)":"07a2d13a","convertToShares(uint256)":"c6e6f592","decimals()":"313ce567","deposit(uint256,address)":"6e553f65","getBorrowBalance(address)":"7d6af079","getBorrows()":"eae93e7e","init(address,string,string,address,uint256,address,uint256,uint256)":"cbcafed2","initDep(string)":"6b6d2586","lastUpdated()":"d0b06f5d","lendTo(address,uint256)":"6ab22cf0","maxDeposit(address)":"402d267d","maxMint(address)":"c63d75b6","maxRedeem(address)":"d905777e","maxSupply()":"d5abeb01","maxWithdraw(address)":"ce96cb77","mint(uint256,address)":"94bf804d","name()":"06fdde03","nonces(address)":"7ecebe00","originationFee()":"b8bb5c42","paused()":"5c975abb","permit(address,address,uint256,uint256,uint8,bytes32,bytes32)":"d505accf","previewDeposit(uint256)":"ef8b30f7","previewMint(uint256)":"b3d7f6b9","previewRedeem(uint256)":"4cdad506","previewWithdraw(uint256)":"0a28a477","rateModel()":"a1088459","redeem(uint256,address,address)":"ba087652","registry()":"7b103999","symbol()":"95d89b41","togglePause()":"c4ae3168","totalAssets()":"01e1d114","totalBorrowShares()":"136cf1f7","totalSupply()":"18160ddd","transfer(address,uint256)":"a9059cbb","transferFrom(address,address,uint256)":"23b872dd","transferOwnership(address)":"f2fde38b","treasury()":"61d027b3","updateMaxSupply(uint256)":"f103b433","updateOriginationFee(uint256)":"6d47049a","updateState()":"1d8557d7","withdraw(uint256,address,address)":"b460af94"},"id":77}