{"abi":[{"type":"constructor","inputs":[],"stateMutability":"nonpayable"},{"type":"function","name":"admin","inputs":[],"outputs":[{"name":"","type":"address","internalType":"address"}],"stateMutability":"view"},{"type":"function","name":"canCall","inputs":[{"name":"target","type":"address","internalType":"address"},{"name":"useEth","type":"bool","internalType":"bool"},{"name":"data","type":"bytes","internalType":"bytes"}],"outputs":[{"name":"isValid","type":"bool","internalType":"bool"},{"name":"tokensIn","type":"address[]","internalType":"address[]"},{"name":"tokensOut","type":"address[]","internalType":"address[]"}],"stateMutability":"view"},{"type":"function","name":"controllerFor","inputs":[{"name":"","type":"address","internalType":"address"}],"outputs":[{"name":"","type":"address","internalType":"contract IController"}],"stateMutability":"view"},{"type":"function","name":"isTokenAllowed","inputs":[{"name":"","type":"address","internalType":"address"}],"outputs":[{"name":"","type":"bool","internalType":"bool"}],"stateMutability":"view"},{"type":"function","name":"toggleTokenAllowance","inputs":[{"name":"token","type":"address","internalType":"address"}],"outputs":[],"stateMutability":"nonpayable"},{"type":"function","name":"transferOwnership","inputs":[{"name":"newAdmin","type":"address","internalType":"address"}],"outputs":[],"stateMutability":"nonpayable"},{"type":"function","name":"updateController","inputs":[{"name":"target","type":"address","internalType":"address"},{"name":"controller","type":"address","internalType":"contract IController"}],"outputs":[],"stateMutability":"nonpayable"},{"type":"event","name":"OwnershipTransferred","inputs":[{"name":"previousAdmin","type":"address","indexed":true,"internalType":"address"},{"name":"newAdmin","type":"address","indexed":true,"internalType":"address"}],"anonymous":false},{"type":"event","name":"UpdateController","inputs":[{"name":"target","type":"address","indexed":true,"internalType":"address"},{"name":"controller","type":"address","indexed":true,"internalType":"address"}],"anonymous":false},{"type":"error","name":"AdminOnly","inputs":[]},{"type":"error","name":"ZeroAddress","inputs":[]}],"bytecode":{"object":"0x60808060405234603d573315602e575f80546001600160a01b0319163317905560405161058890816100428239f35b63d92e233d60e01b8152600490fd5b5f80fdfe6080604090808252600480361015610015575f80fd5b5f3560e01c9182633414d0991461027c5750816346439ee21461022d5781635f436da214610199578163e1dd1cd014610160578163f2fde38b146100d357508063f851a440146100ac5763f9eaee0d1461006d575f80fd5b346100a85760203660031901126100a8576020906001600160a01b0361009161040f565b165f526001825260ff815f20541690519015158152f35b5f80fd5b50346100a8575f3660031901126100a8575f5490516001600160a01b039091168152602090f35b9050346100a85760203660031901126100a8576100ee61040f565b5f54916001600160a01b0380841692338403610150571693841561014357505082907f8be0079c531659141344cd1fd0a4f28419497f9722a3daafe3b4186f6b6457e05f80a36001600160a01b031916175f55005b5163d92e233d60e01b8152fd5b8551633057182d60e21b81528390fd5b82346100a85760203660031901126100a8576020906001600160a01b038061018661040f565b165f5260028352815f2054169051908152f35b82346100a857806003193601126100a8576101b261040f565b6024356001600160a01b03818116949092918590036100a857825f5416330361021f57501690815f5260026020525f20826bffffffffffffffffffffffff60a01b8254161790557f19b7d592cea0dfda222f6a4ea5c5a8d018ee9c6b1d0a917483a405de94eb26cd5f80a3005b8351633057182d60e21b8152fd5b9050346100a85760203660031901126100a85761024861040f565b5f546001600160a01b0392908316330361021f5750165f5260016020525f20805460ff80821615169060ff19161790555f80f35b8390346100a85760603660031901126100a85761029761040f565b92602435938415158095036100a8576044359167ffffffffffffffff958684116100a857366023850112156100a85783820135928784116100a85736602485870101116100a8578584819560245f9884968c60849760018060a01b0380911691828e5260026020528d20541699633414d09960e01b8852870152828601526060604486015282606486015201848401378181018301879052601f01601f191681010301915afa918215610406575f915f945f9461039f575b50508161038a575b6103869192610379825195869515158652606060208701526060860190610425565b9184830390850152610425565b0390f35b61038691506103988461050e565b9150610357565b9250935091503d805f853e6103b48185610461565b8301926060818503126100a85780519384151585036100a85760208201518381116100a857816103e5918401610497565b92848301519081116100a8576103fb9201610497565b92909291848061034f565b513d5f823e3d90fd5b600435906001600160a01b03821682036100a857565b9081518082526020808093019301915f5b828110610444575050505090565b83516001600160a01b031685529381019392810192600101610436565b90601f8019910116810190811067ffffffffffffffff82111761048357604052565b634e487b7160e01b5f52604160045260245ffd5b81601f820112156100a85780519160209167ffffffffffffffff8411610483578360051b90604051946104cc85840187610461565b855283808601928201019283116100a8578301905b8282106104ef575050505090565b81516001600160a01b03811681036100a85781529083019083016104e1565b5f5b815181101561054b5760016020818060a01b03818460051b86010151165f525260ff60405f2054161561054557600101610510565b50505f90565b505060019056fea2646970667358221220a3e51ad5c4aa65db283d1fb136579461cd42ff43b2c53890399dbc6845eb000564736f6c63430008190033","linkReferences":{}},"methodIdentifiers":{"admin()":"f851a440","canCall(address,bool,bytes)":"3414d099","controllerFor(address)":"e1dd1cd0","isTokenAllowed(address)":"f9eaee0d","toggleTokenAllowance(address)":"46439ee2","transferOwnership(address)":"f2fde38b","updateController(address,address)":"5f436da2"},"id":35}