{
    "abi": [
        {
            "type": "constructor",
            "inputs": [],
            "stateMutability": "nonpayable"
        },
        {
            "type": "function",
            "name": "allowance",
            "inputs": [
                {
                    "name": "owner",
                    "type": "address",
                    "internalType": "address"
                },
                {
                    "name": "spender",
                    "type": "address",
                    "internalType": "address"
                }
            ],
            "outputs": [
                {
                    "name": "",
                    "type": "uint256",
                    "internalType": "uint256"
                }
            ],
            "stateMutability": "view"
        },
        {
            "type": "function",
            "name": "approve",
            "inputs": [
                {
                    "name": "spender",
                    "type": "address",
                    "internalType": "address"
                },
                {
                    "name": "value",
                    "type": "uint256",
                    "internalType": "uint256"
                }
            ],
            "outputs": [
                {
                    "name": "",
                    "type": "bool",
                    "internalType": "bool"
                }
            ],
            "stateMutability": "nonpayable"
        },
        {
            "type": "function",
            "name": "balanceOf",
            "inputs": [
                {
                    "name": "account",
                    "type": "address",
                    "internalType": "address"
                }
            ],
            "outputs": [
                {
                    "name": "",
                    "type": "uint256",
                    "internalType": "uint256"
                }
            ],
            "stateMutability": "view"
        },
        {
            "type": "function",
            "name": "decimals",
            "inputs": [],
            "outputs": [
                {
                    "name": "",
                    "type": "uint8",
                    "internalType": "uint8"
                }
            ],
            "stateMutability": "view"
        },
        {
            "type": "function",
            "name": "mint",
            "inputs": [
                {
                    "name": "account",
                    "type": "address",
                    "internalType": "address"
                }
            ],
            "outputs": [
                {
                    "name": "",
                    "type": "uint256",
                    "internalType": "uint256"
                }
            ],
            "stateMutability": "nonpayable"
        },
        {
            "type": "function",
            "name": "name",
            "inputs": [],
            "outputs": [
                {
                    "name": "",
                    "type": "string",
                    "internalType": "string"
                }
            ],
            "stateMutability": "view"
        },
        {
            "type": "function",
            "name": "symbol",
            "inputs": [],
            "outputs": [
                {
                    "name": "",
                    "type": "string",
                    "internalType": "string"
                }
            ],
            "stateMutability": "view"
        },
        {
            "type": "function",
            "name": "totalSupply",
            "inputs": [],
            "outputs": [
                {
                    "name": "",
                    "type": "uint256",
                    "internalType": "uint256"
                }
            ],
            "stateMutability": "view"
        },
        {
            "type": "function",
            "name": "transfer",
            "inputs": [
                {
                    "name": "to",
                    "type": "address",
                    "internalType": "address"
                },
                {
                    "name": "value",
                    "type": "uint256",
                    "internalType": "uint256"
                }
            ],
            "outputs": [
                {
                    "name": "",
                    "type": "bool",
                    "internalType": "bool"
                }
            ],
            "stateMutability": "nonpayable"
        },
        {
            "type": "function",
            "name": "transferFrom",
            "inputs": [
                {
                    "name": "from",
                    "type": "address",
                    "internalType": "address"
                },
                {
                    "name": "to",
                    "type": "address",
                    "internalType": "address"
                },
                {
                    "name": "value",
                    "type": "uint256",
                    "internalType": "uint256"
                }
            ],
            "outputs": [
                {
                    "name": "",
                    "type": "bool",
                    "internalType": "bool"
                }
            ],
            "stateMutability": "nonpayable"
        },
        {
            "type": "event",
            "name": "Approval",
            "inputs": [
                {
                    "name": "owner",
                    "type": "address",
                    "indexed": true,
                    "internalType": "address"
                },
                {
                    "name": "spender",
                    "type": "address",
                    "indexed": true,
                    "internalType": "address"
                },
                {
                    "name": "value",
                    "type": "uint256",
                    "indexed": false,
                    "internalType": "uint256"
                }
            ],
            "anonymous": false
        },
        {
            "type": "event",
            "name": "Transfer",
            "inputs": [
                {
                    "name": "from",
                    "type": "address",
                    "indexed": true,
                    "internalType": "address"
                },
                {
                    "name": "to",
                    "type": "address",
                    "indexed": true,
                    "internalType": "address"
                },
                {
                    "name": "value",
                    "type": "uint256",
                    "indexed": false,
                    "internalType": "uint256"
                }
            ],
            "anonymous": false
        },
        {
            "type": "error",
            "name": "ERC20InsufficientAllowance",
            "inputs": [
                {
                    "name": "spender",
                    "type": "address",
                    "internalType": "address"
                },
                {
                    "name": "allowance",
                    "type": "uint256",
                    "internalType": "uint256"
                },
                {
                    "name": "needed",
                    "type": "uint256",
                    "internalType": "uint256"
                }
            ]
        },
        {
            "type": "error",
            "name": "ERC20InsufficientBalance",
            "inputs": [
                {
                    "name": "sender",
                    "type": "address",
                    "internalType": "address"
                },
                {
                    "name": "balance",
                    "type": "uint256",
                    "internalType": "uint256"
                },
                {
                    "name": "needed",
                    "type": "uint256",
                    "internalType": "uint256"
                }
            ]
        },
        {
            "type": "error",
            "name": "ERC20InvalidApprover",
            "inputs": [
                {
                    "name": "approver",
                    "type": "address",
                    "internalType": "address"
                }
            ]
        },
        {
            "type": "error",
            "name": "ERC20InvalidReceiver",
            "inputs": [
                {
                    "name": "receiver",
                    "type": "address",
                    "internalType": "address"
                }
            ]
        },
        {
            "type": "error",
            "name": "ERC20InvalidSender",
            "inputs": [
                {
                    "name": "sender",
                    "type": "address",
                    "internalType": "address"
                }
            ]
        },
        {
            "type": "error",
            "name": "ERC20InvalidSpender",
            "inputs": [
                {
                    "name": "spender",
                    "type": "address",
                    "internalType": "address"
                }
            ]
        }
    ],
    "bytecode": {
        "object": "0x6080346102d2576040906001600160401b0390808301828111828210176101e9578352600a8152602091692a3930b1b5aa37b5b2b760b11b838301528351848101818110838211176101e957855260068152652a2a37b5b2b760d11b8482015282518281116101e9576003918254916001958684811c941680156102c8575b888510146102b4578190601f94858111610266575b508890858311600114610208575f926101fd575b50505f1982861b1c191690861b1783555b80519384116101e95760049586548681811c911680156101df575b828210146101cc57838111610189575b508092851160011461012457509383949184925f95610119575b50501b925f19911b1c19161790555b5161074290816102d78239f35b015193505f806100fd565b92919084601f198116885f52855f20955f905b8983831061016f5750505010610156575b50505050811b01905561010c565b01519060f8845f19921b161c191690555f808080610148565b858701518955909701969485019488935090810190610137565b875f52815f208480880160051c8201928489106101c3575b0160051c019087905b8281106101b85750506100e3565b5f81550187906101aa565b925081926101a1565b602288634e487b7160e01b5f525260245ffd5b90607f16906100d3565b634e487b7160e01b5f52604160045260245ffd5b015190505f806100a7565b90889350601f19831691875f528a5f20925f5b8c8282106102505750508411610239575b505050811b0183556100b8565b01515f1983881b60f8161c191690555f808061022c565b8385015186558c9790950194938401930161021b565b909150855f52885f208580850160051c8201928b86106102ab575b918a91869594930160051c01915b82811061029d575050610093565b5f81558594508a910161028f565b92508192610281565b634e487b7160e01b5f52602260045260245ffd5b93607f169361007e565b5f80fdfe6080604090808252600480361015610015575f80fd5b5f3560e01c91826306fdde031461050457508163095ea7b31461045c57816318160ddd1461043e57816323b872dd1461034c578163313ce567146103315781636a6278421461025f57816370a082311461022957816395d89b411461010a57508063a9059cbb146100da5763dd62ed3e1461008e575f80fd5b346100d657806003193601126100d6576020906100a9610606565b6100b161061c565b9060018060a01b038091165f5260018452825f2091165f528252805f20549051908152f35b5f80fd5b50346100d657806003193601126100d6576020906101036100f9610606565b6024359033610632565b5160018152f35b82346100d6575f3660031901126100d6578051905f835460018160011c906001831692831561021f575b602093848410811461020c578388529081156101f0575060011461019c575b505050829003601f01601f191682019267ffffffffffffffff84118385101761018957508291826101859252826105dc565b0390f35b604190634e487b7160e01b5f525260245ffd5b5f878152929350837f8a35acfbc15ff81a39ae7d344fd709f28e8600b4aa8c65c6b64bfe7fe36bd19b5b8385106101dc5750505050830101848080610153565b8054888601830152930192849082016101c6565b60ff1916878501525050151560051b8401019050848080610153565b602289634e487b7160e01b5f525260245ffd5b91607f1691610134565b82346100d65760203660031901126100d6576020906001600160a01b0361024e610606565b165f525f8252805f20549051908152f35b82346100d657602091826003193601126100d6576001600160a01b03610283610606565b1690815f525f8452825f2054156102a6575b505f525f8252805f20549051908152f35b811561031b57600254670de0b6b3a76400009182820180921161030857507fddf252ad1be2c89b69c2b068fc378daa952ba7f163c4a11628f55a4df523b3ef8584935f936002558484528382528684208181540190558651908152a383610295565b601190634e487b7160e01b5f525260245ffd5b6024905f84519163ec442f0560e01b8352820152fd5b82346100d6575f3660031901126100d6576020905160128152f35b9050346100d65760603660031901126100d657610367610606565b61036f61061c565b906044359260018060a01b038216805f526001602052855f20335f52602052855f2054915f1983106103aa575b602087610103888888610632565b8583106104125781156103fc5733156103e657505f9081526001602090815286822033835281529086902091859003909155829061010361039c565b6024905f885191634a1406b160e11b8352820152fd5b6024905f88519163e602df0560e01b8352820152fd5b8651637dc7a0d960e11b8152339181019182526020820193909352604081018690528291506060010390fd5b82346100d6575f3660031901126100d6576020906002549051908152f35b82346100d657806003193601126100d657610475610606565b6024359033156104ee576001600160a01b03169081156104d85760209350335f5260018452825f20825f52845280835f205582519081527f8c5be1e5ebec7d5bd14f71427d1e84f3dd0314c0f7b2291e5b200ac8c7c3b925843392a35160018152f35b8251634a1406b160e11b81525f81860152602490fd5b825163e602df0560e01b81525f81860152602490fd5b83346100d6575f3660031901126100d6575f60035460018160011c90600183169283156105d2575b602093848410811461020c578388529081156101f0575060011461057c57505050829003601f01601f191682019267ffffffffffffffff84118385101761018957508291826101859252826105dc565b60035f908152929350837fc2575a0e9e593c00f959f8c92f12db2869c3395a3b0502d05e2516446f71f85b5b8385106105be5750505050830101848080610153565b8054888601830152930192849082016105a8565b91607f169161052c565b602060409281835280519182918282860152018484015e5f828201840152601f01601f1916010190565b600435906001600160a01b03821682036100d657565b602435906001600160a01b03821682036100d657565b916001600160a01b038084169283156106f457169283156106dc57825f525f60205260405f2054908282106106aa5750817fddf252ad1be2c89b69c2b068fc378daa952ba7f163c4a11628f55a4df523b3ef92602092855f525f84520360405f2055845f5260405f20818154019055604051908152a3565b60405163391434e360e21b81526001600160a01b03919091166004820152602481019190915260448101829052606490fd5b60405163ec442f0560e01b81525f6004820152602490fd5b604051634b637e8f60e11b81525f6004820152602490fdfea26469706673582212207b277d5955d49251af2e29f53c3f791cb96753f771a1ebfc5a2d8483ae6ac96a64736f6c63430008190033",
        "linkReferences": {}
    },
    "methodIdentifiers": {
        "allowance(address,address)": "dd62ed3e",
        "approve(address,uint256)": "095ea7b3",
        "balanceOf(address)": "70a08231",
        "decimals()": "313ce567",
        "mint(address)": "6a627842",
        "name()": "06fdde03",
        "symbol()": "95d89b41",
        "totalSupply()": "18160ddd",
        "transfer(address,uint256)": "a9059cbb",
        "transferFrom(address,address,uint256)": "23b872dd"
    },
    "id": 75
}