{"abi":[{"type":"function","name":"canCall","inputs":[{"name":"","type":"address","internalType":"address"},{"name":"","type":"bool","internalType":"bool"},{"name":"","type":"bytes","internalType":"bytes"}],"outputs":[{"name":"","type":"bool","internalType":"bool"},{"name":"","type":"address[]","internalType":"address[]"},{"name":"","type":"address[]","internalType":"address[]"}],"stateMutability":"pure"}],"bytecode":{"object":"0x6080806040523460155761017a908161001a8239f35b5f80fdfe60806040526004361015610011575f80fd5b5f3560e01c633414d09914610024575f80fd5b346100c95760603660031901126100c9576004356001600160a01b038116036100c957602435801515036100c95760443567ffffffffffffffff8082116100c957366023830112156100c95781600401359081116100c957369101602401116100c9576100b7610092610109565b6100c561009d610109565b6040519384935f85526060602086015260608501906100cd565b9083820360408501526100cd565b0390f35b5f80fd5b9081518082526020808093019301915f5b8281106100ec575050505090565b83516001600160a01b0316855293810193928101926001016100de565b6040516020810181811067ffffffffffffffff821117610130576040525f8152905f368137565b634e487b7160e01b5f52604160045260245ffdfea2646970667358221220c4fe8db57f7db851580c229b66ff266f863a47d0f2d1ae9ad1a5d757addd740564736f6c63430008190033","linkReferences":{}},"methodIdentifiers":{"canCall(address,bool,bytes)":"3414d099"},"id":34}