{"abi":[{"type":"constructor","inputs":[],"stateMutability":"nonpayable"},{"type":"function","name":"admin","inputs":[],"outputs":[{"name":"","type":"address","internalType":"address"}],"stateMutability":"view"},{"type":"function","name":"getPrice","inputs":[{"name":"token","type":"address","internalType":"address"},{"name":"account","type":"address","internalType":"address"}],"outputs":[{"name":"","type":"uint256","internalType":"uint256"}],"stateMutability":"nonpayable"},{"type":"function","name":"oracle","inputs":[{"name":"","type":"address","internalType":"address"}],"outputs":[{"name":"","type":"address","internalType":"contract IOracle"}],"stateMutability":"view"},{"type":"function","name":"setOracle","inputs":[{"name":"token","type":"address","internalType":"address"},{"name":"_oracle","type":"address","internalType":"contract IOracle"}],"outputs":[],"stateMutability":"nonpayable"},{"type":"function","name":"transferOwnership","inputs":[{"name":"newAdmin","type":"address","internalType":"address"}],"outputs":[],"stateMutability":"nonpayable"},{"type":"event","name":"OwnershipTransferred","inputs":[{"name":"previousAdmin","type":"address","indexed":true,"internalType":"address"},{"name":"newAdmin","type":"address","indexed":true,"internalType":"address"}],"anonymous":false},{"type":"event","name":"UpdateOracle","inputs":[{"name":"token","type":"address","indexed":true,"internalType":"address"},{"name":"feed","type":"address","indexed":true,"internalType":"address"}],"anonymous":false},{"type":"error","name":"AdminOnly","inputs":[]},{"type":"error","name":"PriceUnavailable","inputs":[]},{"type":"error","name":"ZeroAddress","inputs":[]}],"bytecode":{"object":"0x60808060405234603d573315602e575f80546001600160a01b0319163317905560405161033090816100428239f35b63d92e233d60e01b8152600490fd5b5f80fdfe6080604090808252600480361015610015575f80fd5b5f3560e01c9182635c38eb3a1461025057508163ac41865a14610147578163eb37d3491461010e578163f2fde38b14610081575063f851a44014610057575f80fd5b3461007d575f36600319011261007d575f5490516001600160a01b039091168152602090f35b5f80fd5b90503461007d57602036600319011261007d5761009c6102e4565b5f54916001600160a01b03808416923384036100fe57169384156100f157505082907f8be0079c531659141344cd1fd0a4f28419497f9722a3daafe3b4186f6b6457e05f80a36001600160a01b031916175f55005b5163d92e233d60e01b8152fd5b8551633057182d60e21b81528390fd5b823461007d57602036600319011261007d576020906001600160a01b03806101346102e4565b165f5260018352815f2054169051908152f35b90503461007d578160031936011261007d576101616102e4565b6001600160a01b039290602435848116919082900361007d57841690815f526020946001865280845f20541615610240579060448692845f5260018452855f205416935f86519586948593635620c32d60e11b85528a85015260248401525af1928315610236575f936101d7575b505051908152f35b9091925083903d851161022e575b601f8201601f191683019067ffffffffffffffff82118483101761021b57508491839185528101031261007d5751905f806101cf565b604190634e487b7160e01b5f525260245ffd5b3d91506101e5565b82513d5f823e3d90fd5b5050505163cb08be8160e01b8152fd5b83903461007d578160031936011261007d5761026a6102e4565b6001600160a01b036024358181169591939086900361007d57835f541633036102d85750501690815f5260016020525f20826bffffffffffffffffffffffff60a01b8254161790557fb1d1442dba579887e297ac433e5716c847abf2dc052ee9de4869b7b1b8f6206d5f80a3005b633057182d60e21b8152fd5b600435906001600160a01b038216820361007d5756fea2646970667358221220200b3ab6a10e80ad4fd27b41592782473b313e1bd7e67e9ab26fe48bc53becc064736f6c63430008190033","linkReferences":{}},"methodIdentifiers":{"admin()":"f851a440","getPrice(address,address)":"ac41865a","oracle(address)":"eb37d349","setOracle(address,address)":"5c38eb3a","transferOwnership(address)":"f2fde38b"},"id":66}