{"abi":[{"type":"constructor","inputs":[{"name":"_logic","type":"address","internalType":"address"}],"stateMutability":"nonpayable"},{"type":"fallback","stateMutability":"payable"},{"type":"receive","stateMutability":"payable"},{"type":"function","name":"changeAdmin","inputs":[{"name":"newAdmin","type":"address","internalType":"address"}],"outputs":[],"stateMutability":"nonpayable"},{"type":"function","name":"changeImplementation","inputs":[{"name":"implementation","type":"address","internalType":"address"}],"outputs":[],"stateMutability":"nonpayable"},{"type":"function","name":"getAdmin","inputs":[],"outputs":[{"name":"","type":"address","internalType":"address"}],"stateMutability":"view"},{"type":"function","name":"getImplementation","inputs":[],"outputs":[{"name":"","type":"address","internalType":"address"}],"stateMutability":"view"},{"type":"function","name":"upgradeToAndCall","inputs":[{"name":"implementation","type":"address","internalType":"address"},{"name":"data","type":"bytes","internalType":"bytes"}],"outputs":[],"stateMutability":"nonpayable"},{"type":"event","name":"AdminChanged","inputs":[{"name":"previousAdmin","type":"address","indexed":false,"internalType":"address"},{"name":"newAdmin","type":"address","indexed":false,"internalType":"address"}],"anonymous":false},{"type":"event","name":"Upgraded","inputs":[{"name":"newImplementation","type":"address","indexed":true,"internalType":"address"}],"anonymous":false},{"type":"error","name":"AddressNotContract","inputs":[]},{"type":"error","name":"AdminOnly","inputs":[]},{"type":"error","name":"ZeroAddress","inputs":[]}],"bytecode":{"object":"0x60803461013157601f61058538819003918201601f191683019291906001600160401b0384118385101761013557816020928492604096875283398101031261013157516001600160a01b039081811690818103610131578115610120577f360894a13ba1a3210667c828492db98dca3e2076cc3735a920a3ca505d382bbc558251907fbc7cd75a20ee27fd9adebab32041f755214dbc6bffa90cc0225b39da2e5c2d3b5f80a2331561011157507f7e644d79422f17c01e4894b5f4f588d331ebfa28653d42ae832dc59e38c9798f827fb53127684a568b3173ae13b9f8a6016e243e63b6e8ee1178d6a717850b5d610392835490825191168152336020820152a13390555161043b908161014a8239f35b63d92e233d60e01b8152600490fd5b835163d92e233d60e01b8152600490fd5b5f80fd5b634e487b7160e01b5f52604160045260245ffdfe60806040526004361015610018575b366102fd576102fd565b5f3560e01c806317a68dd8146100675780634f1ef286146100625780636e9960c31461005d5780638f283970146100585763aaf10f420361000e576102b6565b61021a565b6101e6565b6100d4565b346100ba5760203660031901126100ba576100806100be565b5f805160206103e6833981519152546001600160a01b031633036100a9576100a79061033e565b005b633057182d60e21b60805260046080fd5b5f80fd5b600435906001600160a01b03821682036100ba57565b346100ba576040806003193601126100ba576100ee6100be565b67ffffffffffffffff906024358281116100ba57366023820112156100ba5780600401358381116100ba5736602482840101116100ba575f805160206103e6833981519152546001600160a01b031633036101d55761014c8361033e565b8061015357005b823b156101c4579160245f93928385948851938493018337810184815203915af4903d156101b9573d8181116101b457835191601f8201601f19908116603f01168301908111838210176101b4576100a7945281525f60203d92013e6103ab565b610397565b506100a791506103ab565b8451630a48311160e41b8152600490fd5b8451633057182d60e21b8152600490fd5b346100ba575f3660031901126100ba575f805160206103e6833981519152546040516001600160a01b039091168152602090f35b346100ba5760203660031901126100ba576102336100be565b5f805160206103e683398151915280546001600160a01b0390811690338290036102a45783168015610292577f7e644d79422f17c01e4894b5f4f588d331ebfa28653d42ae832dc59e38c9798f9160409182519182526020820152a155005b60405163d92e233d60e01b8152600490fd5b604051633057182d60e21b8152600490fd5b346100ba575f3660031901126100ba577f360894a13ba1a3210667c828492db98dca3e2076cc3735a920a3ca505d382bbc546040516001600160a01b039091168152602090f35b7f360894a13ba1a3210667c828492db98dca3e2076cc3735a920a3ca505d382bbc545f8060405192368285378336915af4903d91825f833e1561033c57f35bfd5b6001600160a01b038116908115610292577f360894a13ba1a3210667c828492db98dca3e2076cc3735a920a3ca505d382bbc557fbc7cd75a20ee27fd9adebab32041f755214dbc6bffa90cc0225b39da2e5c2d3b5f80a2565b634e487b7160e01b5f52604160045260245ffd5b156103b257565b60405162461bcd60e51b815260206004820152600b60248201526a10d0531317d1905253115160aa1b6044820152606490fdfeb53127684a568b3173ae13b9f8a6016e243e63b6e8ee1178d6a717850b5d6103a2646970667358221220ff415ef6f53a207eb09166bf8715e1e357d33db13c1f4e64cde81d4c4788373564736f6c63430008190033","linkReferences":{}},"methodIdentifiers":{"changeAdmin(address)":"8f283970","changeImplementation(address)":"17a68dd8","getAdmin()":"6e9960c3","getImplementation()":"aaf10f42","upgradeToAndCall(address,bytes)":"4f1ef286"},"id":74}