{
    "abi": [
        {
            "type": "constructor",
            "inputs": [
                {
                    "name": "_ethUsdPriceFeed",
                    "type": "address",
                    "internalType": "contract AggregatorV3Interface"
                }
            ],
            "stateMutability": "nonpayable"
        },
        {
            "type": "function",
            "name": "admin",
            "inputs": [],
            "outputs": [
                {
                    "name": "",
                    "type": "address",
                    "internalType": "address"
                }
            ],
            "stateMutability": "view"
        },
        {
            "type": "function",
            "name": "feed",
            "inputs": [
                {
                    "name": "",
                    "type": "address",
                    "internalType": "address"
                }
            ],
            "outputs": [
                {
                    "name": "",
                    "type": "address",
                    "internalType": "contract AggregatorV3Interface"
                }
            ],
            "stateMutability": "view"
        },
        {
            "type": "function",
            "name": "getPrice",
            "inputs": [
                {
                    "name": "token",
                    "type": "address",
                    "internalType": "address"
                },
                {
                    "name": "account",
                    "type": "address",
                    "internalType": "address"
                }
            ],
            "outputs": [
                {
                    "name": "",
                    "type": "uint256",
                    "internalType": "uint256"
                }
            ],
            "stateMutability": "view"
        },
        {
            "type": "function",
            "name": "heartBeatOf",
            "inputs": [
                {
                    "name": "",
                    "type": "address",
                    "internalType": "address"
                }
            ],
            "outputs": [
                {
                    "name": "",
                    "type": "uint256",
                    "internalType": "uint256"
                }
            ],
            "stateMutability": "view"
        },
        {
            "type": "function",
            "name": "setFeed",
            "inputs": [
                {
                    "name": "token",
                    "type": "address",
                    "internalType": "address"
                },
                {
                    "name": "_feed",
                    "type": "address",
                    "internalType": "contract AggregatorV3Interface"
                },
                {
                    "name": "heartBeat",
                    "type": "uint256",
                    "internalType": "uint256"
                }
            ],
            "outputs": [],
            "stateMutability": "nonpayable"
        },
        {
            "type": "function",
            "name": "transferOwnership",
            "inputs": [
                {
                    "name": "newAdmin",
                    "type": "address",
                    "internalType": "address"
                }
            ],
            "outputs": [],
            "stateMutability": "nonpayable"
        },
        {
            "type": "event",
            "name": "OwnershipTransferred",
            "inputs": [
                {
                    "name": "previousAdmin",
                    "type": "address",
                    "indexed": true,
                    "internalType": "address"
                },
                {
                    "name": "newAdmin",
                    "type": "address",
                    "indexed": true,
                    "internalType": "address"
                }
            ],
            "anonymous": false
        },
        {
            "type": "event",
            "name": "UpdateFeed",
            "inputs": [
                {
                    "name": "token",
                    "type": "address",
                    "indexed": true,
                    "internalType": "address"
                },
                {
                    "name": "feed",
                    "type": "address",
                    "indexed": true,
                    "internalType": "address"
                }
            ],
            "anonymous": false
        },
        {
            "type": "error",
            "name": "AdminOnly",
            "inputs": []
        },
        {
            "type": "error",
            "name": "IncorrectDecimals",
            "inputs": []
        },
        {
            "type": "error",
            "name": "NegativePrice",
            "inputs": [
                {
                    "name": "token",
                    "type": "address",
                    "internalType": "address"
                },
                {
                    "name": "feed",
                    "type": "address",
                    "internalType": "address"
                }
            ]
        },
        {
            "type": "error",
            "name": "StalePrice",
            "inputs": [
                {
                    "name": "token",
                    "type": "address",
                    "internalType": "address"
                },
                {
                    "name": "feed",
                    "type": "address",
                    "internalType": "address"
                }
            ]
        },
        {
            "type": "error",
            "name": "ZeroAddress",
            "inputs": []
        }
    ],
    "bytecode": {
        "object": "0x60a034608e57601f6106c238819003918201601f19168301916001600160401b03831184841017609257808492602094604052833981010312608e57516001600160a01b0381168103608e573315607c575f80546001600160a01b0319163317905560805260405161061b90816100a78239608051816101ff0152f35b60405163d92e233d60e01b8152600490fd5b5f80fd5b634e487b7160e01b5f52604160045260245ffdfe6080604090808252600480361015610015575f80fd5b5f3560e01c91826384c8a3db14610420575081638879a182146103e9578163ac41865a14610152578163c6a5877a14610119578163f2fde38b1461008c575063f851a44014610062575f80fd5b34610088575f366003190112610088575f5490516001600160a01b039091168152602090f35b5f80fd5b905034610088576020366003190112610088576100a761052c565b5f54916001600160a01b038084169233840361010957169384156100fc57505082907f8be0079c531659141344cd1fd0a4f28419497f9722a3daafe3b4186f6b6457e05f80a36001600160a01b031916175f55005b5163d92e233d60e01b8152fd5b8551633057182d60e21b81528390fd5b8234610088576020366003190112610088576020906001600160a01b038061013f61052c565b165f5260018352815f2054169051908152f35b823461008857806003193601126100885761016b61052c565b906001600160a01b0390602435828116036100885781831691825f52600160205280825f205416908251948594633fabe5a360e21b93848752868960a09889935afa80156103df575f975f916103b7575b506101c790426105c4565b815f526002602052855f20541115610377575f871315610334575050670de0b6b3a764000094858102958187041490151715610321577f00000000000000000000000000000000000000000000000000000000000000001690825190815283818781855afa908115610317575f945f926102d9575b505061024c6201518091426105c4565b10156102ac575f83131561027f5750811561026c57602093505191048152f35b601284634e487b7160e01b5f525260245ffd5b8151630f84b2d360e31b81525f8187019081526001600160a01b0390921660208301529081906040010390fd5b81516376b51f2b60e01b81525f8187019081526001600160a01b0390921660208301529081906040010390fd5b61024c9550620151809250908161030492903d10610310575b6102fc8183610542565b81019061058f565b5096925050949161023c565b503d6102f2565b83513d5f823e3d90fd5b601186634e487b7160e01b5f525260245ffd5b5f9081526001602090815290859020548551630f84b2d360e31b81526001600160a01b039384168a82019081529185169093169181019190915281900360400190fd5b50600160209081525f8590205485516376b51f2b60e01b81526001600160a01b039384168a82019081529185169093169181019190915281900360400190fd5b6101c798506103d39150873d8911610310576102fc8183610542565b509992505097906101bc565b85513d5f823e3d90fd5b8234610088576020366003190112610088576020906001600160a01b0361040e61052c565b165f5260028252805f20549051908152f35b9083346100885760603660031901126100885761043b61052c565b6024356001600160a01b038181169590929186900361008857825f5416330361051e5750825163313ce56760e01b815260209490858183818a5afa80156103df575f906104f0575b60089150036104e25750906002911692835f5260018152825f20856bffffffffffffffffffffffff60a01b82541617905552604435905f20557f54b35d1859a801615e58c9f7b68f2ba5b83700942717965c02e846661a074c115f80a3005b835163436093a560e01b8152fd5b508581813d8311610517575b6105068183610542565b810103126100885760089051610483565b503d6104fc565b633057182d60e21b81528490fd5b600435906001600160a01b038216820361008857565b90601f8019910116810190811067ffffffffffffffff82111761056457604052565b634e487b7160e01b5f52604160045260245ffd5b519069ffffffffffffffffffff8216820361008857565b908160a0910312610088576105a381610578565b916020820151916040810151916105c1608060608401519301610578565b90565b919082039182116105d157565b634e487b7160e01b5f52601160045260245ffdfea26469706673582212207f29c0bcb6ef0f8b2233254b37d662672052ad3dd5697147c370a33446410d5364736f6c63430008190033",
        "linkReferences": {}
    },
    "methodIdentifiers": {
        "admin()": "f851a440",
        "feed(address)": "c6a5877a",
        "getPrice(address,address)": "ac41865a",
        "heartBeatOf(address)": "8879a182",
        "setFeed(address,address,uint256)": "84c8a3db",
        "transferOwnership(address)": "f2fde38b"
    },
    "id": 64
}