{
  "abi": [
    {
      "type": "function",
      "name": "VTokenFor",
      "inputs": [
        {
          "name": "",
          "type": "address",
          "internalType": "address"
        }
      ],
      "outputs": [
        {
          "name": "",
          "type": "address",
          "internalType": "address"
        }
      ],
      "stateMutability": "view"
    },
    {
      "type": "function",
      "name": "accounts",
      "inputs": [
        {
          "name": "",
          "type": "uint256",
          "internalType": "uint256"
        }
      ],
      "outputs": [
        {
          "name": "",
          "type": "address",
          "internalType": "address"
        }
      ],
      "stateMutability": "view"
    },
    {
      "type": "function",
      "name": "accountsOwnedBy",
      "inputs": [
        {
          "name": "user",
          "type": "address",
          "internalType": "address"
        }
      ],
      "outputs": [
        {
          "name": "userAccounts",
          "type": "address[]",
          "internalType": "address[]"
        }
      ],
      "stateMutability": "view"
    },
    {
      "type": "function",
      "name": "addAccount",
      "inputs": [
        {
          "name": "account",
          "type": "address",
          "internalType": "address"
        },
        {
          "name": "owner",
          "type": "address",
          "internalType": "address"
        }
      ],
      "outputs": [],
      "stateMutability": "nonpayable"
    },
    {
      "type": "function",
      "name": "addressFor",
      "inputs": [
        {
          "name": "",
          "type": "string",
          "internalType": "string"
        }
      ],
      "outputs": [
        {
          "name": "",
          "type": "address",
          "internalType": "address"
        }
      ],
      "stateMutability": "view"
    },
    {
      "type": "function",
      "name": "admin",
      "inputs": [],
      "outputs": [
        {
          "name": "",
          "type": "address",
          "internalType": "address"
        }
      ],
      "stateMutability": "view"
    },
    {
      "type": "function",
      "name": "closeAccount",
      "inputs": [
        {
          "name": "account",
          "type": "address",
          "internalType": "address"
        }
      ],
      "outputs": [],
      "stateMutability": "nonpayable"
    },
    {
      "type": "function",
      "name": "getAddress",
      "inputs": [
        {
          "name": "id",
          "type": "string",
          "internalType": "string"
        }
      ],
      "outputs": [
        {
          "name": "value",
          "type": "address",
          "internalType": "address"
        }
      ],
      "stateMutability": "view"
    },
    {
      "type": "function",
      "name": "getAllAccounts",
      "inputs": [],
      "outputs": [
        {
          "name": "",
          "type": "address[]",
          "internalType": "address[]"
        }
      ],
      "stateMutability": "view"
    },
    {
      "type": "function",
      "name": "getAllKeys",
      "inputs": [],
      "outputs": [
        {
          "name": "",
          "type": "string[]",
          "internalType": "string[]"
        }
      ],
      "stateMutability": "view"
    },
    {
      "type": "function",
      "name": "getAllVTokens",
      "inputs": [],
      "outputs": [
        {
          "name": "",
          "type": "address[]",
          "internalType": "address[]"
        }
      ],
      "stateMutability": "view"
    },
    {
      "type": "function",
      "name": "init",
      "inputs": [],
      "outputs": [],
      "stateMutability": "nonpayable"
    },
    {
      "type": "function",
      "name": "keys",
      "inputs": [
        {
          "name": "",
          "type": "uint256",
          "internalType": "uint256"
        }
      ],
      "outputs": [
        {
          "name": "",
          "type": "string",
          "internalType": "string"
        }
      ],
      "stateMutability": "view"
    },
    {
      "type": "function",
      "name": "ownerFor",
      "inputs": [
        {
          "name": "",
          "type": "address",
          "internalType": "address"
        }
      ],
      "outputs": [
        {
          "name": "",
          "type": "address",
          "internalType": "address"
        }
      ],
      "stateMutability": "view"
    },
    {
      "type": "function",
      "name": "setAddress",
      "inputs": [
        {
          "name": "id",
          "type": "string",
          "internalType": "string"
        },
        {
          "name": "_address",
          "type": "address",
          "internalType": "address"
        }
      ],
      "outputs": [],
      "stateMutability": "nonpayable"
    },
    {
      "type": "function",
      "name": "setVToken",
      "inputs": [
        {
          "name": "underlying",
          "type": "address",
          "internalType": "address"
        },
        {
          "name": "vToken",
          "type": "address",
          "internalType": "address"
        }
      ],
      "outputs": [],
      "stateMutability": "nonpayable"
    },
    {
      "type": "function",
      "name": "transferOwnership",
      "inputs": [
        {
          "name": "newAdmin",
          "type": "address",
          "internalType": "address"
        }
      ],
      "outputs": [],
      "stateMutability": "nonpayable"
    },
    {
      "type": "function",
      "name": "updateAccount",
      "inputs": [
        {
          "name": "account",
          "type": "address",
          "internalType": "address"
        },
        {
          "name": "owner",
          "type": "address",
          "internalType": "address"
        }
      ],
      "outputs": [],
      "stateMutability": "nonpayable"
    },
    {
      "type": "function",
      "name": "vTokens",
      "inputs": [
        {
          "name": "",
          "type": "uint256",
          "internalType": "uint256"
        }
      ],
      "outputs": [
        {
          "name": "",
          "type": "address",
          "internalType": "address"
        }
      ],
      "stateMutability": "view"
    },
    {
      "type": "event",
      "name": "AccountCreated",
      "inputs": [
        {
          "name": "account",
          "type": "address",
          "indexed": true,
          "internalType": "address"
        },
        {
          "name": "owner",
          "type": "address",
          "indexed": true,
          "internalType": "address"
        }
      ],
      "anonymous": false
    },
    {
      "type": "event",
      "name": "OwnershipTransferred",
      "inputs": [
        {
          "name": "previousAdmin",
          "type": "address",
          "indexed": true,
          "internalType": "address"
        },
        {
          "name": "newAdmin",
          "type": "address",
          "indexed": true,
          "internalType": "address"
        }
      ],
      "anonymous": false
    },
    {
      "type": "error",
      "name": "AccountManagerOnly",
      "inputs": []
    },
    {
      "type": "error",
      "name": "AdminOnly",
      "inputs": []
    },
    {
      "type": "error",
      "name": "ContractAlreadyInitialized",
      "inputs": []
    },
    {
      "type": "error",
      "name": "ZeroAddress",
      "inputs": []
    }
  ],
  "bytecode": {
    "object": "0x608080604052346015576114cd908161001a8239f35b5f80fdfe60806040526004361015610011575f80fd5b5f3560e01c806308e93d0a146101445780630cb6aaf11461013f578063141ffce61461013a57806333c8a9d71461013557806347bacf871461013057806349b51b171461012b57806382d6ea091461012657806393cb090e146101215780639b2ea4bd1461011c578063a94ea6ed14610117578063bc87eed314610112578063bf40fac11461010d578063c994a39014610108578063dd336b9414610103578063e1c7392a146100fe578063f2a40db8146100f9578063f2fde38b146100f4578063f851a440146100ef5763fff06706146100ea575f80fd5b610d65565b610d3e565b610cd3565b610c92565b610c47565b610bd8565b610b41565b610ab3565b6109c5565b61098c565b6108e6565b610877565b6107f0565b61072a565b6106bc565b6105bd565b610489565b6103ff565b61018d565b60209060206040818301928281528551809452019301915f5b828110610170575050505090565b83516001600160a01b031685529381019392810192600101610162565b3461020b575f36600319011261020b57604051806002549182815260208091019260025f525f80516020611458833981519152915f905b8282106101eb576101e7856101db81890382610312565b60405191829182610149565b0390f35b83546001600160a01b0316865294850194600193840193909101906101c4565b5f80fd5b602090600319011261020b5760043590565b634e487b7160e01b5f52603260045260245ffd5b6002548110156102575760025f525f8051602061145883398151915201905f90565b610221565b6003548110156102575760035f525f8051602061147883398151915201905f90565b6001548110156102575760015f527fb10e2d527612073b26eecdfd717e6a320cf44b4afac2b0732d9fcbe2b7fa0cf601905f90565b634e487b7160e01b5f525f60045260245ffd5b90600182811c921680156102f4575b60208310146102e057565b634e487b7160e01b5f52602260045260245ffd5b91607f16916102d5565b634e487b7160e01b5f52604160045260245ffd5b90601f8019910116810190811067ffffffffffffffff82111761033457604052565b6102fe565b9060405191825f825461034b816102c6565b908184526020946001916001811690815f146103b9575060011461037b575b50505061037992500383610312565b565b5f90815285812095935091905b8183106103a157505061037993508201015f808061036a565b85548884018501529485019487945091830191610388565b9250505061037994925060ff191682840152151560051b8201015f808061036a565b805180835260209291819084018484015e5f828201840152601f01601f1916010190565b3461020b5761040d3661020f565b60015481101561020b576104496101e79160015f527fb10e2d527612073b26eecdfd717e6a320cf44b4afac2b0732d9fcbe2b7fa0cf601610339565b6040519182916020835260208301906103db565b600435906001600160a01b038216820361020b57565b602435906001600160a01b038216820361020b57565b3461020b57604036600319011261020b576104a261045d565b6104aa610473565b5f546001600160a01b0390811633036105ab578083165f9081526005602052604090205481166001600160a01b03166105405781161561052e5761050d61052c926104f483610d9e565b6001600160a01b03165f90815260056020526040902090565b80546001600160a01b0319166001600160a01b03909216919091179055565b005b60405163d92e233d60e01b8152600490fd5b61052c9261050d918316610585576001600160a01b0381165f9081526005602052604090206105809061057b905b546001600160a01b031690565b6110fc565b6104f4565b610580836105a661056e8460018060a01b03165f52600560205260405f2090565b610ff9565b604051633057182d60e21b8152600490fd5b3461020b57602036600319011261020b576105d661045d565b600254906105e382610e44565b906105f16040519283610312565b828252601f1961060084610e44565b013660208401375f906001600160a01b0390811690825b85811061062f57838552604051806101e78782610149565b828261067161056e61065861064386610235565b905460039190911b1c6001600160a01b031690565b6001600160a01b03165f90815260046020526040902090565b1614610680575b600101610617565b926106b46001916106af61069661064388610235565b6106a0838a610e5c565b6001600160a01b039091169052565b610e84565b939050610678565b3461020b575f36600319011261020b57604051806003549182815260208091019260035f525f80516020611478833981519152915f905b82821061070a576101e7856101db81890382610312565b83546001600160a01b0316865294850194600193840193909101906106f3565b3461020b57604036600319011261020b5761074361045d565b602f61074d610473565b6040516e20a1a1a7aaa72a2fa6a0a720a3a2a960891b81526006600f82015291909120546001600160a01b039190821633036107de578282165f81815260046020526040902080546001600160a01b0319166001600160a01b038416179055926107b690610df1565b16907fac631f3001b55ea1509cf3d7e74898f85392a61a76e8149181ae1259622dabc85f80a3005b60405163fae067e560e01b8152600490fd5b3461020b57604036600319011261020b5761080961045d565b610811610473565b6040516e20a1a1a7aaa72a2fa6a0a720a3a2a960891b81526006600f820152602f9020546001600160a01b0390811633036107de5761052c92165f52600460205260405f209060018060a01b03166bffffffffffffffffffffffff60a01b825416179055565b3461020b576108853661020f565b60035481101561020b5760035f525f8051602061147883398151915201546040516001600160a01b039091168152602090f35b9181601f8401121561020b5782359167ffffffffffffffff831161020b576020838186019501011161020b57565b3461020b57604036600319011261020b5760043567ffffffffffffffff811161020b576109179036906004016108b8565b90610920610473565b5f549091906001600160a01b0390811633036105ab57806040518584823760208187810160068152030190205416155f146109735782161561052e57828161096e61052c9561050d94610f09565b610e97565b9261050d9161052c948416610e975761096e828261139a565b3461020b57602036600319011261020b5760206001600160a01b03806109b061045d565b165f526005825260405f205416604051908152f35b3461020b575f36600319011261020b5760018054906109e382610e44565b906109f16040519283610312565b8282526020808301938460015f527fb10e2d527612073b26eecdfd717e6a320cf44b4afac2b0732d9fcbe2b7fa0cf65f915b838310610a8a5750505050604051928184019082855251809152604084019160408260051b86010195925f905b838210610a5d5786880387f35b90919293948380610a79839a603f198b820301865289516103db565b999701959493919091019101610a50565b90858086819a989594610a9f859b999b610339565b815201920192019250969496959395610a23565b3461020b57602036600319011261020b5760043567ffffffffffffffff811161020b57610ae49036906004016108b8565b8060405192833760069082019081528190036020019020546001600160a01b0316801561052e57602090604051908152f35b602060405191805191829101835e60069082019081528190036020019020546001600160a01b031690565b3461020b57602036600319011261020b5767ffffffffffffffff60043581811161020b573660238201121561020b57806004013591821161033457604051610b93601f8401601f191660200182610312565b828152366024848401011161020b575f6020846101e7956024610bbe96018386013783010152610b16565b6040516001600160a01b0390911681529081906020820190565b3461020b57602036600319011261020b57602f610bf361045d565b6040516e20a1a1a7aaa72a2fa6a0a720a3a2a960891b81526006600f82015291909120546001600160a01b039190821633036107de57165f90815260046020526040902080546001600160a01b0319169055005b3461020b575f36600319011261020b575f5460ff8160a01c16610c8057331561052e576001600160a81b0319163317600160a01b175f55005b604051631ee1e30360e21b8152600490fd5b3461020b57610ca03661020f565b60025481101561020b5760025f525f8051602061145883398151915201546040516001600160a01b039091168152602090f35b3461020b57602036600319011261020b57610cec61045d565b5f546001600160a01b03808216923384036105ab571691821561052e5782907f8be0079c531659141344cd1fd0a4f28419497f9722a3daafe3b4186f6b6457e05f80a36001600160a01b031916175f55005b3461020b575f36600319011261020b575f546040516001600160a01b039091168152602090f35b3461020b57602036600319011261020b5760206001600160a01b0380610d8961045d565b165f526004825260405f205416604051908152f35b60035490600160401b8210156103345760018201806003558210156102575760035f525f8051602061147883398151915290910180546001600160a01b0319166001600160a01b03909216919091179055565b60025490600160401b8210156103345760018201806002558210156102575760025f525f8051602061145883398151915290910180546001600160a01b0319166001600160a01b03909216919091179055565b67ffffffffffffffff81116103345760051b60200190565b80518210156102575760209160051b010190565b634e487b7160e01b5f52601160045260245ffd5b5f198114610e925760010190565b610e70565b6020908260405193849283378101600681520301902090565b818110610ebb575050565b5f8155600101610eb0565b9190601f8111610ed557505050565b610379925f5260205f20906020601f840160051c83019310610eff575b601f0160051c0190610eb0565b9091508190610ef2565b6001918254600160401b811015610334578084610f289201855561027e565b939093610ff45767ffffffffffffffff821161033457610f5282610f4c86546102c6565b86610ec6565b5f90601f8311600114610f9057508190610f81935f92610f85575b50508160011b915f199060031b1c19161790565b9055565b013590505f80610f6d565b92601f1983169183610fa5875f5260205f2090565b935f5b87828210610fdb57505010610fc2575b505050811b019055565b01355f19600384901b60f8161c191690555f8080610fb8565b8585013587559095019460209384019387935001610fa8565b6102b3565b90600391600354925f5b848110611012575b5050505050565b8154811015610257575f8290525f80516020611478833981519152810180546001600160a01b0385811691161461104c5750600101611003565b80546001600160a01b0319166001600160a01b03909516949094179093555061107492505050565b5f8080808061100b565b5f19810191908211610e9257565b634e487b7160e01b5f52603160045260245ffd5b60035480156110f7575f1981019080821015610257577fc2575a0e9e593c00f959f8c92f12db2869c3395a3b0502d05e2516446f71f85a9060035f52016bffffffffffffffffffffffff60a01b8154169055600355565b61108c565b600390600354915f5b838110611113575b50505050565b8154811015610257575f8290525f805160206114788339815191528101546001600160a01b039081168482161461114d5750600101611105565b611172919350611165611160829661107e565b61025c565b905490841b1c169261025c565b81949154921b92831b921b191617905561118a6110a0565b5f80808061110d565b5f929181546111a1816102c6565b926001918083169081156111f757506001146111bd5750505050565b9091929394505f5260209060205f20905f915b8583106111e6575050505001905f80808061110d565b8054858401529183019181016111d0565b60ff191684525050508115159091020191505f80808061110d565b9190918281146112f45761122683546102c6565b67ffffffffffffffff8111610334576112498161124384546102c6565b84610ec6565b5f93601f821160011461128357610f8192939482915f926112785750508160011b915f199060031b1c19161790565b015490505f80610f6d565b611295601f198316915f5260205f2090565b946112a3845f5260205f2090565b915f5b8181106112dc575095836001959697106112c457505050811b019055565b01545f1960f88460031b161c191690555f8080610fb8565b878301548455600193840193909201916020016112a6565b509050565b9190610ff45761037991611212565b60015480156110f7575f1981019080821015610257577fb10e2d527612073b26eecdfd717e6a320cf44b4afac2b0732d9fcbe2b7fa0cf59060015f520161134f81546102c6565b908161135d575b5050600155565b81601f5f93116001146113745750555b5f80611356565b908083918252611393601f60208420940160051c840160018501610eb0565b555561136d565b90600191600154906040906040516113c960208281978083830196873781015f83820152038084520182610312565b519020905f5b8381106113df575b505050505050565b6113e88161027e565b50825161140a816113fc8982018095611193565b03601f198101835282610312565b519020831461141a5785016113cf565b93505050611444925061143761143261143e9261107e565b61027e565b509161027e565b906112f9565b61144c611308565b5f80808080806113d756fe405787fa12a823e0f2b7631cc41b3ba8828b3321ca811111fa75cd3aa3bb5acec2575a0e9e593c00f959f8c92f12db2869c3395a3b0502d05e2516446f71f85ba264697066735822122002794cf48a5228508275da6995e9411cebf8a699f3609a65ba7e7b6c4a19dade64736f6c63430008190033",
    "linkReferences": {}
  },
  "methodIdentifiers": {
    "VTokenFor(address)": "a94ea6ed",
    "accounts(uint256)": "f2a40db8",
    "accountsOwnedBy(address)": "33c8a9d7",
    "addAccount(address,address)": "49b51b17",
    "addressFor(string)": "c994a390",
    "admin()": "f851a440",
    "closeAccount(address)": "dd336b94",
    "getAddress(string)": "bf40fac1",
    "getAllAccounts()": "08e93d0a",
    "getAllKeys()": "bc87eed3",
    "getAllVTokens()": "47bacf87",
    "init()": "e1c7392a",
    "keys(uint256)": "0cb6aaf1",
    "ownerFor(address)": "fff06706",
    "setAddress(string,address)": "9b2ea4bd",
    "setVToken(address,address)": "141ffce6",
    "transferOwnership(address)": "f2fde38b",
    "updateAccount(address,address)": "82d6ea09",
    "vTokens(uint256)": "93cb090e"
  },
  "id": 46
}