{"abi":[{"type":"constructor","inputs":[{"name":"_baseRate","type":"uint256","internalType":"uint256"},{"name":"_slope1","type":"uint256","internalType":"uint256"},{"name":"_slope2","type":"uint256","internalType":"uint256"},{"name":"_optimalUsageRatio","type":"uint256","internalType":"uint256"},{"name":"_maxExcessUsageRatio","type":"uint256","internalType":"uint256"},{"name":"_secsPerYear","type":"uint256","internalType":"uint256"}],"stateMutability":"nonpayable"},{"type":"function","name":"MAX_EXCESS_USAGE_RATIO","inputs":[],"outputs":[{"name":"","type":"uint256","internalType":"uint256"}],"stateMutability":"view"},{"type":"function","name":"OPTIMAL_USAGE_RATIO","inputs":[],"outputs":[{"name":"","type":"uint256","internalType":"uint256"}],"stateMutability":"view"},{"type":"function","name":"baseRate","inputs":[],"outputs":[{"name":"","type":"uint256","internalType":"uint256"}],"stateMutability":"view"},{"type":"function","name":"getBorrowRatePerSecond","inputs":[{"name":"liquidity","type":"uint256","internalType":"uint256"},{"name":"totalDebt","type":"uint256","internalType":"uint256"}],"outputs":[{"name":"","type":"uint256","internalType":"uint256"}],"stateMutability":"view"},{"type":"function","name":"slope1","inputs":[],"outputs":[{"name":"","type":"uint256","internalType":"uint256"}],"stateMutability":"view"},{"type":"function","name":"slope2","inputs":[],"outputs":[{"name":"","type":"uint256","internalType":"uint256"}],"stateMutability":"view"}],"bytecode":{"object":"0x610140346100e457601f6104f538819003918201601f19168301916001600160401b038311848410176100e85780849260c0946040528339810103126100e45780516020820151604083015160608401519160a060808601519501519360805260a05260c05260e052610100918252610120908152604051906103f892836100fd84396080518381816101890152818161022f015261035b015260a05183818160ee0152818161020e015261031f015260c05183818160760152610255015260e05183818161015101526101e201525182818160b40152610280015251816102f50152f35b5f80fd5b634e487b7160e01b5f52604160045260245ffdfe60806040908082526004361015610014575f80fd5b5f3560e01c9081631f68f20a146101745750806354c365c61461013a5780635592f32814610111578063a62b75a8146100d7578063a9c622f81461009d5763d0134cb714610060575f80fd5b34610099575f36600319011261009957602090517f00000000000000000000000000000000000000000000000000000000000000008152f35b5f80fd5b5034610099575f36600319011261009957602090517f00000000000000000000000000000000000000000000000000000000000000008152f35b5034610099575f36600319011261009957602090517f00000000000000000000000000000000000000000000000000000000000000008152f35b50346100995780600319360112610099576020906101336024356004356101cd565b9051908152f35b5034610099575f36600319011261009957602090517f00000000000000000000000000000000000000000000000000000000000000008152f35b34610099575f366003190112610099576020907f00000000000000000000000000000000000000000000000000000000000000008152f35b919082018092116101b957565b634e487b7160e01b5f52601160045260245ffd5b816101d7916101ac565b8061037f5750505f5b7f00000000000000000000000000000000000000000000000000000000000000008082111561031d576102537f00000000000000000000000000000000000000000000000000000000000000007f00000000000000000000000000000000000000000000000000000000000000006101ac565b7f00000000000000000000000000000000000000000000000000000000000000009183039283116101b9577f0000000000000000000000000000000000000000000000000000000000000000670de0b6b3a7640000937812725dd1d243aba0e75fe645cc4873f9e65afe688c928e1f2181118502158202156100995784020492835f190483118402158102156100995761031a936102f3930204906101ac565b7f00000000000000000000000000000000000000000000000000000000000000009061038d565b90565b7f000000000000000000000000000000000000000000000000000000000000000090825f190482118302158102156100995761031a926102f39202047f00000000000000000000000000000000000000000000000000000000000000006101ac565b6103889161038d565b6101e0565b670de0b6b3a7640000907812725dd1d243aba0e75fe645cc4873f9e65afe688c928e1f2181118202158302156100995702049056fea26469706673582212208410156764e7b576deeb8135808a7e2c82eba96c3a1eb3f7e18c296e7e82142264736f6c63430008190033","linkReferences":{}},"methodIdentifiers":{"MAX_EXCESS_USAGE_RATIO()":"a9c622f8","OPTIMAL_USAGE_RATIO()":"54c365c6","baseRate()":"1f68f20a","getBorrowRatePerSecond(uint256,uint256)":"5592f328","slope1()":"a62b75a8","slope2()":"d0134cb7"},"id":45}