{"abi":[{"type":"function","name":"getPrice","inputs":[{"name":"","type":"address","internalType":"address"},{"name":"","type":"address","internalType":"address"}],"outputs":[{"name":"","type":"uint256","internalType":"uint256"}],"stateMutability":"pure"}],"bytecode":{"object":"0x608080604052346013576098908160188239f35b5f80fdfe60808060405260043610156011575f80fd5b5f3560e01c63ac41865a146023575f80fd5b34605e576040366003190112605e576001600160a01b0360043581811603605e5760243590811603605e5780670de0b6b3a764000060209252f35b5f80fdfea26469706673582212204c0a01e512e644e6dab30591c5691540ec2bfbf5e0591ecb86a888e8f8eba8db64736f6c63430008190033","linkReferences":{}},"methodIdentifiers":{"getPrice(address,address)":"ac41865a"},"id":70}