{"abi":[{"type":"constructor","inputs":[{"name":"_ethUsdPriceFeed","type":"address","internalType":"contract AggregatorV3Interface"},{"name":"_sequencer","type":"address","internalType":"contract AggregatorV3Interface"}],"stateMutability":"nonpayable"},{"type":"function","name":"admin","inputs":[],"outputs":[{"name":"","type":"address","internalType":"address"}],"stateMutability":"view"},{"type":"function","name":"feed","inputs":[{"name":"","type":"address","internalType":"address"}],"outputs":[{"name":"","type":"address","internalType":"contract AggregatorV3Interface"}],"stateMutability":"view"},{"type":"function","name":"getPrice","inputs":[{"name":"token","type":"address","internalType":"address"},{"name":"account","type":"address","internalType":"address"}],"outputs":[{"name":"","type":"uint256","internalType":"uint256"}],"stateMutability":"view"},{"type":"function","name":"heartBeatOf","inputs":[{"name":"","type":"address","internalType":"address"}],"outputs":[{"name":"","type":"uint256","internalType":"uint256"}],"stateMutability":"view"},{"type":"function","name":"setFeed","inputs":[{"name":"token","type":"address","internalType":"address"},{"name":"_feed","type":"address","internalType":"contract AggregatorV3Interface"},{"name":"heartBeat","type":"uint256","internalType":"uint256"}],"outputs":[],"stateMutability":"nonpayable"},{"type":"function","name":"transferOwnership","inputs":[{"name":"newAdmin","type":"address","internalType":"address"}],"outputs":[],"stateMutability":"nonpayable"},{"type":"event","name":"OwnershipTransferred","inputs":[{"name":"previousAdmin","type":"address","indexed":true,"internalType":"address"},{"name":"newAdmin","type":"address","indexed":true,"internalType":"address"}],"anonymous":false},{"type":"event","name":"UpdateFeed","inputs":[{"name":"token","type":"address","indexed":true,"internalType":"address"},{"name":"feed","type":"address","indexed":true,"internalType":"address"}],"anonymous":false},{"type":"error","name":"AdminOnly","inputs":[]},{"type":"error","name":"IncorrectDecimals","inputs":[]},{"type":"error","name":"NegativePrice","inputs":[{"name":"token","type":"address","internalType":"address"},{"name":"feed","type":"address","internalType":"address"}]},{"type":"error","name":"ZeroAddress","inputs":[]}],"bytecode":{"object":"0x60c03461009d57601f61052438819003918201601f19168301916001600160401b038311848410176100a157808492604094855283398101031261009d57610052602061004b836100b5565b92016100b5565b90331561008b575f80546001600160a01b0319163317905560805260a05260405161045a90816100ca823960805181505060a051815050f35b60405163d92e233d60e01b8152600490fd5b5f80fd5b634e487b7160e01b5f52604160045260245ffd5b51906001600160a01b038216820361009d5756fe6080604090808252600480361015610015575f80fd5b5f3560e01c91826384c8a3db146102ab575081638879a18214610274578163ac41865a14610152578163c6a5877a14610119578163f2fde38b1461008c575063f851a44014610062575f80fd5b34610088575f366003190112610088575f5490516001600160a01b039091168152602090f35b5f80fd5b905034610088576020366003190112610088576100a76103c1565b5f54916001600160a01b038084169233840361010957169384156100fc57505082907f8be0079c531659141344cd1fd0a4f28419497f9722a3daafe3b4186f6b6457e05f80a36001600160a01b031916175f55005b5163d92e233d60e01b8152fd5b8551633057182d60e21b81528390fd5b8234610088576020366003190112610088576020906001600160a01b038061013f6103c1565b165f5260018352815f2054169051908152f35b823461008857806003193601126100885761016b6103c1565b906001600160a01b0360243581811603610088578084931690815f52600160205260a081845f205416845195868092633fabe5a360e21b82525afa93841561026a575f9461021b575b505f84126101f25750506402540be400918281029281840414901517156101df576020925051908152f35b601183634e487b7160e01b5f525260245ffd5b6044949350815f526001602052825f205416915192630f84b2d360e31b84528301526024820152fd5b90935060a0813d60a011610262575b8161023760a093836103d7565b81010312610088576102488161040d565b5061025a60806020830151920161040d565b5092856101b4565b3d915061022a565b83513d5f823e3d90fd5b8234610088576020366003190112610088576020906001600160a01b036102996103c1565b165f5260028252805f20549051908152f35b908334610088576060366003190112610088576102c66103c1565b6024356001600160a01b038181169590929186900361008857825f541633036103b35750825163313ce56760e01b815260209490858183818a5afa80156103a9575f9061037b575b600891500361036d5750906002911692835f5260018152825f20856bffffffffffffffffffffffff60a01b82541617905552604435905f20557f54b35d1859a801615e58c9f7b68f2ba5b83700942717965c02e846661a074c115f80a3005b835163436093a560e01b8152fd5b508581813d83116103a2575b61039181836103d7565b81010312610088576008905161030e565b503d610387565b85513d5f823e3d90fd5b633057182d60e21b81528490fd5b600435906001600160a01b038216820361008857565b90601f8019910116810190811067ffffffffffffffff8211176103f957604052565b634e487b7160e01b5f52604160045260245ffd5b519069ffffffffffffffffffff821682036100885756fea264697066735822122065c98e525ebe03051cba69f7a472cb66bc9a56df55385fbc4e5123f236c3c59064736f6c63430008190033","linkReferences":{}},"methodIdentifiers":{"admin()":"f851a440","feed(address)":"c6a5877a","getPrice(address,address)":"ac41865a","heartBeatOf(address)":"8879a182","setFeed(address,address,uint256)":"84c8a3db","transferOwnership(address)":"f2fde38b"},"id":63}