{
  "abi": [
    {
      "type": "function",
      "name": "accountFactory",
      "inputs": [],
      "outputs": [
        {
          "name": "",
          "type": "address",
          "internalType": "contract IAccountFactory"
        }
      ],
      "stateMutability": "view"
    },
    {
      "type": "function",
      "name": "admin",
      "inputs": [],
      "outputs": [
        {
          "name": "",
          "type": "address",
          "internalType": "address"
        }
      ],
      "stateMutability": "view"
    },
    {
      "type": "function",
      "name": "approve",
      "inputs": [
        {
          "name": "account",
          "type": "address",
          "internalType": "address"
        },
        {
          "name": "token",
          "type": "address",
          "internalType": "address"
        },
        {
          "name": "spender",
          "type": "address",
          "internalType": "address"
        },
        {
          "name": "amt",
          "type": "uint256",
          "internalType": "uint256"
        }
      ],
      "outputs": [],
      "stateMutability": "nonpayable"
    },
    {
      "type": "function",
      "name": "assetCap",
      "inputs": [],
      "outputs": [
        {
          "name": "",
          "type": "uint256",
          "internalType": "uint256"
        }
      ],
      "stateMutability": "view"
    },
    {
      "type": "function",
      "name": "borrow",
      "inputs": [
        {
          "name": "account",
          "type": "address",
          "internalType": "address"
        },
        {
          "name": "token",
          "type": "address",
          "internalType": "address"
        },
        {
          "name": "amt",
          "type": "uint256",
          "internalType": "uint256"
        }
      ],
      "outputs": [],
      "stateMutability": "nonpayable"
    },
    {
      "type": "function",
      "name": "closeAccount",
      "inputs": [
        {
          "name": "_account",
          "type": "address",
          "internalType": "address"
        }
      ],
      "outputs": [],
      "stateMutability": "nonpayable"
    },
    {
      "type": "function",
      "name": "controller",
      "inputs": [],
      "outputs": [
        {
          "name": "",
          "type": "address",
          "internalType": "contract IControllerFacade"
        }
      ],
      "stateMutability": "view"
    },
    {
      "type": "function",
      "name": "deposit",
      "inputs": [
        {
          "name": "account",
          "type": "address",
          "internalType": "address"
        },
        {
          "name": "token",
          "type": "address",
          "internalType": "address"
        },
        {
          "name": "amt",
          "type": "uint256",
          "internalType": "uint256"
        }
      ],
      "outputs": [],
      "stateMutability": "nonpayable"
    },
    {
      "type": "function",
      "name": "depositEth",
      "inputs": [
        {
          "name": "account",
          "type": "address",
          "internalType": "address"
        }
      ],
      "outputs": [],
      "stateMutability": "payable"
    },
    {
      "type": "function",
      "name": "exec",
      "inputs": [
        {
          "name": "account",
          "type": "address",
          "internalType": "address"
        },
        {
          "name": "target",
          "type": "address[]",
          "internalType": "address[]"
        },
        {
          "name": "amt",
          "type": "uint256",
          "internalType": "uint256"
        },
        {
          "name": "data",
          "type": "bytes[]",
          "internalType": "bytes[]"
        }
      ],
      "outputs": [],
      "stateMutability": "nonpayable"
    },
    {
      "type": "function",
      "name": "getInactiveAccountsOf",
      "inputs": [
        {
          "name": "user",
          "type": "address",
          "internalType": "address"
        }
      ],
      "outputs": [
        {
          "name": "",
          "type": "address[]",
          "internalType": "address[]"
        }
      ],
      "stateMutability": "view"
    },
    {
      "type": "function",
      "name": "inactiveAccountsOf",
      "inputs": [
        {
          "name": "",
          "type": "address",
          "internalType": "address"
        },
        {
          "name": "",
          "type": "uint256",
          "internalType": "uint256"
        }
      ],
      "outputs": [
        {
          "name": "",
          "type": "address",
          "internalType": "address"
        }
      ],
      "stateMutability": "view"
    },
    {
      "type": "function",
      "name": "init",
      "inputs": [
        {
          "name": "_registry",
          "type": "address",
          "internalType": "contract IRegistry"
        }
      ],
      "outputs": [],
      "stateMutability": "nonpayable"
    },
    {
      "type": "function",
      "name": "initDep",
      "inputs": [],
      "outputs": [],
      "stateMutability": "nonpayable"
    },
    {
      "type": "function",
      "name": "isCollateralAllowed",
      "inputs": [
        {
          "name": "",
          "type": "address",
          "internalType": "address"
        }
      ],
      "outputs": [
        {
          "name": "",
          "type": "bool",
          "internalType": "bool"
        }
      ],
      "stateMutability": "view"
    },
    {
      "type": "function",
      "name": "isValidSignature",
      "inputs": [
        {
          "name": "signer",
          "type": "address",
          "internalType": "address"
        },
        {
          "name": "hash",
          "type": "bytes32",
          "internalType": "bytes32"
        },
        {
          "name": "signature",
          "type": "bytes",
          "internalType": "bytes"
        }
      ],
      "outputs": [
        {
          "name": "",
          "type": "bytes32",
          "internalType": "bytes32"
        }
      ],
      "stateMutability": "view"
    },
    {
      "type": "function",
      "name": "liquidate",
      "inputs": [
        {
          "name": "account",
          "type": "address",
          "internalType": "address"
        }
      ],
      "outputs": [],
      "stateMutability": "nonpayable"
    },
    {
      "type": "function",
      "name": "openAccount",
      "inputs": [
        {
          "name": "owner",
          "type": "address",
          "internalType": "address"
        }
      ],
      "outputs": [
        {
          "name": "",
          "type": "address",
          "internalType": "address"
        }
      ],
      "stateMutability": "nonpayable"
    },
    {
      "type": "function",
      "name": "paused",
      "inputs": [],
      "outputs": [
        {
          "name": "",
          "type": "bool",
          "internalType": "bool"
        }
      ],
      "stateMutability": "view"
    },
    {
      "type": "function",
      "name": "registry",
      "inputs": [],
      "outputs": [
        {
          "name": "",
          "type": "address",
          "internalType": "contract IRegistry"
        }
      ],
      "stateMutability": "view"
    },
    {
      "type": "function",
      "name": "repay",
      "inputs": [
        {
          "name": "account",
          "type": "address",
          "internalType": "address"
        },
        {
          "name": "token",
          "type": "address",
          "internalType": "address"
        },
        {
          "name": "amt",
          "type": "uint256",
          "internalType": "uint256"
        }
      ],
      "outputs": [],
      "stateMutability": "nonpayable"
    },
    {
      "type": "function",
      "name": "riskEngine",
      "inputs": [],
      "outputs": [
        {
          "name": "",
          "type": "address",
          "internalType": "contract IRiskEngine"
        }
      ],
      "stateMutability": "view"
    },
    {
      "type": "function",
      "name": "setAssetCap",
      "inputs": [
        {
          "name": "cap",
          "type": "uint256",
          "internalType": "uint256"
        }
      ],
      "outputs": [],
      "stateMutability": "nonpayable"
    },
    {
      "type": "function",
      "name": "settle",
      "inputs": [
        {
          "name": "account",
          "type": "address",
          "internalType": "address"
        }
      ],
      "outputs": [],
      "stateMutability": "nonpayable"
    },
    {
      "type": "function",
      "name": "toggleCollateralStatus",
      "inputs": [
        {
          "name": "token",
          "type": "address",
          "internalType": "address"
        }
      ],
      "outputs": [],
      "stateMutability": "nonpayable"
    },
    {
      "type": "function",
      "name": "togglePause",
      "inputs": [],
      "outputs": [],
      "stateMutability": "nonpayable"
    },
    {
      "type": "function",
      "name": "transferOwnership",
      "inputs": [
        {
          "name": "newAdmin",
          "type": "address",
          "internalType": "address"
        }
      ],
      "outputs": [],
      "stateMutability": "nonpayable"
    },
    {
      "type": "function",
      "name": "withdraw",
      "inputs": [
        {
          "name": "account",
          "type": "address",
          "internalType": "address"
        },
        {
          "name": "token",
          "type": "address",
          "internalType": "address"
        },
        {
          "name": "amt",
          "type": "uint256",
          "internalType": "uint256"
        }
      ],
      "outputs": [],
      "stateMutability": "nonpayable"
    },
    {
      "type": "function",
      "name": "withdrawEth",
      "inputs": [
        {
          "name": "account",
          "type": "address",
          "internalType": "address"
        },
        {
          "name": "amt",
          "type": "uint256",
          "internalType": "uint256"
        }
      ],
      "outputs": [],
      "stateMutability": "nonpayable"
    },
    {
      "type": "event",
      "name": "AccountAssigned",
      "inputs": [
        {
          "name": "account",
          "type": "address",
          "indexed": true,
          "internalType": "address"
        },
        {
          "name": "owner",
          "type": "address",
          "indexed": true,
          "internalType": "address"
        }
      ],
      "anonymous": false
    },
    {
      "type": "event",
      "name": "AccountClosed",
      "inputs": [
        {
          "name": "account",
          "type": "address",
          "indexed": true,
          "internalType": "address"
        },
        {
          "name": "owner",
          "type": "address",
          "indexed": true,
          "internalType": "address"
        }
      ],
      "anonymous": false
    },
    {
      "type": "event",
      "name": "AccountLiquidated",
      "inputs": [
        {
          "name": "account",
          "type": "address",
          "indexed": true,
          "internalType": "address"
        },
        {
          "name": "owner",
          "type": "address",
          "indexed": true,
          "internalType": "address"
        }
      ],
      "anonymous": false
    },
    {
      "type": "event",
      "name": "Borrow",
      "inputs": [
        {
          "name": "account",
          "type": "address",
          "indexed": true,
          "internalType": "address"
        },
        {
          "name": "owner",
          "type": "address",
          "indexed": true,
          "internalType": "address"
        },
        {
          "name": "token",
          "type": "address",
          "indexed": true,
          "internalType": "address"
        },
        {
          "name": "amt",
          "type": "uint256",
          "indexed": false,
          "internalType": "uint256"
        }
      ],
      "anonymous": false
    },
    {
      "type": "event",
      "name": "OwnershipTransferred",
      "inputs": [
        {
          "name": "previousAdmin",
          "type": "address",
          "indexed": true,
          "internalType": "address"
        },
        {
          "name": "newAdmin",
          "type": "address",
          "indexed": true,
          "internalType": "address"
        }
      ],
      "anonymous": false
    },
    {
      "type": "event",
      "name": "PauseToggled",
      "inputs": [
        {
          "name": "admin",
          "type": "address",
          "indexed": true,
          "internalType": "address"
        },
        {
          "name": "pause",
          "type": "bool",
          "indexed": false,
          "internalType": "bool"
        }
      ],
      "anonymous": false
    },
    {
      "type": "event",
      "name": "Repay",
      "inputs": [
        {
          "name": "account",
          "type": "address",
          "indexed": true,
          "internalType": "address"
        },
        {
          "name": "owner",
          "type": "address",
          "indexed": true,
          "internalType": "address"
        },
        {
          "name": "token",
          "type": "address",
          "indexed": true,
          "internalType": "address"
        },
        {
          "name": "amt",
          "type": "uint256",
          "indexed": false,
          "internalType": "uint256"
        }
      ],
      "anonymous": false
    },
    {
      "type": "error",
      "name": "AccountDeactivationFailure",
      "inputs": []
    },
    {
      "type": "error",
      "name": "AccountInteractionFailure",
      "inputs": [
        {
          "name": "",
          "type": "address",
          "internalType": "address"
        },
        {
          "name": "",
          "type": "address",
          "internalType": "address"
        },
        {
          "name": "",
          "type": "uint256",
          "internalType": "uint256"
        },
        {
          "name": "",
          "type": "bytes",
          "internalType": "bytes"
        }
      ]
    },
    {
      "type": "error",
      "name": "AccountNotLiquidatable",
      "inputs": []
    },
    {
      "type": "error",
      "name": "AccountOwnerOnly",
      "inputs": []
    },
    {
      "type": "error",
      "name": "AdminOnly",
      "inputs": []
    },
    {
      "type": "error",
      "name": "CollateralTypeRestricted",
      "inputs": []
    },
    {
      "type": "error",
      "name": "ContractAlreadyInitialized",
      "inputs": []
    },
    {
      "type": "error",
      "name": "ContractPaused",
      "inputs": []
    },
    {
      "type": "error",
      "name": "EthTransferFailure",
      "inputs": []
    },
    {
      "type": "error",
      "name": "FunctionCallRestricted",
      "inputs": []
    },
    {
      "type": "error",
      "name": "MaxAssetCap",
      "inputs": []
    },
    {
      "type": "error",
      "name": "OutstandingDebt",
      "inputs": []
    },
    {
      "type": "error",
      "name": "RiskThresholdBreached",
      "inputs": []
    },
    {
      "type": "error",
      "name": "TokenNotContract",
      "inputs": []
    },
    {
      "type": "error",
      "name": "VTokenUnavailable",
      "inputs": []
    },
    {
      "type": "error",
      "name": "ZeroAddress",
      "inputs": []
    }
  ],
  "bytecode": {
    "object": "0x608080604052346015576138fd908161001a8239f35b5f80fdfe60806040526004361015610011575f80fd5b5f803560e01c80630272f3a314612ea657806319ab453c14612e285780631b9a91a414612c485780631da649cf146128bf578063238a4d1e146128355780632f865568146123a3578063376c9cf8146123855780635224372c14611f8b57806359eba45414611d325780635c975abb14611d0c578063687cd9c114611ce35780636a256b29146118455780637b1039991461181c5780638340f549146115b65780638c36c34c1461156957806392b888ae14611540578063ad9d4ba314611331578063b13ec794146112d6578063bf4c30b414611082578063c167997114610fd3578063c4ae316814610f5a578063cb06732014610f1b578063d9caed1214610d62578063dd336b9414610a6f578063e76810e61461028f578063f19a4b1214610240578063f2fde38b146101ad578063f77c4791146101845763f851a44014610159575f80fd5b346101815780600319360112610181576001546040516001600160a01b039091168152602090f35b80fd5b50346101815780600319360112610181576004546040516001600160a01b039091168152602090f35b5034610181576020366003190112610181576101c761316d565b6001546001600160a01b038082169233840361022e571691821561021c5782907f8be0079c531659141344cd1fd0a4f28419497f9722a3daafe3b4186f6b6457e08580a36001600160a01b0319161760015580f35b60405163d92e233d60e01b8152600490fd5b604051633057182d60e21b8152600490fd5b50346101815760203660031901126101815761025a61316d565b6001546001600160a01b0391908216330361022e57168152600860205260408120805460ff80821615169060ff191617905580f35b5034610181576080366003190112610181576102a961316d565b906024356001600160401b038111610a6b576102c9903690600401613230565b92906064356001600160401b038111610a67576102ea903690600401613230565b6102f76001865414613260565b60028086555460405160016207cc7d60e11b031981526001600160a01b038681166004830152909160209183916024918391165afa908115610a5c578691610a22575b50336001600160a01b0390911603610a10578086036109cc57845b86811061036457856001815580f35b61036f818385613444565b6001600160e01b031991358281169291600481106109b7575b50501663b6b1b6c360e01b14610949575b60045461040b9087906001600160a01b03166103be6103b9858c8a613485565b613495565b906103ca858789613444565b604051633414d09960e01b81526001600160a01b039094166004850152604480351515602486015260609085015292948593849283929160648401916134a9565b03915afa9081156105525787889189936108ce575b50156108bd576104346103b9848b89613485565b88610440858789613444565b604051630565bb6760e01b81526001600160a01b0390941660048501526044803560248601526060908501528391829161047f916064840191906134a9565b0381836001600160a01b038d165af19081156108b257899161088f575b501561082b57805190885b8281106106a3575050508051875b81811061055d5750506040516319f92b0b60e21b8152905086816004816001600160a01b038a165afa908115610552578791610530575b5051600954906001820180921161051c571161050a57600101610355565b604051632329e14960e11b8152600490fd5b634e487b7160e01b88526011600452602488fd5b61054c91503d8089833e61054481836131cb565b810190613408565b5f6104ec565b6040513d89823e3d90fd5b6001600160a01b0361056f8285613430565b5160405163a567fb4760e01b8152911660048201526020816024818d6001600160a01b038e165af18015610636578a90610669575b6001915015151480610645575b6105be575b6001016104b5565b6001600160a01b036105d08285613430565b51166001600160a01b0389163b1561064157604051634a5e42b160e01b815260048101919091528981602481836001600160a01b038e165af1801561063657908a9161061e575b50506105b6565b610627906131b8565b61063257885f610617565b8880fd5b6040513d8c823e3d90fd5b8980fd5b50610663886001600160a01b0361065c8487613430565b51166137da565b156105b1565b506020813d60201161069b575b81610683602093836131cb565b81010312610641576106966001916132ad565b6105a4565b3d9150610676565b6001600160a01b036106b58284613430565b51168a60208b60246040518094819363a567fb4760e01b835287600484015260018060a01b03165af19081156107e2578c916107ed575b501580610770575b610702575b506001016104a7565b6001600160a01b038a163b1561076c5760405163298410e560e01b815260048101919091528a81602481836001600160a01b038f165af1801561076157908b9161074d575b506106f9565b610756906131b8565b61064157895f610747565b6040513d8d823e3d90fd5b8a80fd5b506040516370a0823160e01b81526001600160a01b038b166004820152602081602481855afa9081156107e2578c916107ac575b5015156106f4565b90506020813d6020116107da575b816107c7602093836131cb565b810103126107d657515f6107a4565b5f80fd5b3d91506107ba565b6040513d8e823e3d90fd5b90506020813d602011610823575b81610808602093836131cb565b8101031261081f57610819906132ad565b5f6106ec565b8b80fd5b3d91506107fb565b505061084a916108446103b9838a61088b979998613485565b95613444565b60405163ca4ea6f960e01b81526001600160a01b039485166004820152949093166024850152604480359085015260806064850152839260848401916134a9565b0390fd5b6108ab91503d808b833e6108a381836131cb565b8101906134c9565b505f61049c565b6040513d8b823e3d90fd5b604051623bc65d60e91b8152600490fd5b925050503d908188823e6108e282826131cb565b6060818381010312610945576108f7816132ad565b9060208101516001600160401b0381116106415761091a9084830190830161339a565b926040820151906001600160401b03821161076c5761093d92908101910161339a565b91905f610420565b8780fd5b6006546001600160a01b0316803b156109b3576040516335313c2160e11b81526001600160a01b03871660048201529087908290602490829084905af180156105525790879161099b575b5050610399565b6109a4906131b8565b6109af57855f610994565b8580fd5b8680fd5b60040360031b82901b16811691505f80610388565b606460405162461bcd60e51b815260206004820152602060248201527f5461726765747320616e642064617461206c656e677468206d69736d617463686044820152fd5b604051631a51c33160e21b8152600490fd5b90506020813d602011610a54575b81610a3d602093836131cb565b810103126109af57610a4e90613299565b5f61033a565b3d9150610a30565b6040513d88823e3d90fd5b8380fd5b5080fd5b503461018157602080600319360112610a6b57610a8a61316d565b90610a986001845414613260565b60028084555460405160016207cc7d60e11b031981526001600160a01b039384166004820181905293929182908290602490829087165afa908115610ce3578591610d2d575b508233911603610a105760405163407d51e960e11b81528181600481875afa908115610ce3578591610d00575b504314610cee57604051632902e4db60e11b81528181600481875afa908115610ce3578591610caa575b5015610c9857823b15610a67576040516251b42b60e81b81528490818160048183895af18015610c5157610c84575b508260025416803b15610a6b5781809160246040518094819363374cdae560e21b83528a60048401525af18015610c5157610c70575b5050600790338552526040832080549068010000000000000000821015610c5c5790610bcb91600182018155613207565b819291549060031b9184831b921b1916179055803b15610a6b576040516301977ee560e71b81523360048201528290818160248183875af18015610c5157610c3d575b505033907fe669044e83e51fb3883c065740bec312de375c92654b381a093018bcd1a796e48380a36001815580f35b610c46906131b8565b610a6b57815f610c0e565b6040513d84823e3d90fd5b634e487b7160e01b85526041600452602485fd5b610c79906131b8565b610a6757835f610b9a565b610c8d906131b8565b610a6757835f610b64565b604051631d2197fd60e31b8152600490fd5b90508181813d8311610cdc575b610cc181836131cb565b81010312610cd857610cd2906132ad565b5f610b35565b8480fd5b503d610cb7565b6040513d87823e3d90fd5b60405163cfe4f11760e01b8152600490fd5b90508181813d8311610d26575b610d1781836131cb565b810103126107d657515f610b0b565b503d610d0d565b90508181813d8311610d5b575b610d4481836131cb565b81010312610cd857610d5590613299565b5f610ade565b503d610d3a565b503461018157610d7136613183565b90610d7f6001855414613260565b6002845560018060a01b03806002541692604051637ff8338360e11b8152808387169586600483015281602460209485935afa908115610edb578891610ee6575b508333911603610a10576003546040516313bc24d960e31b81526001600160a01b0388811660048301528616602482015260448101849052908290829060649082908c9089165af1918215610edb578892610ea5575b505015610e93578594610e2e610e34928533846136b1565b836137da565b15610e42575b836001815580f35b823b15610e8e5760248492836040519586948593634a5e42b160e01b85521660048401525af18015610c5157610e7a575b8080610e3a565b610e83906131b8565b61018157805f610e73565b505050fd5b60405163017a815760e41b8152600490fd5b90809250813d8311610ed4575b610ebc81836131cb565b810103126109b357610ecd906132ad565b5f80610e16565b503d610eb2565b6040513d8a823e3d90fd5b90508181813d8311610f14575b610efd81836131cb565b8101031261094557610f0e90613299565b5f610dc0565b503d610ef3565b50346101815760203660031901126101815760209060ff906040906001600160a01b03610f4661316d565b168152600884522054166040519015158152f35b5034610181578060031936011261018157600154336001600160a01b0382160361022e5760ff60a01b60ff8260a01c161560a01b169060ff60a01b1916178060015560ff6040519160a01c16151581527f79a5bc58b021076f821571d0fe8b0ae3d9e0a666563bb064fdbf0bf69281331c60203392a280f35b50346101815760209081600319360112610181576001600160a01b03919082610ffa61316d565b168152600782526040812090604051808484549182815201908194845285842090845b81811061106c57505050816110339103826131cb565b6040519380850191818652518092526040850193925b8281106110565785850386f35b8351871685529381019392810192600101611049565b825489168452928701926001928301920161101d565b50346101815780600319360112610181576001546001600160a01b03908116330361022e5760025460405163bf40fac160e01b808252602060048301819052600b60248401526a5249534b5f454e47494e4560a81b60448401529193928316908285606481855afa948515610a5c57869561129f575b50836bffffffffffffffffffffffff60a01b9516856003541617600355604051818152836004820152600a60248201526921a7a72a2927a62622a960b11b60448201528381606481865afa80156105525785918891611267575b501685600454161760045560405190808252836004830152600f60248301526e4143434f554e545f464143544f525960881b60448301528382606481865afa9182156105525784928691899161122e575b50168660055416176005556064604051809481938252846004830152600a6024830152692a3930b1b5aa37b5b2b760b11b60448301525afa918215610ce35785926111f8575b50501690600654161760065580f35b90809250813d8311611227575b61120f81836131cb565b81010312610a675761122090613299565b5f806111e9565b503d611205565b938092508491503d8311611260575b61124781836131cb565b810103126109b3578461125a8593613299565b5f6111a3565b503d61123d565b809250858092503d8311611298575b61128081836131cb565b810103126109b3576112928591613299565b5f611152565b503d611276565b9094508281813d83116112cf575b6112b781836131cb565b810103126109af576112c890613299565b935f6110f8565b503d6112ad565b5034610181576040366003190112610181576112f061316d565b6001600160a01b03908116825260076020526040822080546024359390841015610181575060209261132191613207565b9190546040519260031b1c168152f35b50602080600319360112610a6b5761134761316d565b6113546001845414613260565b6002835560ff60015460a01c1661152e5760025460405160016207cc7d60e11b031981526001600160a01b0383811660048301529184908290602490829086165afa908115610ce35785916114f9575b508133911603610a1057600a80546006602160991b016001600160a01b031982168117909255859390841690911791823b15610a67578360049360405194858092630d0e30db60e41b825234905af180156114ee57859385916114d3575b5050600a5460405163a9059cbb60e01b81526001600160a01b0393909316600484015234602484015291938492604492849291165af19081156114c857839161148f575b501561145457506001815580f35b6064906040519062461bcd60e51b82526004820152601460248201527315d15512081d1c985b9cd9995c8819985a5b195960621b6044820152fd5b90508181813d83116114c1575b6114a681836131cb565b810103126114bd576114b7906132ad565b5f611446565b8280fd5b503d61149c565b6040513d85823e3d90fd5b6114e091929394506131b8565b6114bd57908391835f611402565b6040513d86823e3d90fd5b90508381813d8311611527575b61151081836131cb565b81010312610cd85761152190613299565b5f6113a4565b503d611506565b60405163ab35696f60e01b8152600490fd5b50346101815780600319360112610181576003546040516001600160a01b039091168152602090f35b503461018157602036600319011261018157600154600435906001600160a01b0316330361022e575f1981019081116115a25760095580f35b634e487b7160e01b82526011600452602482fd5b5034610181576115c536613183565b916115d36001855414613260565b6002845560ff60015460a01c1661152e5760018060a01b0380600254169060405194637ff8338360e11b865285828516938460048301528160246020998a935afa908115610edb5788916117e7575b508233911603610a1057818516938488526008875260ff604089205416156117d55787956040519563a567fb4760e01b875280600488015288876024818b8a5af18015610edb578997899161179f575b50156116fa575b509161168a91602494933390613598565b60035416916040519485938492631b240c3160e11b845260048401525af19182156114c85783926116c4575b505015610e93576001815580f35b90809250813d83116116f3575b6116db81836131cb565b81010312610a6b576116ec906132ad565b5f806116b6565b503d6116d1565b6040516319f92b0b60e21b815291975095508881600481885afa9081156108b2578991611785575b50516009541061050a578795843b156109b3576040519563298410e560e01b87526004870152868660248183895af180156105525788968891611766575b50611679565b611775919293959497506131b8565b6109af579186949192865f611760565b61179991503d808b833e61054481836131cb565b5f611722565b88819992503d83116117ce575b6117b681836131cb565b81010312610945576117c889976132ad565b5f611672565b503d6117ac565b604051632125696360e21b8152600490fd5b90508681813d8311611815575b6117fe81836131cb565b810103126109455761180f90613299565b5f611622565b503d6117f4565b50346101815780600319360112610181576002546040516001600160a01b039091168152602090f35b50346101815760203660031901126101815761185f61316d565b9061186d6001825414613260565b60028082555460405160016207cc7d60e11b031981526001600160a01b038481166004830152909160209183916024918391165afa908115610c51578291611ca9575b50336001600160a01b0390911603610a10576040516375749f3f60e11b815281816004816001600160a01b0387165afa908115610c51578291611c8f575b50815b8151811015611c87576001600160a01b0361190c8284613430565b5116602460025460205f916040519384809263a94ea6ed60e01b825287600483015260018060a01b03165afa918215611c2e575f92611c4b575b506001600160a01b03821615611c39576001600160a01b0382163b156107d657604051631d8557d760e01b81525f81600481836001600160a01b0388165af18015611c2e57611c1d575b50604051637d6af07960e01b81526001600160a01b0388811660048301529092906020908490602490829085165afa928315610c51578293611be8575b50611a229060209084906119ec82886001600160a01b0384168e6136b1565b604051635fcc1b5360e11b81526001600160a01b038c166004820152602481019290925290928391908290869082906044820190565b03926001600160a01b03165af1908115610c51578291611bae575b50611b4f575b6040516370a0823160e01b81526001600160a01b0388166004820152602081602481875afa908115610c51578291611b1d575b5015611ac2575b50604051908152600192919033906001600160a01b038816907f4cdde6e09bb755c9a5589ebaec640bbfedff1362d4b255ebf8339782b9942faa90602090a4016118f1565b6001600160a01b0387163b1561018157604051634a5e42b160e01b8152600481018490528181602481836001600160a01b038d165af18015610c5157611b09575b50611a7d565b611b1382916131b8565b6101815780611b03565b90506020813d602011611b47575b81611b38602093836131cb565b810103126107d657515f611a76565b3d9150611b2b565b6001600160a01b0387163b15610181576040516364c1713d60e11b8152600481018490528181602481836001600160a01b038d165af18015610c5157908291611b9a575b5050611a43565b611ba3906131b8565b61018157805f611b93565b90506020813d602011611be0575b81611bc9602093836131cb565b81010312610a6b57611bda906132ad565b5f611a3d565b3d9150611bbc565b9092506020813d602011611c15575b81611c04602093836131cb565b810103126107d657519160206119cd565b3d9150611bf7565b611c2791506131b8565b5f80611990565b6040513d5f823e3d90fd5b6040516312258fc760e11b8152600490fd5b9091506020813d602011611c7f575b81611c67602093836131cb565b810103126107d657611c7890613299565b905f611946565b3d9150611c5a565b826001815580f35b611ca391503d8084833e61054481836131cb565b5f6118ee565b90506020813d602011611cdb575b81611cc4602093836131cb565b81010312610a6b57611cd590613299565b5f6118b0565b3d9150611cb7565b50346101815780600319360112610181576005546040516001600160a01b039091168152602090f35b5034610181578060031936011261018157602060ff60015460a01c166040519015158152f35b503461018157608036600319011261018157611d4c61316d565b6001600160a01b03906024908135838116908190036107d6576044358481168082036107d6578590611d816001895414613260565b60028855816002541694604051978891637ff8338360e11b83521695866004830152818860209a8b935afa9081156108b2578991611f56575b508233911603610a1057868260045416918760405180948193630e1dd1cd60e41b835260048301525afa908115610edb578891611f20575b5016156108bd576040805163095ea7b360e01b878201526001600160a01b039092168583019081526064356020820152611e7094889490929091611e419185910103601f1981018552846131cb565b83604051809681958294630565bb6760e01b84526004840152838a84015260606044840152606483019061353a565b03925af180156114ee5784918591611f04575b5081611ecc575b5015611e9857826001815580f35b90600e6064926040519262461bcd60e51b845260048401528201526d1054141493d59157d1905253115160921b6044820152fd5b80915051838115918215611ee5575b505090505f611e8a565b8380929350010312610a675782611efc91016132ad565b80835f611edb565b9050611f1a91503d8086833e6108a381836131cb565b5f611e83565b90508681813d8311611f4f575b611f3781836131cb565b8101031261094557518181168103610945575f611df2565b503d611f2d565b90508781813d8311611f84575b611f6d81836131cb565b8101031261063257611f7e90613299565b5f611dba565b503d611f63565b503461018157611f9a36613183565b90611fa86001855414613260565b6002845560ff60015460a01c1661152e5760025460405160016207cc7d60e11b031981526001600160a01b0385811660048301819052928116959293602093929091602491858184818c5afa908115610636578a91612350575b508133911603610a1057604051858184818563a94ea6ed60e01b98898352169c8d60048301525afa80156106365782918b91612318575b501615611c3957889360405163a567fb4760e01b815289600482015286818581898c5af1908115610a5c5786916122e3575b501561224b575b85826002541694846040518097819382528d60048301525afa908115610ce35786918991879161220e575b6040516306ab22cf60e41b81526001600160a01b0390911660048201526024810192909252909450849081878582604481015b0393165af180156114ee57859385916121d8575b50612183575b600354169060405180948193631b240c3160e11b83528860048401525af1908115610a5c57869161214e575b5015610e93577f7752d0a9575185e5b5829ca2b99ad3129496a322603ef76773ee2ae262501886906040519384523393a46001815580f35b90508181813d831161217c575b61216581836131cb565b810103126109af57612176906132ad565b5f612116565b503d61215b565b9150843b156114bd5760405163e30cbfa560e01b8152600481018890529183838381838a5af180156114ee57859385916121bf575b50506120ea565b6121cb919294506131b8565b6114bd578391835f6121b8565b84819592503d8311612207575b6121ef81836131cb565b81010312610a675761220185936132ad565b5f6120e4565b503d6121e5565b928092508691503d8311612244575b61222781836131cb565b81010312610cd85787869161223e6120d096613299565b9061209d565b503d61221d565b6040516319f92b0b60e21b815290945089816004818a5afa908115610636578a916122c9575b50516009541061050a578893863b15610cd85760405163298410e560e01b8152600481018a905285818581838c5af1908115610a5c5786916122b5575b5050612072565b6122be906131b8565b610cd857845f6122ae565b6122dd91503d808c833e61054481836131cb565b5f612271565b90508681813d8311612311575b6122fa81836131cb565b810103126109af5761230b906132ad565b5f61206b565b503d6122f0565b809250878092503d8311612349575b61233181836131cb565b81010312610641576123438291613299565b5f612039565b503d612327565b90508581813d831161237e575b61236781836131cb565b810103126106415761237890613299565b5f612002565b503d61235d565b50346101815780600319360112610181576020600954604051908152f35b5034610181576020366003190112610181576123bd61316d565b6123ca6001835414613260565b60028255600354604051631b240c3160e11b81526001600160a01b0383811660048301529091602091839160249183918891165af19081156114c85783916127fb575b506127ea576040516375749f3f60e11b81529082826004816001600160a01b0385165afa9182156114c85783926127ce575b50815191835b8381106125595784836001600160a01b0381163b15610a6b576040516301977ee560e71b815233600482015282908181602481836001600160a01b0388165af18015610c5157612545575b505060025460405160016207cc7d60e11b031981526001600160a01b038381166004830152909160209183916024918391165afa9081156114c857839161250b575b506001600160a01b0390811691167fde3f3279fe7da87a1ff3ffdc0b779506483f91465cfb3b447d86800078431ee38380a36001815580f35b90506020813d60201161253d575b81612526602093836131cb565b810103126114bd5761253790613299565b836124d2565b3d9150612519565b61254e906131b8565b610a6b578183612490565b6024906001600160a01b0361256e8285613430565b5116602060018060a01b03600254166040519485809263a94ea6ed60e01b82528560048301525afa928315610552578793612792575b506001600160a01b0383163b156109b357604051631d8557d760e01b815287908181600481836001600160a01b038a165af18015610c515761277e575b5050604051637d6af07960e01b81526001600160a01b0386811660048301529093906020908590602490829085165afa938415610edb57889461274a575b50612635846001600160a01b0383163385613598565b604051635fcc1b5360e11b81526001600160a01b038781166004830152602482018690529091602091839160449183918d91165af18015610edb57612711575b506001600160a01b0385163b156109b3576040516364c1713d60e11b81526004810182905287908181602481836001600160a01b038c165af18015610c51576126fd575b505060405192835260019233906001600160a01b038716907f4cdde6e09bb755c9a5589ebaec640bbfedff1362d4b255ebf8339782b9942faa90602090a401612445565b612706906131b8565b6109b357865f6126b9565b6020813d602011612742575b8161272a602093836131cb565b810103126109455761273b906132ad565b505f612675565b3d915061271d565b9093506020813d602011612776575b81612766602093836131cb565b810103126107d65751925f61261f565b3d9150612759565b612787906131b8565b6109b357865f6125e1565b9092506020813d6020116127c6575b816127ae602093836131cb565b810103126109b3576127bf90613299565b915f6125a4565b3d91506127a1565b6127e39192503d8085833e61054481836131cb565b905f61243f565b604051627616e960e61b8152600490fd5b90506020813d60201161282d575b81612816602093836131cb565b810103126114bd57612827906132ad565b5f61240d565b3d9150612809565b50346101815760603660031901126101815761284f61316d565b604435906001600160401b0382116114bd57366023830112156114bd57816004013561287a816131ec565b9261288860405194856131cb565b8184523660248383010111610cd857936020826128b795949360248398018387013784010152602435906132ba565b604051908152f35b5034610181576128ce36613183565b6128de6001859493945414613260565b6002845560018060a01b0380600254169360405194637ff8338360e11b8652828516938460048801526020968781602481865afa9081156108b2578991612c13575b508433911603610a105780956024885f946040519283809263a94ea6ed60e01b82528a8a1660048301525afa8015611c2e5786915f91612bdb575b5016908115611c3957813b156107d657604051631d8557d760e01b8152925f8460048183875af1938415611c2e578a94612bc8575b505f1914612b5e575b81816129ac8a886129e3979682966136b1565b604051635fcc1b5360e11b81526001600160a01b039091166004820152602481019290925290928391908290869082906044820190565b03925af1908115610c51578291612b29575b50612adb575b6040516370a0823160e01b81526004810185905286816024818688165afa908115610c51578291612aae575b5015612a64575b50907f4cdde6e09bb755c9a5589ebaec640bbfedff1362d4b255ebf8339782b9942faa9160405194855216933393a46001815580f35b833b1561018157604051634a5e42b160e01b81528284166004820152818160248183895af18015610c5157612a9a575b50612a2e565b612aa482916131b8565b6101815780612a94565b90508681813d8311612ad4575b612ac581836131cb565b810103126107d657515f612a27565b503d612abb565b833b15610181576040516364c1713d60e11b81528284166004820152818160248183895af18015610c5157908291612b15575b50506129fb565b612b1e906131b8565b61018157805f612b0e565b90508681813d8311612b57575b612b4081836131cb565b81010312610a6b57612b51906132ad565b5f6129f5565b503d612b36565b91509550604051637d6af07960e01b815285600482015287816024818a5afa9081156114c8579088918491612b97575b50969091612999565b82819392503d8311612bc1575b612bae81836131cb565b810103126107d6575187906129e3612b8e565b503d612ba4565b612bd39195506131b8565b5f935f612990565b8092508a8092503d8311612c0c575b612bf481836131cb565b810103126107d657612c068691613299565b5f61295b565b503d612bea565b90508781813d8311612c41575b612c2a81836131cb565b8101031261063257612c3b90613299565b5f612920565b503d612c20565b503461018157604036600319011261018157612c6261316d565b60243590612c736001845414613260565b60028084555460405160016207cc7d60e11b031981526001600160a01b03928316600482018190529260209290919083908290602490829086165afa908115610a5c578691612df3575b508133911603610a1057818591600354166064604051809481936313bc24d960e31b83528860048401525f60248401528960448401525af1908115610ce3578591612dbe575b5015610e9357604051908101918183106001600160401b03841117612daa57612d5e93859360405283835283604051809681958294630565bb6760e01b8452336004850152602484015260606044840152606483019061353a565b03925af1908115610c51578291612d8f575b5015612d7d576001815580f35b60405163af2349ad60e01b8152600490fd5b612da391503d8084833e6108a381836131cb565b505f612d70565b634e487b7160e01b5f52604160045260245ffd5b90508181813d8311612dec575b612dd581836131cb565b81010312610cd857612de6906132ad565b5f612d03565b503d612dcb565b90508281813d8311612e21575b612e0a81836131cb565b810103126109af57612e1b90613299565b5f612cbd565b503d612e00565b5034610181576020366003190112610181576004356001600160a01b03811690819003610a6b5760015460ff8160a81c16612e945760018355331561021c57600161ff0160a01b0319163317600160a81b17600155600280546001600160a01b03191691909117905580f35b604051631ee1e30360e21b8152600490fd5b50346107d657602090816003193601126107d657612ec261316d565b90612ed060015f5414613260565b60025f5560ff60015460a01c1661152e576001600160a01b0382811692831561021c578290845f526007865260405f20805480155f146130925750508583600554166024604051809581936313db266360e31b83523060048401525af19182156114ee57849261305b575b5081838116803b156109af5785809160246040518094819363066ad14f60e21b83523060048401525af18015610a5c57908691613047575b5050836002541690813b156109af576040516349b51b1760e01b81526001600160a01b0391821660048201529216602483015284908290604490829084905af180156114ee57908491613033575b50505b1690813b1561018157604051623c57d360e61b8152818160048183875af18015610c515761301f575b5060019060405193837fcfd71536d6c3b37f5bc42183ef1a719dec158fef9256a3cea977aa1fcf5073778380a3558152f35b61302982916131b8565b610181575f612fed565b61303c906131b8565b6114bd57825f612fc1565b613050906131b8565b610cd857845f612f73565b9091508581813d831161308b575b61307381836131cb565b81010312610a675761308490613299565b905f612f3b565b503d613069565b5f199350838101919082116131595784916130ac91613207565b90549060031b1c1691855f526007875260405f2090815480156131455701906130d58282613207565b8682549160031b1b19169055558260025416803b156107d6576040516382d6ea0960e01b81526001600160a01b0384811660048301529290921660248301525f908290604490829084905af18015611c2e57613132575b50612fc4565b61313d9193506131b8565b5f915f61312c565b634e487b7160e01b5f52603160045260245ffd5b634e487b7160e01b5f52601160045260245ffd5b600435906001600160a01b03821682036107d657565b60609060031901126107d6576001600160a01b039060043582811681036107d6579160243590811681036107d6579060443590565b6001600160401b038111612daa57604052565b90601f801991011681019081106001600160401b03821117612daa57604052565b6001600160401b038111612daa57601f01601f191660200190565b805482101561321c575f5260205f2001905f90565b634e487b7160e01b5f52603260045260245ffd5b9181601f840112156107d6578235916001600160401b0383116107d6576020808501948460051b0101116107d657565b1561326757565b60405162461bcd60e51b815260206004820152600a6024820152695245454e5452414e435960b01b6044820152606490fd5b51906001600160a01b03821682036107d657565b519081151582036107d657565b60025460405160016207cc7d60e11b031981526001600160a01b0392831660048201525f9594909390916020908590602490829087165afa938415611c2e575f94613359575b509061330b9161355e565b50600481939293101561334557159283613335575b50505061332957565b630b135d3f60e11b9150565b81929350169116145f8080613320565b634e487b7160e01b5f52602160045260245ffd5b919093506020823d602011613392575b81613376602093836131cb565b810103126107d65761338a61330b92613299565b939091613300565b3d9150613369565b81601f820112156107d6578051916020916001600160401b038411612daa578360051b90604051946133ce858401876131cb565b855283808601928201019283116107d6578301905b8282106133f1575050505090565b8380916133fd84613299565b8152019101906133e3565b906020828203126107d65781516001600160401b0381116107d65761342d920161339a565b90565b805182101561321c5760209160051b010190565b919081101561321c5760051b81013590601e19813603018212156107d65701908135916001600160401b0383116107d65760200182360381136107d6579190565b919081101561321c5760051b0190565b356001600160a01b03811681036107d65790565b908060209392818452848401375f828201840152601f01601f1916010190565b91906040838203126107d6576134de836132ad565b926020810151906001600160401b0382116107d6570181601f820112156107d65780519061350b826131ec565b9261351960405194856131cb565b828452602083830101116107d657815f9260208093018386015e8301015290565b805180835260209291819084018484015e5f828201840152601f01601f1916010190565b815191906041830361358e576135879250602082015190606060408401519301515f1a90613845565b9192909190565b50505f9160029190565b90929192813b1561369f576040516323b872dd60e01b602082019081526001600160a01b0392831660248301529490911660448201526064808201939093529182525f92839283906135eb6084826131cb565b51925af13d15613698573d6135ff816131ec565b9061360d60405192836131cb565b81523d5f602083013e5b81613661575b501561362557565b60405162461bcd60e51b81526020600482015260146024820152731514905394d1915497d19493d357d1905253115160621b6044820152606490fd5b8051801592508215613676575b50505f61361d565b81925090602091810103126107d657602061369191016132ad565b5f8061366e565b6060613617565b604051630fea47fd60e31b8152600490fd5b929092823b1561369f5760405163a9059cbb60e01b60208201526001600160a01b03948516602482015260448082019390935291825261372d935f93849082906136fc6064876131cb565b60405197889687958693630565bb6760e01b855216600484015284602484015260606044840152606483019061353a565b0393165af18015611c2e575f915f916137be575b5081613787575b501561375057565b60405162461bcd60e51b815260206004820152600f60248201526e1514905394d1915497d19052531151608a1b6044820152606490fd5b805180159250821561379c575b50505f613748565b81925090602091810103126107d65760206137b791016132ad565b5f80613794565b90506137d491503d805f833e6108a381836131cb565b5f613741565b6040516370a0823160e01b81526001600160a01b0392831660048201529160209183916024918391165afa908115611c2e575f91613816575090565b90506020813d60201161383d575b81613831602093836131cb565b810103126107d6575190565b3d9150613824565b91907f7fffffffffffffffffffffffffffffff5d576e7357a4501ddfe92f46681b20a084116138bc579160209360809260ff5f9560405194855216868401526040830152606082015282805260015afa15611c2e575f516001600160a01b038116156138b257905f905f90565b505f906001905f90565b5050505f916003919056fea2646970667358221220847af54be63b62de15f35a2348ca4a65dfd6ceb280bf81a6d47d4abb184f2ec864736f6c63430008190033",
    "linkReferences": {}
  },
  "methodIdentifiers": {
    "accountFactory()": "687cd9c1",
    "admin()": "f851a440",
    "approve(address,address,address,uint256)": "59eba454",
    "assetCap()": "376c9cf8",
    "borrow(address,address,uint256)": "5224372c",
    "closeAccount(address)": "dd336b94",
    "controller()": "f77c4791",
    "deposit(address,address,uint256)": "8340f549",
    "depositEth(address)": "ad9d4ba3",
    "exec(address,address[],uint256,bytes[])": "e76810e6",
    "getInactiveAccountsOf(address)": "c1679971",
    "inactiveAccountsOf(address,uint256)": "b13ec794",
    "init(address)": "19ab453c",
    "initDep()": "bf4c30b4",
    "isCollateralAllowed(address)": "cb067320",
    "isValidSignature(address,bytes32,bytes)": "238a4d1e",
    "liquidate(address)": "2f865568",
    "openAccount(address)": "0272f3a3",
    "paused()": "5c975abb",
    "registry()": "7b103999",
    "repay(address,address,uint256)": "1da649cf",
    "riskEngine()": "92b888ae",
    "setAssetCap(uint256)": "8c36c34c",
    "settle(address)": "6a256b29",
    "toggleCollateralStatus(address)": "f19a4b12",
    "togglePause()": "c4ae3168",
    "transferOwnership(address)": "f2fde38b",
    "withdraw(address,address,uint256)": "d9caed12",
    "withdrawEth(address,uint256)": "1b9a91a4"
  },
  "id": 43
}