{
    "abi": [
        {
            "type": "constructor",
            "inputs": [
                {
                    "name": "_registry",
                    "type": "address",
                    "internalType": "contract IRegistry"
                }
            ],
            "stateMutability": "nonpayable"
        },
        {
            "type": "function",
            "name": "accountManager",
            "inputs": [],
            "outputs": [
                {
                    "name": "",
                    "type": "address",
                    "internalType": "contract IAccountManager"
                }
            ],
            "stateMutability": "view"
        },
        {
            "type": "function",
            "name": "admin",
            "inputs": [],
            "outputs": [
                {
                    "name": "",
                    "type": "address",
                    "internalType": "address"
                }
            ],
            "stateMutability": "view"
        },
        {
            "type": "function",
            "name": "balanceToBorrowThreshold",
            "inputs": [],
            "outputs": [
                {
                    "name": "",
                    "type": "uint256",
                    "internalType": "uint256"
                }
            ],
            "stateMutability": "view"
        },
        {
            "type": "function",
            "name": "getBalance",
            "inputs": [
                {
                    "name": "account",
                    "type": "address",
                    "internalType": "address"
                }
            ],
            "outputs": [
                {
                    "name": "",
                    "type": "uint256",
                    "internalType": "uint256"
                }
            ],
            "stateMutability": "nonpayable"
        },
        {
            "type": "function",
            "name": "getBorrows",
            "inputs": [
                {
                    "name": "account",
                    "type": "address",
                    "internalType": "address"
                }
            ],
            "outputs": [
                {
                    "name": "",
                    "type": "uint256",
                    "internalType": "uint256"
                }
            ],
            "stateMutability": "nonpayable"
        },
        {
            "type": "function",
            "name": "initDep",
            "inputs": [],
            "outputs": [],
            "stateMutability": "nonpayable"
        },
        {
            "type": "function",
            "name": "isAccountHealthy",
            "inputs": [
                {
                    "name": "account",
                    "type": "address",
                    "internalType": "address"
                }
            ],
            "outputs": [
                {
                    "name": "",
                    "type": "bool",
                    "internalType": "bool"
                }
            ],
            "stateMutability": "nonpayable"
        },
        {
            "type": "function",
            "name": "isBorrowAllowed",
            "inputs": [
                {
                    "name": "account",
                    "type": "address",
                    "internalType": "address"
                },
                {
                    "name": "token",
                    "type": "address",
                    "internalType": "address"
                },
                {
                    "name": "amt",
                    "type": "uint256",
                    "internalType": "uint256"
                }
            ],
            "outputs": [
                {
                    "name": "",
                    "type": "bool",
                    "internalType": "bool"
                }
            ],
            "stateMutability": "nonpayable"
        },
        {
            "type": "function",
            "name": "isWithdrawAllowed",
            "inputs": [
                {
                    "name": "account",
                    "type": "address",
                    "internalType": "address"
                },
                {
                    "name": "token",
                    "type": "address",
                    "internalType": "address"
                },
                {
                    "name": "amt",
                    "type": "uint256",
                    "internalType": "uint256"
                }
            ],
            "outputs": [
                {
                    "name": "",
                    "type": "bool",
                    "internalType": "bool"
                }
            ],
            "stateMutability": "nonpayable"
        },
        {
            "type": "function",
            "name": "oracle",
            "inputs": [],
            "outputs": [
                {
                    "name": "",
                    "type": "address",
                    "internalType": "contract IOracle"
                }
            ],
            "stateMutability": "view"
        },
        {
            "type": "function",
            "name": "registry",
            "inputs": [],
            "outputs": [
                {
                    "name": "",
                    "type": "address",
                    "internalType": "contract IRegistry"
                }
            ],
            "stateMutability": "view"
        },
        {
            "type": "function",
            "name": "transferOwnership",
            "inputs": [
                {
                    "name": "newAdmin",
                    "type": "address",
                    "internalType": "address"
                }
            ],
            "outputs": [],
            "stateMutability": "nonpayable"
        },
        {
            "type": "event",
            "name": "OwnershipTransferred",
            "inputs": [
                {
                    "name": "previousAdmin",
                    "type": "address",
                    "indexed": true,
                    "internalType": "address"
                },
                {
                    "name": "newAdmin",
                    "type": "address",
                    "indexed": true,
                    "internalType": "address"
                }
            ],
            "anonymous": false
        },
        {
            "type": "error",
            "name": "AdminOnly",
            "inputs": []
        },
        {
            "type": "error",
            "name": "ZeroAddress",
            "inputs": []
        }
    ],
    "bytecode": {
        "object": "0x60a034609c57601f610c3c38819003918201601f19168301916001600160401b0383118484101760a057808492602094604052833981010312609c57516001600160a01b0381168103609c573315608a575f80546001600160a01b03191633179055608052604051610b8790816100b582396080518181816101d10152818161040b01526108530152f35b60405163d92e233d60e01b8152600490fd5b5f80fd5b634e487b7160e01b5f52604160045260245ffdfe604060808152600480361015610013575f80fd5b5f3560e01c908163364818621461045c5781635387081c1461043a5781637b103999146103f75781637dc0d1d0146103cf57816391c2c469146103a75781639de126c81461038c578163a9609fa61461033e578163bf4c30b4146101a9578163cd81b80314610184578163f2fde38b146100f757508063f851a440146100d05763f8b2cb4f146100a1575f80fd5b346100cc5760203660031901126100cc576020906100c56100c061048e565b6106ab565b9051908152f35b5f80fd5b50346100cc575f3660031901126100cc575f5490516001600160a01b039091168152602090f35b9050346100cc5760203660031901126100cc5761011261048e565b5f54916001600160a01b0380841692338403610174571693841561016757505082907f8be0079c531659141344cd1fd0a4f28419497f9722a3daafe3b4186f6b6457e05f80a36001600160a01b031916175f55005b5163d92e233d60e01b8152fd5b8551633057182d60e21b81528390fd5b82346100cc5760203660031901126100cc576020906100c56101a461048e565b6107e1565b82346100cc575f3660031901126100cc575f546001600160a01b0391908216330361032f57817f00000000000000000000000000000000000000000000000000000000000000001681519363bf40fac160e01b808652602092838388015260066024880152654f5241434c4560d01b60448801528387606481845afa968715610325575f976102e3575b509160648493928493886bffffffffffffffffffffffff60a01b9a168a6001541617600155875196879485938452830152600f60248301526e20a1a1a7aaa72a2fa6a0a720a3a2a960891b60448301525afa9283156102da57505f926102a4575b5050169060025416176002555f80f35b90809250813d83116102d3575b6102bb81836104d9565b810103126100cc576102cc906105eb565b8380610294565b503d6102b1565b513d5f823e3d90fd5b929096508383813d831161031e575b6102fc81836104d9565b810103126100cc57606484939261031385946105eb565b989294509250610233565b503d6102f2565b85513d5f823e3d90fd5b51633057182d60e21b81529050fd5b82346100cc5760209061038361036261037d610359366104a4565b82949291610a40565b61037261037782610372866106ab565b6105de565b936107e1565b906109f4565b90519015158152f35b82346100cc576020906103836103a1366104a4565b91610527565b82346100cc575f3660031901126100cc5760025490516001600160a01b039091168152602090f35b82346100cc575f3660031901126100cc5760015490516001600160a01b039091168152602090f35b82346100cc575f3660031901126100cc57517f00000000000000000000000000000000000000000000000000000000000000006001600160a01b03168152602090f35b82346100cc575f3660031901126100cc5760209051670f43fc2c04ee00008152f35b82346100cc5760203660031901126100cc5760209061038361047c61048e565b61037d610488826106ab565b916107e1565b600435906001600160a01b03821682036100cc57565b60609060031901126100cc576001600160a01b039060043582811681036100cc579160243590811681036100cc579060443590565b90601f8019910116810190811067ffffffffffffffff8211176104fb57604052565b634e487b7160e01b5f52604160045260245ffd5b908160209103126100cc575180151581036100cc5790565b604051632902e4db60e11b81529092906020816004816001600160a01b0388165afa9081156105d3575f916105a4575b5061059c57826105709161056a826106ab565b93610a40565b81039081116105885761037d610585926107e1565b90565b634e487b7160e01b5f52601160045260245ffd5b505050600190565b6105c6915060203d6020116105cc575b6105be81836104d9565b81019061050f565b5f610557565b503d6105b4565b6040513d5f823e3d90fd5b9190820180921161058857565b51906001600160a01b03821682036100cc57565b9060209081838203126100cc57825167ffffffffffffffff938482116100cc570181601f820112156100cc5780519384116104fb578360051b9060405194610649858401876104d9565b855283808601928201019283116100cc578301905b82821061066c575050505090565b838091610678846105eb565b81520191019061065e565b80518210156106975760209160051b010190565b634e487b7160e01b5f52603260045260245ffd5b604080516319f92b0b60e21b81529192916001600160a01b03916004918386165f828581845afa9182156105d3575f926107bd575b5091908094939451925f955f955b8587106107085750505050505050610585919231906105de565b909192939495968161071a8987610683565b511690826107288a88610683565b5116875180916370a0823160e01b8252878783015281602460209485935afa9182156107b357908d92915f9261077f575b5050610772929161076c91600195610a40565b906105de565b97019594939291906106ee565b819493508092503d83116107ac575b61079881836104d9565b810103126100cc5790518b90816001610759565b503d61078e565b89513d5f823e3d90fd5b6107da9192503d805f833e6107d281836104d9565b8101906105ff565b905f6106e0565b60408051632902e4db60e11b81526001600160a01b038381169392600492909190602090818186818a5afa9081156109c3575f916109d7575b506109cd5782516375749f3f60e11b8152905f826004818a5afa9182156109c3575f926109a7575b509594939291908051935f975f97847f000000000000000000000000000000000000000000000000000000000000000016925b878a10610889575050505050505050505090565b909192939495969798998661089e8c88610683565b51895163a94ea6ed60e01b815291168382015260249190858184818a5afa90811561095e5789918e88925f92610968575b506108db84918c610683565b5116948c5180948193637d6af07960e01b83528a8a840152165afa90811561095e57908c915f91610929575b50610919929161076c91600195610a40565b9a01989796959493929190610875565b80939250878092503d8311610957575b61094381836104d9565b810103126100cc5790518b90610919610907565b503d610939565b8a513d5f823e3d90fd5b9350505081813d83116109a0575b61098081836104d9565b810103126100cc57858d8a6108db61099882956105eb565b9291506108cf565b503d610976565b6109bc9192503d805f833e6107d281836104d9565b905f610842565b84513d5f823e3d90fd5b5050505050505f90565b6109ee9150823d84116105cc576105be81836104d9565b5f61081a565b9080610a01575050600190565b670de0b6b3a76400007812725dd1d243aba0e75fe645cc4873f9e65afe688c928e1f2183118102158202156100cc57670f43fc2c04ee00009202041190565b600154604051635620c32d60e11b81526001600160a01b0392831660048201819052948316602482015293916020918291869160449183915f91165af19384156105d3575f94610b22575b5081610aba57505060ff60125b16604d811161058857600a0a91815f190481118202158302156100cc57020490565b806004926040519384809263313ce56760e01b82525afa9081156105d3575f91610ae9575b5060ff9150610a98565b905081813d8311610b1b575b610aff81836104d9565b810103126100cc575160ff811681036100cc5760ff905f610adf565b503d610af5565b9080945081813d8311610b4a575b610b3a81836104d9565b810103126100cc5751925f610a8b565b503d610b3056fea2646970667358221220dbd07a0a3caa31a7d0902b2c1c3f9394de363e7aee4eec78b1c8545bdbd301a664736f6c63430008190033",
        "linkReferences": {}
    },
    "methodIdentifiers": {
        "accountManager()": "91c2c469",
        "admin()": "f851a440",
        "balanceToBorrowThreshold()": "5387081c",
        "getBalance(address)": "f8b2cb4f",
        "getBorrows(address)": "cd81b803",
        "initDep()": "bf4c30b4",
        "isAccountHealthy(address)": "36481862",
        "isBorrowAllowed(address,address,uint256)": "a9609fa6",
        "isWithdrawAllowed(address,address,uint256)": "9de126c8",
        "oracle()": "7dc0d1d0",
        "registry()": "7b103999",
        "transferOwnership(address)": "f2fde38b"
    },
    "id": 47
}