{"abi":[{"type":"constructor","inputs":[{"name":"_implementation","type":"address","internalType":"address"}],"stateMutability":"nonpayable"},{"type":"function","name":"admin","inputs":[],"outputs":[{"name":"","type":"address","internalType":"address"}],"stateMutability":"view"},{"type":"function","name":"implementation","inputs":[],"outputs":[{"name":"","type":"address","internalType":"address"}],"stateMutability":"view"},{"type":"function","name":"transferOwnership","inputs":[{"name":"newAdmin","type":"address","internalType":"address"}],"outputs":[],"stateMutability":"nonpayable"},{"type":"function","name":"upgradeTo","inputs":[{"name":"newImplementation","type":"address","internalType":"address"}],"outputs":[],"stateMutability":"nonpayable"},{"type":"event","name":"OwnershipTransferred","inputs":[{"name":"previousAdmin","type":"address","indexed":true,"internalType":"address"},{"name":"newAdmin","type":"address","indexed":true,"internalType":"address"}],"anonymous":false},{"type":"event","name":"Upgraded","inputs":[{"name":"implementation","type":"address","indexed":true,"internalType":"address"}],"anonymous":false},{"type":"error","name":"AdminOnly","inputs":[]},{"type":"error","name":"ZeroAddress","inputs":[]}],"bytecode":{"object":"0x608034608b57601f61027b38819003918201601f19168301916001600160401b03831184841017608f57808492602094604052833981010312608b57516001600160a01b03811690819003608b57331560795760018060a01b031933815f5416175f5560015416176001556040516101d790816100a48239f35b60405163d92e233d60e01b8152600490fd5b5f80fd5b634e487b7160e01b5f52604160045260245ffdfe608080604052600480361015610013575f80fd5b5f3560e01c9182633659cfe61461012b575081635c60da1b14610103578163f2fde38b14610075575063f851a4401461004a575f80fd5b34610071575f366003190112610071575f546040516001600160a01b039091168152602090f35b5f80fd5b34610071576020366003190112610071576001600160a01b0381358181169290839003610071575f54918216903382036100f45783156100e5575082907f8be0079c531659141344cd1fd0a4f28419497f9722a3daafe3b4186f6b6457e05f80a36001600160a01b031916175f55005b60405163d92e233d60e01b8152fd5b604051633057182d60e21b8152fd5b34610071575f366003190112610071576001546040516001600160a01b039091168152602090f35b90346100715760203660031901126100715780356001600160a01b038181169391849003610071575f5416330361019557600180546001600160a01b03191684179055827fbc7cd75a20ee27fd9adebab32041f755214dbc6bffa90cc0225b39da2e5c2d3b5f80a2005b633057182d60e21b8152fdfea2646970667358221220cabd7f4fa15767381fbcafc7f97cf03f19563b4dcb897fa93db30fe7a88efce364736f6c63430008190033","linkReferences":{}},"methodIdentifiers":{"admin()":"f851a440","implementation()":"5c60da1b","transferOwnership(address)":"f2fde38b","upgradeTo(address)":"3659cfe6"},"id":72}