{"abi":[{"type":"constructor","inputs":[{"name":"wEth","type":"address","internalType":"address"}],"stateMutability":"nonpayable"},{"type":"function","name":"canCall","inputs":[{"name":"","type":"address","internalType":"address"},{"name":"","type":"bool","internalType":"bool"},{"name":"data","type":"bytes","internalType":"bytes"}],"outputs":[{"name":"","type":"bool","internalType":"bool"},{"name":"","type":"address[]","internalType":"address[]"},{"name":"","type":"address[]","internalType":"address[]"}],"stateMutability":"view"},{"type":"function","name":"weth","inputs":[{"name":"","type":"uint256","internalType":"uint256"}],"outputs":[{"name":"","type":"address","internalType":"address"}],"stateMutability":"view"}],"bytecode":{"object":"0x60803460d957601f6103f838819003918201601f19168301916001600160401b0383118484101760c55780849260209460405283398101031260d957516001600160a01b0381169081900360d9575f546801000000000000000081101560c55760018101805f5581101560b1575f80527f290decd9548b62a8d60345a988386fc84ba6bc95484008f6362f93160ef3e5630180546001600160a01b031916909117905560405161031a90816100de8239f35b634e487b7160e01b5f52603260045260245ffd5b634e487b7160e01b5f52604160045260245ffd5b5f80fdfe60806040526004361015610011575f80fd5b5f3560e01c80633414d0991461008b5763ec6c20a81461002f575f80fd5b34610087576020366003190112610087576004355f54811015610087575f80527f290decd9548b62a8d60345a988386fc84ba6bc95484008f6362f93160ef3e56301546040516001600160a01b039091168152602090f35b5f80fd5b34610087576060366003190112610087576004356001600160a01b0381160361008757602435801515036100875767ffffffffffffffff60443581811161008757366023820112156100875780600401359182116100875736602483830101116100875761012e9160246100ff9201610224565b61012060409492945194859415158552606060208601526060850190610132565b908382036040850152610132565b0390f35b9081518082526020808093019301915f5b828110610151575050505090565b83516001600160a01b031685529381019392810192600101610143565b6020810190811067ffffffffffffffff82111761018a57604052565b634e487b7160e01b5f52604160045260245ffd5b604051905f548083526020808401915f80527f290decd9548b62a8d60345a988386fc84ba6bc95484008f6362f93160ef3e563915f905b8282106102045750505050829003601f01601f1916820167ffffffffffffffff81118382101761018a57604052565b83546001600160a01b0316855293840193600193840193909101906101d5565b6001600160e01b03199182913582811691600481106102ce575b5050905016630d0e30db60e41b81146102ab57632e1a7d4d60e01b14610288576040519061026b8261016e565b5f82526040519061027b8261016e565b5f82525f3681375f929190565b604051906102958261016e565b5f82525f368137600191906102a861019e565b90565b506040516102b88161016e565b5f81525f3681376001916102ca61019e565b9190565b8391925060040360031b1b161681905f8061023e56fea2646970667358221220f5ac83da03d8838471e488e3ef4da1eafcc04343de8e31465c721f86f92af6e164736f6c63430008190033","linkReferences":{}},"methodIdentifiers":{"canCall(address,bool,bytes)":"3414d099","weth(uint256)":"ec6c20a8"},"id":40}