{
    "abi": [
        {
            "type": "constructor",
            "inputs": [
                {
                    "name": "_beacon",
                    "type": "address",
                    "internalType": "address"
                }
            ],
            "stateMutability": "nonpayable"
        },
        {
            "type": "function",
            "name": "beacon",
            "inputs": [],
            "outputs": [
                {
                    "name": "",
                    "type": "address",
                    "internalType": "address"
                }
            ],
            "stateMutability": "view"
        },
        {
            "type": "function",
            "name": "create",
            "inputs": [
                {
                    "name": "accountManager",
                    "type": "address",
                    "internalType": "address"
                }
            ],
            "outputs": [
                {
                    "name": "account",
                    "type": "address",
                    "internalType": "address"
                }
            ],
            "stateMutability": "nonpayable"
        },
        {
            "type": "event",
            "name": "AccountCreated",
            "inputs": [
                {
                    "name": "account",
                    "type": "address",
                    "indexed": true,
                    "internalType": "address"
                },
                {
                    "name": "accountManager",
                    "type": "address",
                    "indexed": true,
                    "internalType": "address"
                }
            ],
            "anonymous": false
        }
    ],
    "bytecode": {
        "object": "0x608034606f57601f6106e838819003918201601f19168301916001600160401b03831184841017607357808492602094604052833981010312606f57516001600160a01b03811690819003606f575f80546001600160a01b03191691909117905560405161066090816100888239f35b5f80fd5b634e487b7160e01b5f52604160045260245ffdfe6080806040526004361015610012575f80fd5b5f3560e01c90816359659e90146100ec5750639ed9331814610032575f80fd5b346100e85760203660031901126100e8576001600160a01b03600435818116908190036100e857815f54166040519061051c80830183811067ffffffffffffffff8211176100d457604092849261010f843981528460208201520301905ff09182156100c9576020921660405191817fac631f3001b55ea1509cf3d7e74898f85392a61a76e8149181ae1259622dabc85f80a38152f35b6040513d5f823e3d90fd5b634e487b7160e01b5f52604160045260245ffd5b5f80fd5b346100e8575f3660031901126100e8575f546001600160a01b03168152602090f3fe60803461013a5761051c601f38829003908101601f19168301906001600160401b0382118483101761013e578084916040948594855283398101031261013a57610054602061004d84610152565b9301610152565b6001600160a01b03908082168015610129577f7e644d79422f17c01e4894b5f4f588d331ebfa28653d42ae832dc59e38c9798f847fb53127684a568b3173ae13b9f8a6016e243e63b6e8ee1178d6a717850b5d610392835490868351921682526020820152a1558216918215610118577fa3f0ad74e5423aebfd80d3ef4346578335a9a72aeaee59ff6cb3582b35133d505551907f1cf3b03a6cf19fa2baba4df148e9dcabedea7f8a5c07840e207e5c089be95d3e5f80a26103b590816101678239f35b815163d92e233d60e01b8152600490fd5b835163d92e233d60e01b8152600490fd5b5f80fd5b634e487b7160e01b5f52604160045260245ffd5b51906001600160a01b038216820361013a5756fe60806040526004361015610018575b3661035857610358565b5f3560e01c80632d6b3a6b146100675780636e9960c3146100625780638f2839701461005d578063aaf10f42146100585763d14823f80361000e576101e7565b6101bb565b610108565b6100b0565b346100ac575f3660031901126100ac577fa3f0ad74e5423aebfd80d3ef4346578335a9a72aeaee59ff6cb3582b35133d50546001600160a01b03166080908152602090f35b5f80fd5b346100ac575f3660031901126100ac577fb53127684a568b3173ae13b9f8a6016e243e63b6e8ee1178d6a717850b5d6103546040516001600160a01b039091168152602090f35b6001600160a01b038116036100ac57565b346100ac5760203660031901126100ac57600435610125816100f7565b7fb53127684a568b3173ae13b9f8a6016e243e63b6e8ee1178d6a717850b5d610380546001600160a01b0390811690338290036101a95783168015610197577f7e644d79422f17c01e4894b5f4f588d331ebfa28653d42ae832dc59e38c9798f9160409182519182526020820152a155005b60405163d92e233d60e01b8152600490fd5b604051633057182d60e21b8152600490fd5b346100ac575f3660031901126100ac5760206101d56102a0565b6040516001600160a01b039091168152f35b346100ac5760203660031901126100ac57600435610204816100f7565b7fb53127684a568b3173ae13b9f8a6016e243e63b6e8ee1178d6a717850b5d6103546001600160a01b0390811633036101a9578116908115610197577fa3f0ad74e5423aebfd80d3ef4346578335a9a72aeaee59ff6cb3582b35133d50557f1cf3b03a6cf19fa2baba4df148e9dcabedea7f8a5c07840e207e5c089be95d3e5f80a2005b908160209103126100ac575161029d816100f7565b90565b7fa3f0ad74e5423aebfd80d3ef4346578335a9a72aeaee59ff6cb3582b35133d5054604051635c60da1b60e01b815290602090829060049082905f906001600160a01b03165af190811561034d575f916102f8575090565b602091503d8211610345575b601f8201601f191681019167ffffffffffffffff8311828410176103315761029d92604052810190610288565b634e487b7160e01b5f52604160045260245ffd5b3d9150610304565b6040513d5f823e3d90fd5b6103606102a0565b5f8060405192368285378336915af4903d91825f833e1561037d57f35bfdfea2646970667358221220109da4e28404442780d09d3e78ed80373e08fad8b3c8b5dbc2751b9b145e62f964736f6c63430008190033a2646970667358221220b6a9526f54edb5ed0c3e312b817dab32863ccd73118d5aff3a33a4b9736c5c3b64736f6c63430008190033",
        "linkReferences": {}
    },
    "methodIdentifiers": {
        "beacon()": "59659e90",
        "create(address)": "9ed93318"
    },
    "id": 42
}