{"abi":[{"type":"receive","stateMutability":"payable"},{"type":"function","name":"DOMAIN_SEPARATOR","inputs":[],"outputs":[{"name":"","type":"bytes32","internalType":"bytes32"}],"stateMutability":"view"},{"type":"function","name":"accountManager","inputs":[],"outputs":[{"name":"","type":"address","internalType":"address"}],"stateMutability":"view"},{"type":"function","name":"admin","inputs":[],"outputs":[{"name":"","type":"address","internalType":"address"}],"stateMutability":"view"},{"type":"function","name":"allowance","inputs":[{"name":"","type":"address","internalType":"address"},{"name":"","type":"address","internalType":"address"}],"outputs":[{"name":"","type":"uint256","internalType":"uint256"}],"stateMutability":"view"},{"type":"function","name":"approve","inputs":[{"name":"spender","type":"address","internalType":"address"},{"name":"amount","type":"uint256","internalType":"uint256"}],"outputs":[{"name":"","type":"bool","internalType":"bool"}],"stateMutability":"nonpayable"},{"type":"function","name":"asset","inputs":[],"outputs":[{"name":"","type":"address","internalType":"contract ERC20"}],"stateMutability":"view"},{"type":"function","name":"balanceOf","inputs":[{"name":"","type":"address","internalType":"address"}],"outputs":[{"name":"","type":"uint256","internalType":"uint256"}],"stateMutability":"view"},{"type":"function","name":"borrows","inputs":[],"outputs":[{"name":"","type":"uint256","internalType":"uint256"}],"stateMutability":"view"},{"type":"function","name":"borrowsOf","inputs":[{"name":"","type":"address","internalType":"address"}],"outputs":[{"name":"","type":"uint256","internalType":"uint256"}],"stateMutability":"view"},{"type":"function","name":"collectFrom","inputs":[{"name":"account","type":"address","internalType":"address"},{"name":"amt","type":"uint256","internalType":"uint256"}],"outputs":[{"name":"","type":"bool","internalType":"bool"}],"stateMutability":"nonpayable"},{"type":"function","name":"convertToAssets","inputs":[{"name":"shares","type":"uint256","internalType":"uint256"}],"outputs":[{"name":"","type":"uint256","internalType":"uint256"}],"stateMutability":"view"},{"type":"function","name":"convertToShares","inputs":[{"name":"assets","type":"uint256","internalType":"uint256"}],"outputs":[{"name":"","type":"uint256","internalType":"uint256"}],"stateMutability":"view"},{"type":"function","name":"decimals","inputs":[],"outputs":[{"name":"","type":"uint8","internalType":"uint8"}],"stateMutability":"view"},{"type":"function","name":"deposit","inputs":[{"name":"assets","type":"uint256","internalType":"uint256"},{"name":"receiver","type":"address","internalType":"address"}],"outputs":[{"name":"shares","type":"uint256","internalType":"uint256"}],"stateMutability":"nonpayable"},{"type":"function","name":"depositEth","inputs":[],"outputs":[{"name":"shares","type":"uint256","internalType":"uint256"}],"stateMutability":"payable"},{"type":"function","name":"getBorrowBalance","inputs":[{"name":"account","type":"address","internalType":"address"}],"outputs":[{"name":"","type":"uint256","internalType":"uint256"}],"stateMutability":"view"},{"type":"function","name":"getBorrows","inputs":[],"outputs":[{"name":"","type":"uint256","internalType":"uint256"}],"stateMutability":"view"},{"type":"function","name":"init","inputs":[{"name":"_asset","type":"address","internalType":"contract ERC20"},{"name":"_name","type":"string","internalType":"string"},{"name":"_symbol","type":"string","internalType":"string"},{"name":"_registry","type":"address","internalType":"contract IRegistry"},{"name":"_originationFee","type":"uint256","internalType":"uint256"},{"name":"_treasury","type":"address","internalType":"address"},{"name":"_reserveShares","type":"uint256","internalType":"uint256"},{"name":"_maxSupply","type":"uint256","internalType":"uint256"}],"outputs":[],"stateMutability":"nonpayable"},{"type":"function","name":"initDep","inputs":[{"name":"_rateModel","type":"string","internalType":"string"}],"outputs":[],"stateMutability":"nonpayable"},{"type":"function","name":"lastUpdated","inputs":[],"outputs":[{"name":"","type":"uint256","internalType":"uint256"}],"stateMutability":"view"},{"type":"function","name":"lendTo","inputs":[{"name":"account","type":"address","internalType":"address"},{"name":"amt","type":"uint256","internalType":"uint256"}],"outputs":[{"name":"isFirstBorrow","type":"bool","internalType":"bool"}],"stateMutability":"nonpayable"},{"type":"function","name":"maxDeposit","inputs":[{"name":"","type":"address","internalType":"address"}],"outputs":[{"name":"","type":"uint256","internalType":"uint256"}],"stateMutability":"view"},{"type":"function","name":"maxMint","inputs":[{"name":"","type":"address","internalType":"address"}],"outputs":[{"name":"","type":"uint256","internalType":"uint256"}],"stateMutability":"view"},{"type":"function","name":"maxRedeem","inputs":[{"name":"owner","type":"address","internalType":"address"}],"outputs":[{"name":"","type":"uint256","internalType":"uint256"}],"stateMutability":"view"},{"type":"function","name":"maxSupply","inputs":[],"outputs":[{"name":"","type":"uint256","internalType":"uint256"}],"stateMutability":"view"},{"type":"function","name":"maxWithdraw","inputs":[{"name":"owner","type":"address","internalType":"address"}],"outputs":[{"name":"","type":"uint256","internalType":"uint256"}],"stateMutability":"view"},{"type":"function","name":"mint","inputs":[{"name":"shares","type":"uint256","internalType":"uint256"},{"name":"receiver","type":"address","internalType":"address"}],"outputs":[{"name":"assets","type":"uint256","internalType":"uint256"}],"stateMutability":"nonpayable"},{"type":"function","name":"name","inputs":[],"outputs":[{"name":"","type":"string","internalType":"string"}],"stateMutability":"view"},{"type":"function","name":"nonces","inputs":[{"name":"","type":"address","internalType":"address"}],"outputs":[{"name":"","type":"uint256","internalType":"uint256"}],"stateMutability":"view"},{"type":"function","name":"originationFee","inputs":[],"outputs":[{"name":"","type":"uint256","internalType":"uint256"}],"stateMutability":"view"},{"type":"function","name":"paused","inputs":[],"outputs":[{"name":"","type":"bool","internalType":"bool"}],"stateMutability":"view"},{"type":"function","name":"permit","inputs":[{"name":"owner","type":"address","internalType":"address"},{"name":"spender","type":"address","internalType":"address"},{"name":"value","type":"uint256","internalType":"uint256"},{"name":"deadline","type":"uint256","internalType":"uint256"},{"name":"v","type":"uint8","internalType":"uint8"},{"name":"r","type":"bytes32","internalType":"bytes32"},{"name":"s","type":"bytes32","internalType":"bytes32"}],"outputs":[],"stateMutability":"nonpayable"},{"type":"function","name":"previewDeposit","inputs":[{"name":"assets","type":"uint256","internalType":"uint256"}],"outputs":[{"name":"","type":"uint256","internalType":"uint256"}],"stateMutability":"view"},{"type":"function","name":"previewMint","inputs":[{"name":"shares","type":"uint256","internalType":"uint256"}],"outputs":[{"name":"","type":"uint256","internalType":"uint256"}],"stateMutability":"view"},{"type":"function","name":"previewRedeem","inputs":[{"name":"shares","type":"uint256","internalType":"uint256"}],"outputs":[{"name":"","type":"uint256","internalType":"uint256"}],"stateMutability":"view"},{"type":"function","name":"previewWithdraw","inputs":[{"name":"assets","type":"uint256","internalType":"uint256"}],"outputs":[{"name":"","type":"uint256","internalType":"uint256"}],"stateMutability":"view"},{"type":"function","name":"rateModel","inputs":[],"outputs":[{"name":"","type":"address","internalType":"contract IRateModel"}],"stateMutability":"view"},{"type":"function","name":"redeem","inputs":[{"name":"shares","type":"uint256","internalType":"uint256"},{"name":"receiver","type":"address","internalType":"address"},{"name":"owner","type":"address","internalType":"address"}],"outputs":[{"name":"assets","type":"uint256","internalType":"uint256"}],"stateMutability":"nonpayable"},{"type":"function","name":"redeemEth","inputs":[{"name":"shares","type":"uint256","internalType":"uint256"}],"outputs":[{"name":"assets","type":"uint256","internalType":"uint256"}],"stateMutability":"nonpayable"},{"type":"function","name":"registry","inputs":[],"outputs":[{"name":"","type":"address","internalType":"contract IRegistry"}],"stateMutability":"view"},{"type":"function","name":"symbol","inputs":[],"outputs":[{"name":"","type":"string","internalType":"string"}],"stateMutability":"view"},{"type":"function","name":"togglePause","inputs":[],"outputs":[],"stateMutability":"nonpayable"},{"type":"function","name":"totalAssets","inputs":[],"outputs":[{"name":"","type":"uint256","internalType":"uint256"}],"stateMutability":"view"},{"type":"function","name":"totalBorrowShares","inputs":[],"outputs":[{"name":"","type":"uint256","internalType":"uint256"}],"stateMutability":"view"},{"type":"function","name":"totalSupply","inputs":[],"outputs":[{"name":"","type":"uint256","internalType":"uint256"}],"stateMutability":"view"},{"type":"function","name":"transfer","inputs":[{"name":"to","type":"address","internalType":"address"},{"name":"amount","type":"uint256","internalType":"uint256"}],"outputs":[{"name":"","type":"bool","internalType":"bool"}],"stateMutability":"nonpayable"},{"type":"function","name":"transferFrom","inputs":[{"name":"from","type":"address","internalType":"address"},{"name":"to","type":"address","internalType":"address"},{"name":"amount","type":"uint256","internalType":"uint256"}],"outputs":[{"name":"","type":"bool","internalType":"bool"}],"stateMutability":"nonpayable"},{"type":"function","name":"transferOwnership","inputs":[{"name":"newAdmin","type":"address","internalType":"address"}],"outputs":[],"stateMutability":"nonpayable"},{"type":"function","name":"treasury","inputs":[],"outputs":[{"name":"","type":"address","internalType":"address"}],"stateMutability":"view"},{"type":"function","name":"updateMaxSupply","inputs":[{"name":"_maxSupply","type":"uint256","internalType":"uint256"}],"outputs":[],"stateMutability":"nonpayable"},{"type":"function","name":"updateOriginationFee","inputs":[{"name":"_originationFee","type":"uint256","internalType":"uint256"}],"outputs":[],"stateMutability":"nonpayable"},{"type":"function","name":"updateState","inputs":[],"outputs":[],"stateMutability":"nonpayable"},{"type":"function","name":"withdraw","inputs":[{"name":"assets","type":"uint256","internalType":"uint256"},{"name":"receiver","type":"address","internalType":"address"},{"name":"owner","type":"address","internalType":"address"}],"outputs":[{"name":"shares","type":"uint256","internalType":"uint256"}],"stateMutability":"nonpayable"},{"type":"event","name":"Approval","inputs":[{"name":"owner","type":"address","indexed":true,"internalType":"address"},{"name":"spender","type":"address","indexed":true,"internalType":"address"},{"name":"amount","type":"uint256","indexed":false,"internalType":"uint256"}],"anonymous":false},{"type":"event","name":"Deposit","inputs":[{"name":"caller","type":"address","indexed":true,"internalType":"address"},{"name":"owner","type":"address","indexed":true,"internalType":"address"},{"name":"assets","type":"uint256","indexed":false,"internalType":"uint256"},{"name":"shares","type":"uint256","indexed":false,"internalType":"uint256"}],"anonymous":false},{"type":"event","name":"OwnershipTransferred","inputs":[{"name":"previousAdmin","type":"address","indexed":true,"internalType":"address"},{"name":"newAdmin","type":"address","indexed":true,"internalType":"address"}],"anonymous":false},{"type":"event","name":"PauseToggled","inputs":[{"name":"admin","type":"address","indexed":true,"internalType":"address"},{"name":"pause","type":"bool","indexed":false,"internalType":"bool"}],"anonymous":false},{"type":"event","name":"ReservesRedeemed","inputs":[{"name":"treasury","type":"address","indexed":true,"internalType":"address"},{"name":"amt","type":"uint256","indexed":false,"internalType":"uint256"}],"anonymous":false},{"type":"event","name":"Transfer","inputs":[{"name":"from","type":"address","indexed":true,"internalType":"address"},{"name":"to","type":"address","indexed":true,"internalType":"address"},{"name":"amount","type":"uint256","indexed":false,"internalType":"uint256"}],"anonymous":false},{"type":"event","name":"Withdraw","inputs":[{"name":"caller","type":"address","indexed":true,"internalType":"address"},{"name":"receiver","type":"address","indexed":true,"internalType":"address"},{"name":"owner","type":"address","indexed":true,"internalType":"address"},{"name":"assets","type":"uint256","indexed":false,"internalType":"uint256"},{"name":"shares","type":"uint256","indexed":false,"internalType":"uint256"}],"anonymous":false},{"type":"error","name":"AccountManagerOnly","inputs":[]},{"type":"error","name":"AdminOnly","inputs":[]},{"type":"error","name":"ContractAlreadyInitialized","inputs":[]},{"type":"error","name":"ContractPaused","inputs":[]},{"type":"error","name":"EthTransferFailure","inputs":[]},{"type":"error","name":"MaxSupply","inputs":[]},{"type":"error","name":"MinimumShares","inputs":[]},{"type":"error","name":"ZeroAddress","inputs":[]},{"type":"error","name":"ZeroAssets","inputs":[]},{"type":"error","name":"ZeroShares","inputs":[]}],"bytecode":{"object":"0x60808060405234601557612512908161001a8239f35b5f80fdfe6040608081526004908136101561001f575b5050361561001d575f80fd5b005b5f915f3560e01c90816301e1d11414611b8f57816306fdde0314611afd57816307a2d13a14611adf578163095ea7b314611a715781630a28a47714611a53578163136cf1f714611a3557816318160ddd14611a195781631d8557d714611a0157816323b872dd1461197f578163313ce5671461195e5781633644e5151461194257816338d52e0f1461191a578163402d267d146118ec578163439370b1146118265781634bc3f0ec146116cc5781634cdad506146116ac5781635c975abb1461168757816361d027b31461165e5781636ab22cf0146115575781636b6d2586146113cc5781636d47049a1461139f5781636e553f651461128557816370a082311461042b5781637b103999146112585781637d6af079146111f65781637ecebe00146111be57816391c2c4691461119557816394bf804d1461109057816395d89b4114610faf578163a108845914610f86578163a9059cbb14610f53578163b3d7f6b914610f33578163b460af9414610e67578163b8bb5c4214610e48578163ba08765214610d2d578163bde4f47714610cf5578163bf9836a614610c50578163c4ae316814610bcb578163c63d75b614610ba4578163c6e6f59214610382578163cbcafed21461071e578163ce96cb77146106e4578163d0b06f5d146106c5578163d505accf14610482578163d5abeb0114610463578163d905777e1461042b578163dd62ed3e146103de578163eae93e7e146103ac578163ef8b30f714610382578163f103b43314610348578163f2fde38b146102b657508063f851a4401461028f5763ff3f60e703610011573461028b578160031936011261028b576020906011549051908152f35b5080fd5b503461028b578160031936011261028b57905490516001600160a01b039091168152602090f35b905034610344576020366003190112610344576102d1611c57565b8354916001600160a01b0380841692338403610334571693841561032757505082907f8be0079c531659141344cd1fd0a4f28419497f9722a3daafe3b4186f6b6457e08580a36001600160a01b03191617815580f35b5163d92e233d60e01b8152fd5b8551633057182d60e21b81528390fd5b8280fd5b919050346103445760203660031901126103445782546001600160a01b0316330361037557503560055580f35b51633057182d60e21b8152fd5b8284346103a95760203660031901126103a957506103a260209235611edf565b9051908152f35b80fd5b50503461028b578160031936011261028b576020906103a26011546103d86103d2611faa565b82611f65565b90611ce6565b50503461028b578060031936011261028b576020916103fb611c57565b82610404611c6d565b6001600160a01b03928316845260078652922091165f908152908352819020549051908152f35b50503461028b57602036600319011261028b5760209181906001600160a01b03610453611c57565b1681526006845220549051908152f35b50503461028b578160031936011261028b576020906005549051908152f35b9050346103445760e03660031901126103445761049d611c57565b6104a5611c6d565b9260443590606435936084359360ff85168095036106c15742861061067e576104cc611e08565b9660018060a01b0380921696878a52602096600a8852858b20998a549a60018c019055865192858a8501957f6e71edae12b1b97f4d1f60370fef10105fa2faae0126114a169c64845d6126c987528c8a870152169b8c606086015289608086015260a085015260c084015260c0835260e0830167ffffffffffffffff948482108683111761066b578189528451902061010085019261190160f01b8452610102860152610122850152604281526101608401948186109086111761065857848852519020835261018082015260a4356101a082015260c4356101c0909101528880528590899060809060015afa1561064e578751169081151580610645575b156106115750907f8c5be1e5ebec7d5bd14f71427d1e84f3dd0314c0f7b2291e5b200ac8c7c3b925939291875260078352808720865f52835281815f205551908152a380f35b825162461bcd60e51b8152908101859052600e60248201526d24a72b20a624a22fa9a4a3a722a960911b6044820152606490fd5b508582146105cb565b82513d89823e3d90fd5b604187634e487b7160e01b5f525260245ffd5b604188634e487b7160e01b5f525260245ffd5b506020606492519162461bcd60e51b8352820152601760248201527f5045524d49545f444541444c494e455f455850495245440000000000000000006044820152fd5b8780fd5b50503461028b578160031936011261028b576020906012549051908152f35b50503461028b57602036600319011261028b576020916103a29082906001600160a01b03610710611c57565b168152600685522054611d98565b8391503461028b5761010036600319011261028b576001600160a01b039080358281169190829003610ba05767ffffffffffffffff94602435868111610b9c5761076b9036908401611c83565b936044358881116106c1576107839036908601611c83565b9190946064359588871694858803610b985760a435998a16809a03610b9457600d549560ff8716610b84578415908115610b7b575b508015610b73575b610b63576001809660ff191617600d553315610b63579161080a81926108028d956bffffffffffffffffffffffff60a01b9c8d33908954161788553691611f1a565b963691611f1a565b93600b5490808b831617600b5560c435600c5588519283809263313ce56760e01b8252602097889516175afa968715610b5a57508a96610b1d575b5083518b8111610b0a578061085a8754611bab565b95601f96878111610aae575b5084908d888411600114610a455792610a3a575b50505f19600383901b1c191690861b1785555b82519a8b11610a275750896108a3600254611bab565b8481116109c3575b505080928a1160011461093d57509780928192899a60ff9798999a94610932575b50501b915f199060031b1c1916176002555b1660ff19600354161760035560e435600555466008556108fc612130565b600955600d5490610100600160a81b039060081b1690610100600160a81b03191617600d55608435601355601054161760105580f35b015192508a806108cc565b60028952601f198a1699927f405787fa12a823e0f2b7631cc41b3ba8828b3321ca811111fa75cd3aa3bb5ace9290918a905b8c82106109ac5750508360ff9798999a9b10610994575b505050811b016002556108de565b01515f1960f88460031b161c19169055888080610986565b80878596829496860151815501950193019061096f565b60028b52847f405787fa12a823e0f2b7631cc41b3ba8828b3321ca811111fa75cd3aa3bb5ace918482850160051c84019410610a1e575b0160051c019085905b828110610a1357508b91506108ab565b8b8155018590610a03565b925081926109fa565b634e487b7160e01b8a5260419052602489fd5b015190508d8061087a565b9190899450601f1984168584525f805160206124bd833981519152935b88828210610a985750508411610a80575b505050811b01855561088d565b01515f1960f88460031b161c191690558d8080610a73565b8385015186558c97909501949384019301610a62565b909150878d525f805160206124bd8339815191528780850160051c820192878610610b01575b859493910160051c9091019089908f5b838210610af357505050610866565b81558594508a91018f610ae4565b92508192610ad4565b634e487b7160e01b8b526041825260248bfd5b9095508181813d8311610b53575b610b358183611c0b565b81010312610b4f575160ff81168103610b4f57948b610845565b8980fd5b503d610b2b565b513d8c823e3d90fd5b865163d92e233d60e01b81528390fd5b5089156107c0565b9050158d6107b8565b8751631ee1e30360e21b81528490fd5b5f80fd5b8a80fd5b8580fd5b8380fd5b50503461028b57602036600319011261028b57602090610bc2611c57565b506103a2611ec1565b905034610344578260031936011261034457825490336001600160a01b03831603610c42575060ff908160a01b828260a01c161560a01b16908260a01b19161791828455519160a01c16151581527f79a5bc58b021076f821571d0fe8b0ae3d9e0a666563bb064fdbf0bf69281331c60203392a280f35b8251633057182d60e21b8152fd5b905034610344578160031936011261034457610c6a611c57565b600f549091602435916001600160a01b03919082163303610ce7575091610cd482610cc98695610c9c6020999661234c565b94610ca8861515611e1f565b169384865260158952868620610cbf828254611dfb565b9055601454611dfb565b601455601154611dfb565b6011558152601584522054159051908152f35b845163fae067e560e01b8152fd5b50503461028b57602036600319011261028b5760209181906001600160a01b03610d1d611c57565b1681526015845220549051908152f35b905082346103a957610d3e36611cb1565b90926001600160a01b039283831692909133849003610dfa575b50610d6282611d98565b958615610dc9575092859282610d876020999794610dc397610d82611dcf565b612307565b86519085825289820152828416907ffbde797d201c681b91056529119e0b02407c7bb96a4a2c75c01fc9667232c8db883392a4600b541661236e565b51908152f35b606490602089519162461bcd60e51b8352820152600b60248201526a5a45524f5f41535345545360a81b6044820152fd5b8381526007602052878120335f5260205287805f2054845f198203610e22575b505050610d58565b610e2b91611dfb565b91858152600760205220335f52602052875f205587878184610e1a565b50503461028b578160031936011261028b576020906013549051908152f35b50503461028b5790602091610dc3610e7e36611cb1565b610e8783611db0565b956001600160a01b039180831691610ead91899133859003610ee9575b50610d82611dcf565b85518481528789820152828416907ffbde797d201c681b91056529119e0b02407c7bb96a4a2c75c01fc9667232c8db883392a4600b541661236e565b84815260078c52898120335f528c5289805f2054845f198203610f0f575b505050610ea4565b610f1891611dfb565b9186815260078e5220335f528c52895f20555f898184610f07565b8284346103a95760203660031901126103a957506103a260209235611ea3565b50503461028b578060031936011261028b57602090610f7d610f73611c57565b60243590336120c1565b90519015158152f35b50503461028b578160031936011261028b57600e5490516001600160a01b039091168152602090f35b8284346103a957806003193601126103a9575080515f600254610fd181611bab565b80845290602090600190818116908115611066575060011461100d575b6110098587610fff82880383611c0b565b5191829182611c2d565b0390f35b60025f90815293507f405787fa12a823e0f2b7631cc41b3ba8828b3321ca811111fa75cd3aa3bb5ace5b83851061105357505050508101602001610fff82611009610fee565b8054868601840152938201938101611037565b61100997955086935060209250610fff94915060ff191682840152151560051b8201019294610fee565b905082346103a957826003193601126103a957508035916110af611c6d565b83906110b9611dcf565b6110c285611ea3565b9380541580611185575b611135575b50600b54602095506001600160a01b0391906110f49086903090339086166123fe565b6110fe83826122ba565b8351928584528684015216907fdcbc1c05240f31ff3ad067ef1ee35ce4997762752e3a095284754544f4c709d7833392a351908152f35b90915061114e61114960ff60035416611e90565b611e60565b8511156111775750611170602094611167600c54612263565b600c5490611dfb565b90856110d1565b825163a212f0b960e01b8152fd5b50600660ff6003541610156110cc565b50503461028b578160031936011261028b57600f5490516001600160a01b039091168152602090f35b50503461028b57602036600319011261028b5760209181906001600160a01b036111e6611c57565b168152600a845220549051908152f35b50503461028b57602036600319011261028b576020916001600160a01b0361121c611c57565b16815260158352819020546014548061123757509051908152f35b6112529161124c6011546103d86103d2611faa565b90611f50565b90610dc3565b50503461028b578160031936011261028b57600d54905160089190911c6001600160a01b03168152602090f35b83833461028b578060031936011261028b5782356112a1611c6d565b92506112ab611dcf565b6112b481611edf565b92831561136e578454158061135e575b61132c575b600b54602095506001600160a01b0391906112eb9084903090339086166123fe565b6112f585826122ba565b8351928352848684015216907fdcbc1c05240f31ff3ad067ef1ee35ce4997762752e3a095284754544f4c709d7833392a351908152f35b929361133f61114960ff60035416611e90565b8511156111775750611358602094611167600c54612263565b926112c9565b50600660ff6003541610156112c4565b825162461bcd60e51b8152602081870152600b60248201526a5a45524f5f53484152455360a81b6044820152606490fd5b919050346103445760203660031901126103445782546001600160a01b0316330361037557503560135580f35b8391503461028b576020928360031936011261034457813567ffffffffffffffff8111610ba0576114009036908401611c83565b845490956001600160a01b0394909290918516330361154857604495968386600d5460081c16918651988982819363bf40fac160e01b97888452868a8501528160248501528484013781810183018d9052601f01601f19168101030181845afa96871561153e578897611514575b509160648493928493886bffffffffffffffffffffffff60a01b9a168a600e541617600e55875196879485938452830152600f60248301526e20a1a1a7aaa72a2fa6a0a720a3a2a960891b60448301525afa92831561150b575085926114de575b50501690600f541617600f5580f35b6114fd9250803d10611504575b6114f58183611c0b565b810190611e71565b84806114cf565b503d6114eb565b513d87823e3d90fd5b84939197508392611533606492853d8711611504576114f58183611c0b565b98929450925061146e565b85513d8a823e3d90fd5b508251633057182d60e21b8152fd5b83833461028b578060031936011261028b57611571611c57565b6024359360ff845460a01c1661165057600f546001600160a01b03919082163303611642575093610dc39161163c6020966115aa611dcf565b808316808852601589526115f187808a205415996115c78861234c565b936115d3851515611e1f565b6115df85601454611ce6565b601455815260158c5220918254611ce6565b90556115ff84601154611ce6565b60115561161d60135461161660ff60035416611e60565b9086611f50565b906116328282600b541683601054169061236e565b600b541693611dfb565b9161236e565b835163fae067e560e01b8152fd5b825163ab35696f60e01b8152fd5b50503461028b578160031936011261028b5760105490516001600160a01b039091168152602090f35b50503461028b578160031936011261028b5760ff6020925460a01c1690519015158152f35b8284346103a95760203660031901126103a957506103a260209235611d98565b838334610b94576020366003190112610b94578235916116eb83611d98565b928315611816576116fa611dcf565b6117048133612307565b8251908482526020820152339033907ffbde797d201c681b91056529119e0b02407c7bb96a4a2c75c01fc9667232c8db853392a4600b546001600160a01b0316803b15610b94575f80916024855180948193632e1a7d4d60e01b8352898b8401525af1801561180c576117fb575b508151602081019080821067ffffffffffffffff8311176117e857828281809493819488525286335af1903d156117e2573d906117ae82611efe565b916117bb85519384611c0b565b825260203d92013e5b156117d3576020925051908152f35b5163af2349ad60e01b81529050fd5b506117c4565b604186634e487b7160e01b5f525260245ffd5b6118059150611be3565b5f84611772565b83513d5f823e3d90fd5b8251630cb65c7760e21b81528590fd5b825f366003190112610b945761183a611dcf565b61184334611edf565b9081156118dd57600b546001600160a01b0316803b15610b94575f90825194858092630d0e30db60e41b825234905af19283156118d3576020936118c4575b5061188d82336122ba565b8051348152828482015233907fdcbc1c05240f31ff3ad067ef1ee35ce4997762752e3a095284754544f4c709d7833392a351908152f35b6118cd90611be3565b83611882565b50513d5f823e3d90fd5b51639811e0c760e01b81529050fd5b8234610b94576020366003190112610b9457602090611909611c57565b506103a2611915611ec1565b611d98565b8234610b94575f366003190112610b9457600b5490516001600160a01b039091168152602090f35b8234610b94575f366003190112610b94576020906103a2611e08565b8234610b94575f366003190112610b945760209060ff600354169051908152f35b8234610b94576060366003190112610b9457602090610f7d61199f611c57565b6119a7611c6d565b6001600160a01b0382165f8181526007875285812033825287528590205460443593919084600182016119dd575b5050506120c1565b6119e691611dfb565b905f5260078752855f20335f528752855f20558680846119d5565b34610b94575f366003190112610b945761001d611dcf565b8234610b94575f366003190112610b9457602091549051908152f35b8234610b94575f366003190112610b94576020906014549051908152f35b8234610b94576020366003190112610b94576103a260209235611db0565b8234610b945780600319360112610b9457602090611a8d611c57565b602435335f5260078452825f209160018060a01b031691825f52845280835f205582519081527f8c5be1e5ebec7d5bd14f71427d1e84f3dd0314c0f7b2291e5b200ac8c7c3b925843392a35160018152f35b8234610b94576020366003190112610b94576103a260209235611d98565b8234610b94575f366003190112610b945780515f60018054611b1e81611bab565b80855291602091600181169081156110665750600114611b49576110098587610fff82880383611c0b565b60015f90815293505f805160206124bd8339815191525b838510611b7c57505050508101602001610fff82611009610fee565b8054868601840152938201938101611b60565b8234610b94575f366003190112610b94576020906103a2611d07565b90600182811c92168015611bd9575b6020831014611bc557565b634e487b7160e01b5f52602260045260245ffd5b91607f1691611bba565b67ffffffffffffffff8111611bf757604052565b634e487b7160e01b5f52604160045260245ffd5b90601f8019910116810190811067ffffffffffffffff821117611bf757604052565b602060409281835280519182918282860152018484015e5f828201840152601f01601f1916010190565b600435906001600160a01b0382168203610b9457565b602435906001600160a01b0382168203610b9457565b9181601f84011215610b945782359167ffffffffffffffff8311610b945760208381860195010111610b9457565b6060906003190112610b9457600435906001600160a01b03906024358281168103610b9457916044359081168103610b945790565b91908201809211611cf357565b634e487b7160e01b5f52601160045260245ffd5b600b546040516370a0823160e01b815230600482015290602090829060249082906001600160a01b03165afa8015611d8d575f90611d59575b611d5691506103d86011546103d86103d2611faa565b90565b506020813d602011611d85575b81611d7360209383611c0b565b81010312610b9457611d569051611d40565b3d9150611d66565b6040513d5f823e3d90fd5b60045480611da4575090565b611d569161124c611d07565b60045480611dbc575090565b90611d5691611dc9611d07565b91611f8d565b6012544214611df957611df0611de3611faa565b6103d86011549182611f65565b60115542601255565b565b91908203918211611cf357565b6008544603611e175760095490565b611d56612130565b15611e2657565b60405162461bcd60e51b81526020600482015260126024820152715a45524f5f424f52524f575f53484152455360701b6044820152606490fd5b60ff16604d8111611cf357600a0a90565b90816020910312610b9457516001600160a01b0381168103610b945790565b60ff6001199116019060ff8211611cf357565b60045480611eaf575090565b611d5691611ebb611d07565b90611f8d565b6004546005549081811015611ed957611d5691611dfb565b50505f90565b60045480611eeb575090565b90611d5691611ef8611d07565b91611f50565b67ffffffffffffffff8111611bf757601f01601f191660200190565b929192611f2682611efe565b91611f346040519384611c0b565b829481845281830111610b94578281602093845f960137010152565b815f19048111820215830215610b9457020490565b90670de0b6b3a764000091815f19048111820215830215610b94570290808204910615150190565b815f19048111820215830215610b94570290808204910615150190565b601254428103611fb957505f90565b611fc39042611dfb565b670de0b6b3a764000090818102918183041490151715611cf357600e54600b546040516370a0823160e01b81523060048201526001600160a01b03928316936020939092849183916024918391165afa8015611d8d5783915f91612092575b506044601154916040519687938492630ab25e6560e31b8452600484015260248301525afa918215611d8d575f92612060575b50611d569250611f65565b90915082813d831161208b575b6120778183611c0b565b81010312610b9457611d569151905f612055565b503d61206d565b82819392503d83116120ba575b6120a98183611c0b565b81010312610b94578290515f612022565b503d61209f565b6001600160a01b03918216929190831561211e575f8051602061249d833981519152916020911692835f526006825260405f206120ff828254611dfb565b9055845f526006825260405f20818154019055604051908152a3600190565b60405163d92e233d60e01b8152600490fd5b6040515f600191600154918161214584611bab565b9182825260209586830195876001821691825f146122455750506001146121fd575b5061217492500382611c0b565b51902090604051908101917f8b73c3c69bb8fe3d512ecc4cf759cc79239f7b179b0ffacaa9a75d522b39400f835260408201527fc89efdaa54c0f20c7adf612882df0950f5a951637e0307cdcb4c672f298b8bc660608201524660808201523060a082015260a0815260c0810181811067ffffffffffffffff821117611bf75760405251902090565b86915060015f525f805160206124bd833981519152905f915b85831061222d57505061217493508201015f612167565b80548388018501528694508893909201918101612216565b60ff1916885261217495151560051b85010192505f91506121679050565b61226f81600454611ce6565b80600455600554106122a8575f5f8051602061249d833981519152602082938380526006825260408420818154019055604051908152a3565b604051632cdb04a160e21b8152600490fd5b6122c682600454611ce6565b80600455600554106122a8575f8051602061249d83398151915260205f9260018060a01b0316938484526006825260408420818154019055604051908152a3565b905f8051602061249d83398151915260205f9360018060a01b0316928385526006825260408520612339828254611dfb565b90558060045403600455604051908152a3565b60145480612358575090565b90611d5691611dc96011546103d86103d2611faa565b60405163a9059cbb60e01b81526001600160a01b03909216600483015260248201929092526020905f9060449082855af19081601f3d1160015f51141615166123f1575b50156123ba57565b60405162461bcd60e51b815260206004820152600f60248201526e1514905394d1915497d19052531151608a1b6044820152606490fd5b3b153d171590505f6123b2565b6040516323b872dd60e01b81526001600160a01b03928316600482015292909116602483015260448201929092526020905f9060649082855af19081601f3d1160015f511416151661248f575b501561245357565b60405162461bcd60e51b81526020600482015260146024820152731514905394d1915497d19493d357d1905253115160621b6044820152606490fd5b3b153d171590505f61244b56feddf252ad1be2c89b69c2b068fc378daa952ba7f163c4a11628f55a4df523b3efb10e2d527612073b26eecdfd717e6a320cf44b4afac2b0732d9fcbe2b7fa0cf6a26469706673582212206ae8c50000704757dd26e27394635f2b71836b5598f0eb62f36f06f8483cb07b64736f6c63430008190033","linkReferences":{}},"methodIdentifiers":{"DOMAIN_SEPARATOR()":"3644e515","accountManager()":"91c2c469","admin()":"f851a440","allowance(address,address)":"dd62ed3e","approve(address,uint256)":"095ea7b3","asset()":"38d52e0f","balanceOf(address)":"70a08231","borrows()":"ff3f60e7","borrowsOf(address)":"bde4f477","collectFrom(address,uint256)":"bf9836a6","convertToAssets(uint256)":"07a2d13a","convertToShares(uint256)":"c6e6f592","decimals()":"313ce567","deposit(uint256,address)":"6e553f65","depositEth()":"439370b1","getBorrowBalance(address)":"7d6af079","getBorrows()":"eae93e7e","init(address,string,string,address,uint256,address,uint256,uint256)":"cbcafed2","initDep(string)":"6b6d2586","lastUpdated()":"d0b06f5d","lendTo(address,uint256)":"6ab22cf0","maxDeposit(address)":"402d267d","maxMint(address)":"c63d75b6","maxRedeem(address)":"d905777e","maxSupply()":"d5abeb01","maxWithdraw(address)":"ce96cb77","mint(uint256,address)":"94bf804d","name()":"06fdde03","nonces(address)":"7ecebe00","originationFee()":"b8bb5c42","paused()":"5c975abb","permit(address,address,uint256,uint256,uint8,bytes32,bytes32)":"d505accf","previewDeposit(uint256)":"ef8b30f7","previewMint(uint256)":"b3d7f6b9","previewRedeem(uint256)":"4cdad506","previewWithdraw(uint256)":"0a28a477","rateModel()":"a1088459","redeem(uint256,address,address)":"ba087652","redeemEth(uint256)":"4bc3f0ec","registry()":"7b103999","symbol()":"95d89b41","togglePause()":"c4ae3168","totalAssets()":"01e1d114","totalBorrowShares()":"136cf1f7","totalSupply()":"18160ddd","transfer(address,uint256)":"a9059cbb","transferFrom(address,address,uint256)":"23b872dd","transferOwnership(address)":"f2fde38b","treasury()":"61d027b3","updateMaxSupply(uint256)":"f103b433","updateOriginationFee(uint256)":"6d47049a","updateState()":"1d8557d7","withdraw(uint256,address,address)":"b460af94"},"id":76}