{"abi":[{"type":"constructor","inputs":[{"name":"_c1","type":"uint256","internalType":"uint256"},{"name":"_c2","type":"uint256","internalType":"uint256"},{"name":"_c3","type":"uint256","internalType":"uint256"},{"name":"_secsPerYear","type":"uint256","internalType":"uint256"}],"stateMutability":"nonpayable"},{"type":"function","name":"getBorrowRatePerSecond","inputs":[{"name":"liquidity","type":"uint256","internalType":"uint256"},{"name":"borrows","type":"uint256","internalType":"uint256"}],"outputs":[{"name":"","type":"uint256","internalType":"uint256"}],"stateMutability":"view"},{"type":"error","name":"IncorrectConstructorArgs","inputs":[]}],"bytecode":{"object":"0x610100346100d457601f6103f838819003918201601f19168301916001600160401b038311848410176100d8578084926080946040528339810103126100d45780519060208101516060604083015192015192801580156100cc575b80156100c4575b80156100bc575b6100aa5760805260a05260c05260e05260405161030b90816100ed8239608051816071015260a05181610103015260c051816050015260e051816101320152f35b6040516337414dbf60e01b8152600490fd5b508315610069565b508215610062565b50811561005b565b5f80fd5b634e487b7160e01b5f52604160045260245ffdfe60806040526004361015610011575f80fd5b5f3560e01c635592f32814610024575f80fd5b3461016c57604036600319011261016c5760243561004481600435610294565b908161025d5750505f5b7f00000000000000000000000000000000000000000000000000000000000000007f00000000000000000000000000000000000000000000000000000000000000009161009b83826102b5565b928190811561025557670de0b6b3a764000091601090815b6101e25750505b5f1994670de0b6b3a764000092828704811183021584021561016c576100e4928491020490610294565b9180156101d35781602091825b610170575050509061012861012e925b7f0000000000000000000000000000000000000000000000000000000000000000906102b5565b90610294565b91827f00000000000000000000000000000000000000000000000000000000000000009104821183021581021561016c576020926040519202048152f35b5f80fd5b8060801c61016c578002916706f05b59d3b200009283810190811061016c5782900492600182166101a7575b5060011c91826100f1565b838592950291848304036101c9575b810190811061016c57819004925f61019c565b83156101b6575f80fd5b505061012e906101285f610101565b8060801c61016c578002906706f05b59d3b200009182810190811061016c57670de0b6b3a764000090049160018216610221575b5060011c90816100b3565b8285929502918383040361024b575b810190811061016c57670de0b6b3a76400009004925f610216565b8215610230575f80fd5b5f91506100ba565b670de0b6b3a7640000907812725dd1d243aba0e75fe645cc4873f9e65afe688c928e1f21811182021583021561016c57020461004e565b919082018092116102a157565b634e487b7160e01b5f52601160045260245ffd5b90670de0b6b3a764000091815f1904811182021583021561016c5702049056fea2646970667358221220fe20a0e3461c75757faa253b676c87dd033fa991cf7c9d189401c86f6907b6ae64736f6c63430008190033","linkReferences":{}},"methodIdentifiers":{"getBorrowRatePerSecond(uint256,uint256)":"5592f328"},"id":44}